{
	"04 SamrtConttractBasic/SimpleVoting.sol": {
		"SimpleVoting": {
			"abi": [
				{
					"inputs": [
						{
							"internalType": "uint256",
							"name": "a",
							"type": "uint256"
						}
					],
					"name": "NamedArguments",
					"outputs": [
						{
							"internalType": "uint256",
							"name": "b",
							"type": "uint256"
						},
						{
							"internalType": "uint256",
							"name": "c",
							"type": "uint256"
						}
					],
					"stateMutability": "pure",
					"type": "function"
				},
				{
					"inputs": [
						{
							"internalType": "uint256",
							"name": "a",
							"type": "uint256"
						}
					],
					"name": "test",
					"outputs": [
						{
							"internalType": "uint256",
							"name": "",
							"type": "uint256"
						}
					],
					"stateMutability": "pure",
					"type": "function"
				}
			],
			"devdoc": {
				"kind": "dev",
				"methods": {},
				"version": 1
			},
			"evm": {
				"assembly": "    /* \"04 SamrtConttractBasic/SimpleVoting.sol\":59:313  contract SimpleVoting{... */\n  mstore(0x40, 0x80)\n  callvalue\n  dup1\n  iszero\n  tag_1\n  jumpi\n  0x00\n  dup1\n  revert\ntag_1:\n  pop\n  dataSize(sub_0)\n  dup1\n  dataOffset(sub_0)\n  0x00\n  codecopy\n  0x00\n  return\nstop\n\nsub_0: assembly {\n        /* \"04 SamrtConttractBasic/SimpleVoting.sol\":59:313  contract SimpleVoting{... */\n      mstore(0x40, 0x80)\n      callvalue\n      dup1\n      iszero\n      tag_1\n      jumpi\n      0x00\n      dup1\n      revert\n    tag_1:\n      pop\n      jumpi(tag_2, lt(calldatasize, 0x04))\n      shr(0xe0, calldataload(0x00))\n      dup1\n      0x29e99f07\n      eq\n      tag_3\n      jumpi\n      dup1\n      0x4fd959b0\n      eq\n      tag_4\n      jumpi\n    tag_2:\n      0x00\n      dup1\n      revert\n        /* \"04 SamrtConttractBasic/SimpleVoting.sol\":87:180  function test (uint256 a) external pure returns (uint256) {... */\n    tag_3:\n      tag_5\n      0x04\n      dup1\n      calldatasize\n      sub\n      dup2\n      add\n      swap1\n      tag_6\n      swap2\n      swap1\n      tag_7\n      jump\t// in\n    tag_6:\n      tag_8\n      jump\t// in\n    tag_5:\n      mload(0x40)\n      tag_9\n      swap2\n      swap1\n      tag_10\n      jump\t// in\n    tag_9:\n      mload(0x40)\n      dup1\n      swap2\n      sub\n      swap1\n      return\n        /* \"04 SamrtConttractBasic/SimpleVoting.sol\":186:310  function NamedArguments(uint256 a) external pure returns (uint256 b, uint256 c){... */\n    tag_4:\n      tag_11\n      0x04\n      dup1\n      calldatasize\n      sub\n      dup2\n      add\n      swap1\n      tag_12\n      swap2\n      swap1\n      tag_7\n      jump\t// in\n    tag_12:\n      tag_13\n      jump\t// in\n    tag_11:\n      mload(0x40)\n      tag_14\n      swap3\n      swap2\n      swap1\n      tag_15\n      jump\t// in\n    tag_14:\n      mload(0x40)\n      dup1\n      swap2\n      sub\n      swap1\n      return\n        /* \"04 SamrtConttractBasic/SimpleVoting.sol\":87:180  function test (uint256 a) external pure returns (uint256) {... */\n    tag_8:\n        /* \"04 SamrtConttractBasic/SimpleVoting.sol\":136:143  uint256 */\n      0x00\n        /* \"04 SamrtConttractBasic/SimpleVoting.sol\":171:173  10 */\n      0x0a\n        /* \"04 SamrtConttractBasic/SimpleVoting.sol\":167:168  a */\n      dup3\n        /* \"04 SamrtConttractBasic/SimpleVoting.sol\":167:173  a + 10 */\n      tag_17\n      swap2\n      swap1\n      tag_18\n      jump\t// in\n    tag_17:\n        /* \"04 SamrtConttractBasic/SimpleVoting.sol\":160:173  return a + 10 */\n      swap1\n      pop\n        /* \"04 SamrtConttractBasic/SimpleVoting.sol\":87:180  function test (uint256 a) external pure returns (uint256) {... */\n      swap2\n      swap1\n      pop\n      jump\t// out\n        /* \"04 SamrtConttractBasic/SimpleVoting.sol\":186:310  function NamedArguments(uint256 a) external pure returns (uint256 b, uint256 c){... */\n    tag_13:\n        /* \"04 SamrtConttractBasic/SimpleVoting.sol\":244:253  uint256 b */\n      0x00\n        /* \"04 SamrtConttractBasic/SimpleVoting.sol\":255:264  uint256 c */\n      dup1\n        /* \"04 SamrtConttractBasic/SimpleVoting.sol\":282:283  5 */\n      0x05\n        /* \"04 SamrtConttractBasic/SimpleVoting.sol\":278:279  a */\n      dup4\n        /* \"04 SamrtConttractBasic/SimpleVoting.sol\":278:283  a * 5 */\n      tag_20\n      swap2\n      swap1\n      tag_21\n      jump\t// in\n    tag_20:\n        /* \"04 SamrtConttractBasic/SimpleVoting.sol\":275:283  b= a * 5 */\n      swap2\n      pop\n        /* \"04 SamrtConttractBasic/SimpleVoting.sol\":301:303  10 */\n      0x0a\n        /* \"04 SamrtConttractBasic/SimpleVoting.sol\":297:298  a */\n      dup4\n        /* \"04 SamrtConttractBasic/SimpleVoting.sol\":297:303  a * 10 */\n      tag_22\n      swap2\n      swap1\n      tag_21\n      jump\t// in\n    tag_22:\n        /* \"04 SamrtConttractBasic/SimpleVoting.sol\":293:303  c = a * 10 */\n      swap1\n      pop\n        /* \"04 SamrtConttractBasic/SimpleVoting.sol\":186:310  function NamedArguments(uint256 a) external pure returns (uint256 b, uint256 c){... */\n      swap2\n      pop\n      swap2\n      jump\t// out\n        /* \"#utility.yul\":88:205   */\n    tag_24:\n        /* \"#utility.yul\":197:198   */\n      0x00\n        /* \"#utility.yul\":194:195   */\n      dup1\n        /* \"#utility.yul\":187:199   */\n      revert\n        /* \"#utility.yul\":334:411   */\n    tag_26:\n        /* \"#utility.yul\":371:378   */\n      0x00\n        /* \"#utility.yul\":400:405   */\n      dup2\n        /* \"#utility.yul\":389:405   */\n      swap1\n      pop\n        /* \"#utility.yul\":334:411   */\n      swap2\n      swap1\n      pop\n      jump\t// out\n        /* \"#utility.yul\":417:539   */\n    tag_27:\n        /* \"#utility.yul\":490:514   */\n      tag_37\n        /* \"#utility.yul\":508:513   */\n      dup2\n        /* \"#utility.yul\":490:514   */\n      tag_26\n      jump\t// in\n    tag_37:\n        /* \"#utility.yul\":483:488   */\n      dup2\n        /* \"#utility.yul\":480:515   */\n      eq\n        /* \"#utility.yul\":470:533   */\n      tag_38\n      jumpi\n        /* \"#utility.yul\":529:530   */\n      0x00\n        /* \"#utility.yul\":526:527   */\n      dup1\n        /* \"#utility.yul\":519:531   */\n      revert\n        /* \"#utility.yul\":470:533   */\n    tag_38:\n        /* \"#utility.yul\":417:539   */\n      pop\n      jump\t// out\n        /* \"#utility.yul\":545:684   */\n    tag_28:\n        /* \"#utility.yul\":591:596   */\n      0x00\n        /* \"#utility.yul\":629:635   */\n      dup2\n        /* \"#utility.yul\":616:636   */\n      calldataload\n        /* \"#utility.yul\":607:636   */\n      swap1\n      pop\n        /* \"#utility.yul\":645:678   */\n      tag_40\n        /* \"#utility.yul\":672:677   */\n      dup2\n        /* \"#utility.yul\":645:678   */\n      tag_27\n      jump\t// in\n    tag_40:\n        /* \"#utility.yul\":545:684   */\n      swap3\n      swap2\n      pop\n      pop\n      jump\t// out\n        /* \"#utility.yul\":690:1019   */\n    tag_7:\n        /* \"#utility.yul\":749:755   */\n      0x00\n        /* \"#utility.yul\":798:800   */\n      0x20\n        /* \"#utility.yul\":786:795   */\n      dup3\n        /* \"#utility.yul\":777:784   */\n      dup5\n        /* \"#utility.yul\":773:796   */\n      sub\n        /* \"#utility.yul\":769:801   */\n      slt\n        /* \"#utility.yul\":766:885   */\n      iszero\n      tag_42\n      jumpi\n        /* \"#utility.yul\":804:883   */\n      tag_43\n      tag_24\n      jump\t// in\n    tag_43:\n        /* \"#utility.yul\":766:885   */\n    tag_42:\n        /* \"#utility.yul\":924:925   */\n      0x00\n        /* \"#utility.yul\":949:1002   */\n      tag_44\n        /* \"#utility.yul\":994:1001   */\n      dup5\n        /* \"#utility.yul\":985:991   */\n      dup3\n        /* \"#utility.yul\":974:983   */\n      dup6\n        /* \"#utility.yul\":970:992   */\n      add\n        /* \"#utility.yul\":949:1002   */\n      tag_28\n      jump\t// in\n    tag_44:\n        /* \"#utility.yul\":939:1002   */\n      swap2\n      pop\n        /* \"#utility.yul\":895:1012   */\n      pop\n        /* \"#utility.yul\":690:1019   */\n      swap3\n      swap2\n      pop\n      pop\n      jump\t// out\n        /* \"#utility.yul\":1025:1143   */\n    tag_29:\n        /* \"#utility.yul\":1112:1136   */\n      tag_46\n        /* \"#utility.yul\":1130:1135   */\n      dup2\n        /* \"#utility.yul\":1112:1136   */\n      tag_26\n      jump\t// in\n    tag_46:\n        /* \"#utility.yul\":1107:1110   */\n      dup3\n        /* \"#utility.yul\":1100:1137   */\n      mstore\n        /* \"#utility.yul\":1025:1143   */\n      pop\n      pop\n      jump\t// out\n        /* \"#utility.yul\":1149:1371   */\n    tag_10:\n        /* \"#utility.yul\":1242:1246   */\n      0x00\n        /* \"#utility.yul\":1280:1282   */\n      0x20\n        /* \"#utility.yul\":1269:1278   */\n      dup3\n        /* \"#utility.yul\":1265:1283   */\n      add\n        /* \"#utility.yul\":1257:1283   */\n      swap1\n      pop\n        /* \"#utility.yul\":1293:1364   */\n      tag_48\n        /* \"#utility.yul\":1361:1362   */\n      0x00\n        /* \"#utility.yul\":1350:1359   */\n      dup4\n        /* \"#utility.yul\":1346:1363   */\n      add\n        /* \"#utility.yul\":1337:1343   */\n      dup5\n        /* \"#utility.yul\":1293:1364   */\n      tag_29\n      jump\t// in\n    tag_48:\n        /* \"#utility.yul\":1149:1371   */\n      swap3\n      swap2\n      pop\n      pop\n      jump\t// out\n        /* \"#utility.yul\":1377:1709   */\n    tag_15:\n        /* \"#utility.yul\":1498:1502   */\n      0x00\n        /* \"#utility.yul\":1536:1538   */\n      0x40\n        /* \"#utility.yul\":1525:1534   */\n      dup3\n        /* \"#utility.yul\":1521:1539   */\n      add\n        /* \"#utility.yul\":1513:1539   */\n      swap1\n      pop\n        /* \"#utility.yul\":1549:1620   */\n      tag_50\n        /* \"#utility.yul\":1617:1618   */\n      0x00\n        /* \"#utility.yul\":1606:1615   */\n      dup4\n        /* \"#utility.yul\":1602:1619   */\n      add\n        /* \"#utility.yul\":1593:1599   */\n      dup6\n        /* \"#utility.yul\":1549:1620   */\n      tag_29\n      jump\t// in\n    tag_50:\n        /* \"#utility.yul\":1630:1702   */\n      tag_51\n        /* \"#utility.yul\":1698:1700   */\n      0x20\n        /* \"#utility.yul\":1687:1696   */\n      dup4\n        /* \"#utility.yul\":1683:1701   */\n      add\n        /* \"#utility.yul\":1674:1680   */\n      dup5\n        /* \"#utility.yul\":1630:1702   */\n      tag_29\n      jump\t// in\n    tag_51:\n        /* \"#utility.yul\":1377:1709   */\n      swap4\n      swap3\n      pop\n      pop\n      pop\n      jump\t// out\n        /* \"#utility.yul\":1715:1895   */\n    tag_30:\n        /* \"#utility.yul\":1763:1840   */\n      0x4e487b7100000000000000000000000000000000000000000000000000000000\n        /* \"#utility.yul\":1760:1761   */\n      0x00\n        /* \"#utility.yul\":1753:1841   */\n      mstore\n        /* \"#utility.yul\":1860:1864   */\n      0x11\n        /* \"#utility.yul\":1857:1858   */\n      0x04\n        /* \"#utility.yul\":1850:1865   */\n      mstore\n        /* \"#utility.yul\":1884:1888   */\n      0x24\n        /* \"#utility.yul\":1881:1882   */\n      0x00\n        /* \"#utility.yul\":1874:1889   */\n      revert\n        /* \"#utility.yul\":1901:2092   */\n    tag_18:\n        /* \"#utility.yul\":1941:1944   */\n      0x00\n        /* \"#utility.yul\":1960:1980   */\n      tag_54\n        /* \"#utility.yul\":1978:1979   */\n      dup3\n        /* \"#utility.yul\":1960:1980   */\n      tag_26\n      jump\t// in\n    tag_54:\n        /* \"#utility.yul\":1955:1980   */\n      swap2\n      pop\n        /* \"#utility.yul\":1994:2014   */\n      tag_55\n        /* \"#utility.yul\":2012:2013   */\n      dup4\n        /* \"#utility.yul\":1994:2014   */\n      tag_26\n      jump\t// in\n    tag_55:\n        /* \"#utility.yul\":1989:2014   */\n      swap3\n      pop\n        /* \"#utility.yul\":2037:2038   */\n      dup3\n        /* \"#utility.yul\":2034:2035   */\n      dup3\n        /* \"#utility.yul\":2030:2039   */\n      add\n        /* \"#utility.yul\":2023:2039   */\n      swap1\n      pop\n        /* \"#utility.yul\":2058:2061   */\n      dup1\n        /* \"#utility.yul\":2055:2056   */\n      dup3\n        /* \"#utility.yul\":2052:2062   */\n      gt\n        /* \"#utility.yul\":2049:2085   */\n      iszero\n      tag_56\n      jumpi\n        /* \"#utility.yul\":2065:2083   */\n      tag_57\n      tag_30\n      jump\t// in\n    tag_57:\n        /* \"#utility.yul\":2049:2085   */\n    tag_56:\n        /* \"#utility.yul\":1901:2092   */\n      swap3\n      swap2\n      pop\n      pop\n      jump\t// out\n        /* \"#utility.yul\":2098:2508   */\n    tag_21:\n        /* \"#utility.yul\":2138:2145   */\n      0x00\n        /* \"#utility.yul\":2161:2181   */\n      tag_59\n        /* \"#utility.yul\":2179:2180   */\n      dup3\n        /* \"#utility.yul\":2161:2181   */\n      tag_26\n      jump\t// in\n    tag_59:\n        /* \"#utility.yul\":2156:2181   */\n      swap2\n      pop\n        /* \"#utility.yul\":2195:2215   */\n      tag_60\n        /* \"#utility.yul\":2213:2214   */\n      dup4\n        /* \"#utility.yul\":2195:2215   */\n      tag_26\n      jump\t// in\n    tag_60:\n        /* \"#utility.yul\":2190:2215   */\n      swap3\n      pop\n        /* \"#utility.yul\":2250:2251   */\n      dup3\n        /* \"#utility.yul\":2247:2248   */\n      dup3\n        /* \"#utility.yul\":2243:2252   */\n      mul\n        /* \"#utility.yul\":2272:2302   */\n      tag_61\n        /* \"#utility.yul\":2290:2301   */\n      dup2\n        /* \"#utility.yul\":2272:2302   */\n      tag_26\n      jump\t// in\n    tag_61:\n        /* \"#utility.yul\":2261:2302   */\n      swap2\n      pop\n        /* \"#utility.yul\":2451:2452   */\n      dup3\n        /* \"#utility.yul\":2442:2449   */\n      dup3\n        /* \"#utility.yul\":2438:2453   */\n      div\n        /* \"#utility.yul\":2435:2436   */\n      dup5\n        /* \"#utility.yul\":2432:2454   */\n      eq\n        /* \"#utility.yul\":2412:2413   */\n      dup4\n        /* \"#utility.yul\":2405:2414   */\n      iszero\n        /* \"#utility.yul\":2385:2468   */\n      or\n        /* \"#utility.yul\":2362:2501   */\n      tag_62\n      jumpi\n        /* \"#utility.yul\":2481:2499   */\n      tag_63\n      tag_30\n      jump\t// in\n    tag_63:\n        /* \"#utility.yul\":2362:2501   */\n    tag_62:\n        /* \"#utility.yul\":2146:2508   */\n      pop\n        /* \"#utility.yul\":2098:2508   */\n      swap3\n      swap2\n      pop\n      pop\n      jump\t// out\n\n    auxdata: 0xa2646970667358221220c72cc22697c33bf5377dee646365eb513668f27edd53e03b099bf0e02b0bbc0064736f6c634300081a0033\n}\n",
				"bytecode": {
					"linkReferences": {},
					"object": "6080604052348015600f57600080fd5b5061026e8061001f6000396000f3fe608060405234801561001057600080fd5b50600436106100365760003560e01c806329e99f071461003b5780634fd959b01461006b575b600080fd5b61005560048036038101906100509190610113565b61009c565b604051610062919061014f565b60405180910390f35b61008560048036038101906100809190610113565b6100b2565b60405161009392919061016a565b60405180910390f35b6000600a826100ab91906101c2565b9050919050565b6000806005836100c291906101f6565b9150600a836100d191906101f6565b9050915091565b600080fd5b6000819050919050565b6100f0816100dd565b81146100fb57600080fd5b50565b60008135905061010d816100e7565b92915050565b600060208284031215610129576101286100d8565b5b6000610137848285016100fe565b91505092915050565b610149816100dd565b82525050565b60006020820190506101646000830184610140565b92915050565b600060408201905061017f6000830185610140565b61018c6020830184610140565b9392505050565b7f4e487b7100000000000000000000000000000000000000000000000000000000600052601160045260246000fd5b60006101cd826100dd565b91506101d8836100dd565b92508282019050808211156101f0576101ef610193565b5b92915050565b6000610201826100dd565b915061020c836100dd565b925082820261021a816100dd565b9150828204841483151761023157610230610193565b5b509291505056fea2646970667358221220c72cc22697c33bf5377dee646365eb513668f27edd53e03b099bf0e02b0bbc0064736f6c634300081a0033",
					"opcodes": "PUSH1 0x80 PUSH1 0x40 MSTORE CALLVALUE DUP1 ISZERO PUSH1 0xF JUMPI PUSH1 0x0 DUP1 REVERT JUMPDEST POP PUSH2 0x26E DUP1 PUSH2 0x1F PUSH1 0x0 CODECOPY PUSH1 0x0 RETURN INVALID PUSH1 0x80 PUSH1 0x40 MSTORE CALLVALUE DUP1 ISZERO PUSH2 0x10 JUMPI PUSH1 0x0 DUP1 REVERT JUMPDEST POP PUSH1 0x4 CALLDATASIZE LT PUSH2 0x36 JUMPI PUSH1 0x0 CALLDATALOAD PUSH1 0xE0 SHR DUP1 PUSH4 0x29E99F07 EQ PUSH2 0x3B JUMPI DUP1 PUSH4 0x4FD959B0 EQ PUSH2 0x6B JUMPI JUMPDEST PUSH1 0x0 DUP1 REVERT JUMPDEST PUSH2 0x55 PUSH1 0x4 DUP1 CALLDATASIZE SUB DUP2 ADD SWAP1 PUSH2 0x50 SWAP2 SWAP1 PUSH2 0x113 JUMP JUMPDEST PUSH2 0x9C JUMP JUMPDEST PUSH1 0x40 MLOAD PUSH2 0x62 SWAP2 SWAP1 PUSH2 0x14F JUMP JUMPDEST PUSH1 0x40 MLOAD DUP1 SWAP2 SUB SWAP1 RETURN JUMPDEST PUSH2 0x85 PUSH1 0x4 DUP1 CALLDATASIZE SUB DUP2 ADD SWAP1 PUSH2 0x80 SWAP2 SWAP1 PUSH2 0x113 JUMP JUMPDEST PUSH2 0xB2 JUMP JUMPDEST PUSH1 0x40 MLOAD PUSH2 0x93 SWAP3 SWAP2 SWAP1 PUSH2 0x16A JUMP JUMPDEST PUSH1 0x40 MLOAD DUP1 SWAP2 SUB SWAP1 RETURN JUMPDEST PUSH1 0x0 PUSH1 0xA DUP3 PUSH2 0xAB SWAP2 SWAP1 PUSH2 0x1C2 JUMP JUMPDEST SWAP1 POP SWAP2 SWAP1 POP JUMP JUMPDEST PUSH1 0x0 DUP1 PUSH1 0x5 DUP4 PUSH2 0xC2 SWAP2 SWAP1 PUSH2 0x1F6 JUMP JUMPDEST SWAP2 POP PUSH1 0xA DUP4 PUSH2 0xD1 SWAP2 SWAP1 PUSH2 0x1F6 JUMP JUMPDEST SWAP1 POP SWAP2 POP SWAP2 JUMP JUMPDEST PUSH1 0x0 DUP1 REVERT JUMPDEST PUSH1 0x0 DUP2 SWAP1 POP SWAP2 SWAP1 POP JUMP JUMPDEST PUSH2 0xF0 DUP2 PUSH2 0xDD JUMP JUMPDEST DUP2 EQ PUSH2 0xFB JUMPI PUSH1 0x0 DUP1 REVERT JUMPDEST POP JUMP JUMPDEST PUSH1 0x0 DUP2 CALLDATALOAD SWAP1 POP PUSH2 0x10D DUP2 PUSH2 0xE7 JUMP JUMPDEST SWAP3 SWAP2 POP POP JUMP JUMPDEST PUSH1 0x0 PUSH1 0x20 DUP3 DUP5 SUB SLT ISZERO PUSH2 0x129 JUMPI PUSH2 0x128 PUSH2 0xD8 JUMP JUMPDEST JUMPDEST PUSH1 0x0 PUSH2 0x137 DUP5 DUP3 DUP6 ADD PUSH2 0xFE JUMP JUMPDEST SWAP2 POP POP SWAP3 SWAP2 POP POP JUMP JUMPDEST PUSH2 0x149 DUP2 PUSH2 0xDD JUMP JUMPDEST DUP3 MSTORE POP POP JUMP JUMPDEST PUSH1 0x0 PUSH1 0x20 DUP3 ADD SWAP1 POP PUSH2 0x164 PUSH1 0x0 DUP4 ADD DUP5 PUSH2 0x140 JUMP JUMPDEST SWAP3 SWAP2 POP POP JUMP JUMPDEST PUSH1 0x0 PUSH1 0x40 DUP3 ADD SWAP1 POP PUSH2 0x17F PUSH1 0x0 DUP4 ADD DUP6 PUSH2 0x140 JUMP JUMPDEST PUSH2 0x18C PUSH1 0x20 DUP4 ADD DUP5 PUSH2 0x140 JUMP JUMPDEST SWAP4 SWAP3 POP POP POP JUMP JUMPDEST PUSH32 0x4E487B7100000000000000000000000000000000000000000000000000000000 PUSH1 0x0 MSTORE PUSH1 0x11 PUSH1 0x4 MSTORE PUSH1 0x24 PUSH1 0x0 REVERT JUMPDEST PUSH1 0x0 PUSH2 0x1CD DUP3 PUSH2 0xDD JUMP JUMPDEST SWAP2 POP PUSH2 0x1D8 DUP4 PUSH2 0xDD JUMP JUMPDEST SWAP3 POP DUP3 DUP3 ADD SWAP1 POP DUP1 DUP3 GT ISZERO PUSH2 0x1F0 JUMPI PUSH2 0x1EF PUSH2 0x193 JUMP JUMPDEST JUMPDEST SWAP3 SWAP2 POP POP JUMP JUMPDEST PUSH1 0x0 PUSH2 0x201 DUP3 PUSH2 0xDD JUMP JUMPDEST SWAP2 POP PUSH2 0x20C DUP4 PUSH2 0xDD JUMP JUMPDEST SWAP3 POP DUP3 DUP3 MUL PUSH2 0x21A DUP2 PUSH2 0xDD JUMP JUMPDEST SWAP2 POP DUP3 DUP3 DIV DUP5 EQ DUP4 ISZERO OR PUSH2 0x231 JUMPI PUSH2 0x230 PUSH2 0x193 JUMP JUMPDEST JUMPDEST POP SWAP3 SWAP2 POP POP JUMP INVALID LOG2 PUSH5 0x6970667358 0x22 SLT KECCAK256 0xC7 0x2C 0xC2 0x26 SWAP8 0xC3 EXTCODESIZE CREATE2 CALLDATACOPY PUSH30 0xEE646365EB513668F27EDD53E03B099BF0E02B0BBC0064736F6C63430008 BYTE STOP CALLER "
				},
				"gasEstimates": {
					"creation": {
						"codeDepositCost": "124400",
						"executionCost": "171",
						"totalCost": "124571"
					},
					"external": {
						"NamedArguments(uint256)": "infinite",
						"test(uint256)": "infinite"
					}
				},
				"methodIdentifiers": {
					"NamedArguments(uint256)": "4fd959b0",
					"test(uint256)": "29e99f07"
				}
			},
			"storageLayout": {
				"storage": [],
				"types": null
			},
			"userdoc": {
				"kind": "user",
				"methods": {},
				"version": 1
			}
		}
	}
}