{
	"04 SamrtConttractBasic/SimpleVoting.sol": {
		"SimpleVoting": {
			"abi": [
				{
					"inputs": [
						{
							"internalType": "uint256",
							"name": "a",
							"type": "uint256"
						}
					],
					"name": "NamedArguments",
					"outputs": [
						{
							"internalType": "uint256",
							"name": "b",
							"type": "uint256"
						},
						{
							"internalType": "uint256",
							"name": "c",
							"type": "uint256"
						}
					],
					"stateMutability": "pure",
					"type": "function"
				},
				{
					"inputs": [],
					"name": "changeBooleanFlag",
					"outputs": [
						{
							"internalType": "bool",
							"name": "",
							"type": "bool"
						}
					],
					"stateMutability": "nonpayable",
					"type": "function"
				},
				{
					"inputs": [],
					"name": "displayPrivateIsFlag",
					"outputs": [
						{
							"internalType": "bool",
							"name": "",
							"type": "bool"
						}
					],
					"stateMutability": "view",
					"type": "function"
				},
				{
					"inputs": [],
					"name": "displayPrivateVariable",
					"outputs": [
						{
							"internalType": "uint256",
							"name": "",
							"type": "uint256"
						}
					],
					"stateMutability": "view",
					"type": "function"
				},
				{
					"inputs": [
						{
							"internalType": "uint256",
							"name": "a",
							"type": "uint256"
						}
					],
					"name": "test",
					"outputs": [
						{
							"internalType": "uint256",
							"name": "",
							"type": "uint256"
						}
					],
					"stateMutability": "pure",
					"type": "function"
				},
				{
					"inputs": [
						{
							"internalType": "address",
							"name": "candidate",
							"type": "address"
						}
					],
					"name": "vote",
					"outputs": [],
					"stateMutability": "nonpayable",
					"type": "function"
				}
			],
			"devdoc": {
				"kind": "dev",
				"methods": {},
				"version": 1
			},
			"evm": {
				"assembly": "    /* \"04 SamrtConttractBasic/SimpleVoting.sol\":59:1113  contract SimpleVoting {... */\n  mstore(0x40, 0x80)\n    /* \"04 SamrtConttractBasic/SimpleVoting.sol\":120:121  5 */\n  0x05\n    /* \"04 SamrtConttractBasic/SimpleVoting.sol\":87:121  uint256 private _voteCandidate = 5 */\n  0x00\n  sstore\n    /* \"04 SamrtConttractBasic/SimpleVoting.sol\":150:155  false */\n  0x00\n    /* \"04 SamrtConttractBasic/SimpleVoting.sol\":127:155  bool private _isFlag = false */\n  0x01\n  exp(0x0100, 0x00)\n  dup2\n  sload\n  dup2\n  0xff\n  mul\n  not\n  and\n  swap1\n  dup4\n  iszero\n  iszero\n  mul\n  or\n  swap1\n  sstore\n  pop\n    /* \"04 SamrtConttractBasic/SimpleVoting.sol\":187:229  0x5B38Da6a701c568545dCfcB03FcB875f56beddC4 */\n  0x5b38da6a701c568545dcfcb03fcb875f56beddc4\n    /* \"04 SamrtConttractBasic/SimpleVoting.sol\":162:229  address private _owner = 0x5B38Da6a701c568545dCfcB03FcB875f56beddC4 */\n  0x01\n  dup1\n  0x0100\n  exp\n  dup2\n  sload\n  dup2\n  0xffffffffffffffffffffffffffffffffffffffff\n  mul\n  not\n  and\n  swap1\n  dup4\n  0xffffffffffffffffffffffffffffffffffffffff\n  and\n  mul\n  or\n  swap1\n  sstore\n  pop\n    /* \"04 SamrtConttractBasic/SimpleVoting.sol\":266:308  0xAb8483F64d9C6d1EcF9b849Ae677dD3315835cb2 */\n  0xab8483f64d9c6d1ecf9b849ae677dd3315835cb2\n    /* \"04 SamrtConttractBasic/SimpleVoting.sol\":235:308  address private _cadidateOne = 0xAb8483F64d9C6d1EcF9b849Ae677dD3315835cb2 */\n  0x02\n  exp(0x0100, 0x00)\n  dup2\n  sload\n  dup2\n  0xffffffffffffffffffffffffffffffffffffffff\n  mul\n  not\n  and\n  swap1\n  dup4\n  0xffffffffffffffffffffffffffffffffffffffff\n  and\n  mul\n  or\n  swap1\n  sstore\n  pop\n    /* \"04 SamrtConttractBasic/SimpleVoting.sol\":345:387  0x4B20993Bc481177ec7E8f571ceCaE8A9e22C02db */\n  0x4b20993bc481177ec7e8f571cecae8a9e22c02db\n    /* \"04 SamrtConttractBasic/SimpleVoting.sol\":314:387  address private _cadidateTwo = 0x4B20993Bc481177ec7E8f571ceCaE8A9e22C02db */\n  0x03\n  exp(0x0100, 0x00)\n  dup2\n  sload\n  dup2\n  0xffffffffffffffffffffffffffffffffffffffff\n  mul\n  not\n  and\n  swap1\n  dup4\n  0xffffffffffffffffffffffffffffffffffffffff\n  and\n  mul\n  or\n  swap1\n  sstore\n  pop\n    /* \"04 SamrtConttractBasic/SimpleVoting.sol\":59:1113  contract SimpleVoting {... */\n  callvalue\n  dup1\n  iszero\n  tag_1\n  jumpi\n  0x00\n  dup1\n  revert\ntag_1:\n  pop\n  dataSize(sub_0)\n  dup1\n  dataOffset(sub_0)\n  0x00\n  codecopy\n  0x00\n  return\nstop\n\nsub_0: assembly {\n        /* \"04 SamrtConttractBasic/SimpleVoting.sol\":59:1113  contract SimpleVoting {... */\n      mstore(0x40, 0x80)\n      callvalue\n      dup1\n      iszero\n      tag_1\n      jumpi\n      0x00\n      dup1\n      revert\n    tag_1:\n      pop\n      jumpi(tag_2, lt(calldatasize, 0x04))\n      shr(0xe0, calldataload(0x00))\n      dup1\n      0x13858db5\n      eq\n      tag_3\n      jumpi\n      dup1\n      0x29e99f07\n      eq\n      tag_4\n      jumpi\n      dup1\n      0x4fd959b0\n      eq\n      tag_5\n      jumpi\n      dup1\n      0x6d66022c\n      eq\n      tag_6\n      jumpi\n      dup1\n      0x6dd7d8ea\n      eq\n      tag_7\n      jumpi\n      dup1\n      0xe78a6881\n      eq\n      tag_8\n      jumpi\n    tag_2:\n      0x00\n      dup1\n      revert\n        /* \"04 SamrtConttractBasic/SimpleVoting.sol\":959:1049  function displayPrivateIsFlag() public view returns (bool) {... */\n    tag_3:\n      tag_9\n      tag_10\n      jump\t// in\n    tag_9:\n      mload(0x40)\n      tag_11\n      swap2\n      swap1\n      tag_12\n      jump\t// in\n    tag_11:\n      mload(0x40)\n      dup1\n      swap2\n      sub\n      swap1\n      return\n        /* \"04 SamrtConttractBasic/SimpleVoting.sol\":394:481  function test(uint256 a) external pure returns (uint256) {... */\n    tag_4:\n      tag_13\n      0x04\n      dup1\n      calldatasize\n      sub\n      dup2\n      add\n      swap1\n      tag_14\n      swap2\n      swap1\n      tag_15\n      jump\t// in\n    tag_14:\n      tag_16\n      jump\t// in\n    tag_13:\n      mload(0x40)\n      tag_17\n      swap2\n      swap1\n      tag_18\n      jump\t// in\n    tag_17:\n      mload(0x40)\n      dup1\n      swap2\n      sub\n      swap1\n      return\n        /* \"04 SamrtConttractBasic/SimpleVoting.sol\":487:641  function NamedArguments(uint256 a)... */\n    tag_5:\n      tag_19\n      0x04\n      dup1\n      calldatasize\n      sub\n      dup2\n      add\n      swap1\n      tag_20\n      swap2\n      swap1\n      tag_15\n      jump\t// in\n    tag_20:\n      tag_21\n      jump\t// in\n    tag_19:\n      mload(0x40)\n      tag_22\n      swap3\n      swap2\n      swap1\n      tag_23\n      jump\t// in\n    tag_22:\n      mload(0x40)\n      dup1\n      swap2\n      sub\n      swap1\n      return\n        /* \"04 SamrtConttractBasic/SimpleVoting.sol\":755:953  function changeBooleanFlag() public returns (bool) {... */\n    tag_6:\n      tag_24\n      tag_25\n      jump\t// in\n    tag_24:\n      mload(0x40)\n      tag_26\n      swap2\n      swap1\n      tag_12\n      jump\t// in\n    tag_26:\n      mload(0x40)\n      dup1\n      swap2\n      sub\n      swap1\n      return\n        /* \"04 SamrtConttractBasic/SimpleVoting.sol\":1055:1111  function vote(address candidate) public {... */\n    tag_7:\n      tag_27\n      0x04\n      dup1\n      calldatasize\n      sub\n      dup2\n      add\n      swap1\n      tag_28\n      swap2\n      swap1\n      tag_29\n      jump\t// in\n    tag_28:\n      tag_30\n      jump\t// in\n    tag_27:\n      stop\n        /* \"04 SamrtConttractBasic/SimpleVoting.sol\":647:749  function displayPrivateVariable() public view returns (uint256) {... */\n    tag_8:\n      tag_31\n      tag_32\n      jump\t// in\n    tag_31:\n      mload(0x40)\n      tag_33\n      swap2\n      swap1\n      tag_18\n      jump\t// in\n    tag_33:\n      mload(0x40)\n      dup1\n      swap2\n      sub\n      swap1\n      return\n        /* \"04 SamrtConttractBasic/SimpleVoting.sol\":959:1049  function displayPrivateIsFlag() public view returns (bool) {... */\n    tag_10:\n        /* \"04 SamrtConttractBasic/SimpleVoting.sol\":1012:1016  bool */\n      0x00\n        /* \"04 SamrtConttractBasic/SimpleVoting.sol\":1035:1042  _isFlag */\n      0x01\n      0x00\n      swap1\n      sload\n      swap1\n      0x0100\n      exp\n      swap1\n      div\n      0xff\n      and\n        /* \"04 SamrtConttractBasic/SimpleVoting.sol\":1028:1042  return _isFlag */\n      swap1\n      pop\n        /* \"04 SamrtConttractBasic/SimpleVoting.sol\":959:1049  function displayPrivateIsFlag() public view returns (bool) {... */\n      swap1\n      jump\t// out\n        /* \"04 SamrtConttractBasic/SimpleVoting.sol\":394:481  function test(uint256 a) external pure returns (uint256) {... */\n    tag_16:\n        /* \"04 SamrtConttractBasic/SimpleVoting.sol\":442:449  uint256 */\n      0x00\n        /* \"04 SamrtConttractBasic/SimpleVoting.sol\":472:474  10 */\n      0x0a\n        /* \"04 SamrtConttractBasic/SimpleVoting.sol\":468:469  a */\n      dup3\n        /* \"04 SamrtConttractBasic/SimpleVoting.sol\":468:474  a + 10 */\n      tag_36\n      swap2\n      swap1\n      tag_37\n      jump\t// in\n    tag_36:\n        /* \"04 SamrtConttractBasic/SimpleVoting.sol\":461:474  return a + 10 */\n      swap1\n      pop\n        /* \"04 SamrtConttractBasic/SimpleVoting.sol\":394:481  function test(uint256 a) external pure returns (uint256) {... */\n      swap2\n      swap1\n      pop\n      jump\t// out\n        /* \"04 SamrtConttractBasic/SimpleVoting.sol\":487:641  function NamedArguments(uint256 a)... */\n    tag_21:\n        /* \"04 SamrtConttractBasic/SimpleVoting.sol\":569:578  uint256 b */\n      0x00\n        /* \"04 SamrtConttractBasic/SimpleVoting.sol\":580:589  uint256 c */\n      dup1\n        /* \"04 SamrtConttractBasic/SimpleVoting.sol\":613:614  5 */\n      0x05\n        /* \"04 SamrtConttractBasic/SimpleVoting.sol\":609:610  a */\n      dup4\n        /* \"04 SamrtConttractBasic/SimpleVoting.sol\":609:614  a * 5 */\n      tag_39\n      swap2\n      swap1\n      tag_40\n      jump\t// in\n    tag_39:\n        /* \"04 SamrtConttractBasic/SimpleVoting.sol\":605:614  b = a * 5 */\n      swap2\n      pop\n        /* \"04 SamrtConttractBasic/SimpleVoting.sol\":632:634  10 */\n      0x0a\n        /* \"04 SamrtConttractBasic/SimpleVoting.sol\":628:629  a */\n      dup4\n        /* \"04 SamrtConttractBasic/SimpleVoting.sol\":628:634  a * 10 */\n      tag_41\n      swap2\n      swap1\n      tag_40\n      jump\t// in\n    tag_41:\n        /* \"04 SamrtConttractBasic/SimpleVoting.sol\":624:634  c = a * 10 */\n      swap1\n      pop\n        /* \"04 SamrtConttractBasic/SimpleVoting.sol\":487:641  function NamedArguments(uint256 a)... */\n      swap2\n      pop\n      swap2\n      jump\t// out\n        /* \"04 SamrtConttractBasic/SimpleVoting.sol\":755:953  function changeBooleanFlag() public returns (bool) {... */\n    tag_25:\n        /* \"04 SamrtConttractBasic/SimpleVoting.sol\":800:804  bool */\n      0x00\n        /* \"04 SamrtConttractBasic/SimpleVoting.sol\":831:836  false */\n      dup1\n        /* \"04 SamrtConttractBasic/SimpleVoting.sol\":820:836  _isFlag == false */\n      iszero\n      iszero\n        /* \"04 SamrtConttractBasic/SimpleVoting.sol\":820:827  _isFlag */\n      0x01\n      0x00\n      swap1\n      sload\n      swap1\n      0x0100\n      exp\n      swap1\n      div\n      0xff\n      and\n        /* \"04 SamrtConttractBasic/SimpleVoting.sol\":820:836  _isFlag == false */\n      iszero\n      iszero\n      sub\n        /* \"04 SamrtConttractBasic/SimpleVoting.sol\":816:923  if (_isFlag == false) {... */\n      tag_43\n      jumpi\n        /* \"04 SamrtConttractBasic/SimpleVoting.sol\":862:866  true */\n      0x01\n        /* \"04 SamrtConttractBasic/SimpleVoting.sol\":852:859  _isFlag */\n      dup1\n      0x00\n        /* \"04 SamrtConttractBasic/SimpleVoting.sol\":852:866  _isFlag = true */\n      0x0100\n      exp\n      dup2\n      sload\n      dup2\n      0xff\n      mul\n      not\n      and\n      swap1\n      dup4\n      iszero\n      iszero\n      mul\n      or\n      swap1\n      sstore\n      pop\n        /* \"04 SamrtConttractBasic/SimpleVoting.sol\":816:923  if (_isFlag == false) {... */\n      jump(tag_44)\n    tag_43:\n        /* \"04 SamrtConttractBasic/SimpleVoting.sol\":907:912  false */\n      0x00\n        /* \"04 SamrtConttractBasic/SimpleVoting.sol\":897:904  _isFlag */\n      0x01\n      0x00\n        /* \"04 SamrtConttractBasic/SimpleVoting.sol\":897:912  _isFlag = false */\n      0x0100\n      exp\n      dup2\n      sload\n      dup2\n      0xff\n      mul\n      not\n      and\n      swap1\n      dup4\n      iszero\n      iszero\n      mul\n      or\n      swap1\n      sstore\n      pop\n        /* \"04 SamrtConttractBasic/SimpleVoting.sol\":816:923  if (_isFlag == false) {... */\n    tag_44:\n        /* \"04 SamrtConttractBasic/SimpleVoting.sol\":939:946  _isFlag */\n      0x01\n      0x00\n      swap1\n      sload\n      swap1\n      0x0100\n      exp\n      swap1\n      div\n      0xff\n      and\n        /* \"04 SamrtConttractBasic/SimpleVoting.sol\":932:946  return _isFlag */\n      swap1\n      pop\n        /* \"04 SamrtConttractBasic/SimpleVoting.sol\":755:953  function changeBooleanFlag() public returns (bool) {... */\n      swap1\n      jump\t// out\n        /* \"04 SamrtConttractBasic/SimpleVoting.sol\":1055:1111  function vote(address candidate) public {... */\n    tag_30:\n      pop\n      jump\t// out\n        /* \"04 SamrtConttractBasic/SimpleVoting.sol\":647:749  function displayPrivateVariable() public view returns (uint256) {... */\n    tag_32:\n        /* \"04 SamrtConttractBasic/SimpleVoting.sol\":702:709  uint256 */\n      0x00\n        /* \"04 SamrtConttractBasic/SimpleVoting.sol\":728:742  _voteCandidate */\n      dup1\n      sload\n        /* \"04 SamrtConttractBasic/SimpleVoting.sol\":721:742  return _voteCandidate */\n      swap1\n      pop\n        /* \"04 SamrtConttractBasic/SimpleVoting.sol\":647:749  function displayPrivateVariable() public view returns (uint256) {... */\n      swap1\n      jump\t// out\n        /* \"#utility.yul\":7:97   */\n    tag_47:\n        /* \"#utility.yul\":41:48   */\n      0x00\n        /* \"#utility.yul\":84:89   */\n      dup2\n        /* \"#utility.yul\":77:90   */\n      iszero\n        /* \"#utility.yul\":70:91   */\n      iszero\n        /* \"#utility.yul\":59:91   */\n      swap1\n      pop\n        /* \"#utility.yul\":7:97   */\n      swap2\n      swap1\n      pop\n      jump\t// out\n        /* \"#utility.yul\":103:212   */\n    tag_48:\n        /* \"#utility.yul\":184:205   */\n      tag_64\n        /* \"#utility.yul\":199:204   */\n      dup2\n        /* \"#utility.yul\":184:205   */\n      tag_47\n      jump\t// in\n    tag_64:\n        /* \"#utility.yul\":179:182   */\n      dup3\n        /* \"#utility.yul\":172:206   */\n      mstore\n        /* \"#utility.yul\":103:212   */\n      pop\n      pop\n      jump\t// out\n        /* \"#utility.yul\":218:428   */\n    tag_12:\n        /* \"#utility.yul\":305:309   */\n      0x00\n        /* \"#utility.yul\":343:345   */\n      0x20\n        /* \"#utility.yul\":332:341   */\n      dup3\n        /* \"#utility.yul\":328:346   */\n      add\n        /* \"#utility.yul\":320:346   */\n      swap1\n      pop\n        /* \"#utility.yul\":356:421   */\n      tag_66\n        /* \"#utility.yul\":418:419   */\n      0x00\n        /* \"#utility.yul\":407:416   */\n      dup4\n        /* \"#utility.yul\":403:420   */\n      add\n        /* \"#utility.yul\":394:400   */\n      dup5\n        /* \"#utility.yul\":356:421   */\n      tag_48\n      jump\t// in\n    tag_66:\n        /* \"#utility.yul\":218:428   */\n      swap3\n      swap2\n      pop\n      pop\n      jump\t// out\n        /* \"#utility.yul\":515:632   */\n    tag_50:\n        /* \"#utility.yul\":624:625   */\n      0x00\n        /* \"#utility.yul\":621:622   */\n      dup1\n        /* \"#utility.yul\":614:626   */\n      revert\n        /* \"#utility.yul\":761:838   */\n    tag_52:\n        /* \"#utility.yul\":798:805   */\n      0x00\n        /* \"#utility.yul\":827:832   */\n      dup2\n        /* \"#utility.yul\":816:832   */\n      swap1\n      pop\n        /* \"#utility.yul\":761:838   */\n      swap2\n      swap1\n      pop\n      jump\t// out\n        /* \"#utility.yul\":844:966   */\n    tag_53:\n        /* \"#utility.yul\":917:941   */\n      tag_72\n        /* \"#utility.yul\":935:940   */\n      dup2\n        /* \"#utility.yul\":917:941   */\n      tag_52\n      jump\t// in\n    tag_72:\n        /* \"#utility.yul\":910:915   */\n      dup2\n        /* \"#utility.yul\":907:942   */\n      eq\n        /* \"#utility.yul\":897:960   */\n      tag_73\n      jumpi\n        /* \"#utility.yul\":956:957   */\n      0x00\n        /* \"#utility.yul\":953:954   */\n      dup1\n        /* \"#utility.yul\":946:958   */\n      revert\n        /* \"#utility.yul\":897:960   */\n    tag_73:\n        /* \"#utility.yul\":844:966   */\n      pop\n      jump\t// out\n        /* \"#utility.yul\":972:1111   */\n    tag_54:\n        /* \"#utility.yul\":1018:1023   */\n      0x00\n        /* \"#utility.yul\":1056:1062   */\n      dup2\n        /* \"#utility.yul\":1043:1063   */\n      calldataload\n        /* \"#utility.yul\":1034:1063   */\n      swap1\n      pop\n        /* \"#utility.yul\":1072:1105   */\n      tag_75\n        /* \"#utility.yul\":1099:1104   */\n      dup2\n        /* \"#utility.yul\":1072:1105   */\n      tag_53\n      jump\t// in\n    tag_75:\n        /* \"#utility.yul\":972:1111   */\n      swap3\n      swap2\n      pop\n      pop\n      jump\t// out\n        /* \"#utility.yul\":1117:1446   */\n    tag_15:\n        /* \"#utility.yul\":1176:1182   */\n      0x00\n        /* \"#utility.yul\":1225:1227   */\n      0x20\n        /* \"#utility.yul\":1213:1222   */\n      dup3\n        /* \"#utility.yul\":1204:1211   */\n      dup5\n        /* \"#utility.yul\":1200:1223   */\n      sub\n        /* \"#utility.yul\":1196:1228   */\n      slt\n        /* \"#utility.yul\":1193:1312   */\n      iszero\n      tag_77\n      jumpi\n        /* \"#utility.yul\":1231:1310   */\n      tag_78\n      tag_50\n      jump\t// in\n    tag_78:\n        /* \"#utility.yul\":1193:1312   */\n    tag_77:\n        /* \"#utility.yul\":1351:1352   */\n      0x00\n        /* \"#utility.yul\":1376:1429   */\n      tag_79\n        /* \"#utility.yul\":1421:1428   */\n      dup5\n        /* \"#utility.yul\":1412:1418   */\n      dup3\n        /* \"#utility.yul\":1401:1410   */\n      dup6\n        /* \"#utility.yul\":1397:1419   */\n      add\n        /* \"#utility.yul\":1376:1429   */\n      tag_54\n      jump\t// in\n    tag_79:\n        /* \"#utility.yul\":1366:1429   */\n      swap2\n      pop\n        /* \"#utility.yul\":1322:1439   */\n      pop\n        /* \"#utility.yul\":1117:1446   */\n      swap3\n      swap2\n      pop\n      pop\n      jump\t// out\n        /* \"#utility.yul\":1452:1570   */\n    tag_55:\n        /* \"#utility.yul\":1539:1563   */\n      tag_81\n        /* \"#utility.yul\":1557:1562   */\n      dup2\n        /* \"#utility.yul\":1539:1563   */\n      tag_52\n      jump\t// in\n    tag_81:\n        /* \"#utility.yul\":1534:1537   */\n      dup3\n        /* \"#utility.yul\":1527:1564   */\n      mstore\n        /* \"#utility.yul\":1452:1570   */\n      pop\n      pop\n      jump\t// out\n        /* \"#utility.yul\":1576:1798   */\n    tag_18:\n        /* \"#utility.yul\":1669:1673   */\n      0x00\n        /* \"#utility.yul\":1707:1709   */\n      0x20\n        /* \"#utility.yul\":1696:1705   */\n      dup3\n        /* \"#utility.yul\":1692:1710   */\n      add\n        /* \"#utility.yul\":1684:1710   */\n      swap1\n      pop\n        /* \"#utility.yul\":1720:1791   */\n      tag_83\n        /* \"#utility.yul\":1788:1789   */\n      0x00\n        /* \"#utility.yul\":1777:1786   */\n      dup4\n        /* \"#utility.yul\":1773:1790   */\n      add\n        /* \"#utility.yul\":1764:1770   */\n      dup5\n        /* \"#utility.yul\":1720:1791   */\n      tag_55\n      jump\t// in\n    tag_83:\n        /* \"#utility.yul\":1576:1798   */\n      swap3\n      swap2\n      pop\n      pop\n      jump\t// out\n        /* \"#utility.yul\":1804:2136   */\n    tag_23:\n        /* \"#utility.yul\":1925:1929   */\n      0x00\n        /* \"#utility.yul\":1963:1965   */\n      0x40\n        /* \"#utility.yul\":1952:1961   */\n      dup3\n        /* \"#utility.yul\":1948:1966   */\n      add\n        /* \"#utility.yul\":1940:1966   */\n      swap1\n      pop\n        /* \"#utility.yul\":1976:2047   */\n      tag_85\n        /* \"#utility.yul\":2044:2045   */\n      0x00\n        /* \"#utility.yul\":2033:2042   */\n      dup4\n        /* \"#utility.yul\":2029:2046   */\n      add\n        /* \"#utility.yul\":2020:2026   */\n      dup6\n        /* \"#utility.yul\":1976:2047   */\n      tag_55\n      jump\t// in\n    tag_85:\n        /* \"#utility.yul\":2057:2129   */\n      tag_86\n        /* \"#utility.yul\":2125:2127   */\n      0x20\n        /* \"#utility.yul\":2114:2123   */\n      dup4\n        /* \"#utility.yul\":2110:2128   */\n      add\n        /* \"#utility.yul\":2101:2107   */\n      dup5\n        /* \"#utility.yul\":2057:2129   */\n      tag_55\n      jump\t// in\n    tag_86:\n        /* \"#utility.yul\":1804:2136   */\n      swap4\n      swap3\n      pop\n      pop\n      pop\n      jump\t// out\n        /* \"#utility.yul\":2142:2268   */\n    tag_56:\n        /* \"#utility.yul\":2179:2186   */\n      0x00\n        /* \"#utility.yul\":2219:2261   */\n      0xffffffffffffffffffffffffffffffffffffffff\n        /* \"#utility.yul\":2212:2217   */\n      dup3\n        /* \"#utility.yul\":2208:2262   */\n      and\n        /* \"#utility.yul\":2197:2262   */\n      swap1\n      pop\n        /* \"#utility.yul\":2142:2268   */\n      swap2\n      swap1\n      pop\n      jump\t// out\n        /* \"#utility.yul\":2274:2370   */\n    tag_57:\n        /* \"#utility.yul\":2311:2318   */\n      0x00\n        /* \"#utility.yul\":2340:2364   */\n      tag_89\n        /* \"#utility.yul\":2358:2363   */\n      dup3\n        /* \"#utility.yul\":2340:2364   */\n      tag_56\n      jump\t// in\n    tag_89:\n        /* \"#utility.yul\":2329:2364   */\n      swap1\n      pop\n        /* \"#utility.yul\":2274:2370   */\n      swap2\n      swap1\n      pop\n      jump\t// out\n        /* \"#utility.yul\":2376:2498   */\n    tag_58:\n        /* \"#utility.yul\":2449:2473   */\n      tag_91\n        /* \"#utility.yul\":2467:2472   */\n      dup2\n        /* \"#utility.yul\":2449:2473   */\n      tag_57\n      jump\t// in\n    tag_91:\n        /* \"#utility.yul\":2442:2447   */\n      dup2\n        /* \"#utility.yul\":2439:2474   */\n      eq\n        /* \"#utility.yul\":2429:2492   */\n      tag_92\n      jumpi\n        /* \"#utility.yul\":2488:2489   */\n      0x00\n        /* \"#utility.yul\":2485:2486   */\n      dup1\n        /* \"#utility.yul\":2478:2490   */\n      revert\n        /* \"#utility.yul\":2429:2492   */\n    tag_92:\n        /* \"#utility.yul\":2376:2498   */\n      pop\n      jump\t// out\n        /* \"#utility.yul\":2504:2643   */\n    tag_59:\n        /* \"#utility.yul\":2550:2555   */\n      0x00\n        /* \"#utility.yul\":2588:2594   */\n      dup2\n        /* \"#utility.yul\":2575:2595   */\n      calldataload\n        /* \"#utility.yul\":2566:2595   */\n      swap1\n      pop\n        /* \"#utility.yul\":2604:2637   */\n      tag_94\n        /* \"#utility.yul\":2631:2636   */\n      dup2\n        /* \"#utility.yul\":2604:2637   */\n      tag_58\n      jump\t// in\n    tag_94:\n        /* \"#utility.yul\":2504:2643   */\n      swap3\n      swap2\n      pop\n      pop\n      jump\t// out\n        /* \"#utility.yul\":2649:2978   */\n    tag_29:\n        /* \"#utility.yul\":2708:2714   */\n      0x00\n        /* \"#utility.yul\":2757:2759   */\n      0x20\n        /* \"#utility.yul\":2745:2754   */\n      dup3\n        /* \"#utility.yul\":2736:2743   */\n      dup5\n        /* \"#utility.yul\":2732:2755   */\n      sub\n        /* \"#utility.yul\":2728:2760   */\n      slt\n        /* \"#utility.yul\":2725:2844   */\n      iszero\n      tag_96\n      jumpi\n        /* \"#utility.yul\":2763:2842   */\n      tag_97\n      tag_50\n      jump\t// in\n    tag_97:\n        /* \"#utility.yul\":2725:2844   */\n    tag_96:\n        /* \"#utility.yul\":2883:2884   */\n      0x00\n        /* \"#utility.yul\":2908:2961   */\n      tag_98\n        /* \"#utility.yul\":2953:2960   */\n      dup5\n        /* \"#utility.yul\":2944:2950   */\n      dup3\n        /* \"#utility.yul\":2933:2942   */\n      dup6\n        /* \"#utility.yul\":2929:2951   */\n      add\n        /* \"#utility.yul\":2908:2961   */\n      tag_59\n      jump\t// in\n    tag_98:\n        /* \"#utility.yul\":2898:2961   */\n      swap2\n      pop\n        /* \"#utility.yul\":2854:2971   */\n      pop\n        /* \"#utility.yul\":2649:2978   */\n      swap3\n      swap2\n      pop\n      pop\n      jump\t// out\n        /* \"#utility.yul\":2984:3164   */\n    tag_60:\n        /* \"#utility.yul\":3032:3109   */\n      0x4e487b7100000000000000000000000000000000000000000000000000000000\n        /* \"#utility.yul\":3029:3030   */\n      0x00\n        /* \"#utility.yul\":3022:3110   */\n      mstore\n        /* \"#utility.yul\":3129:3133   */\n      0x11\n        /* \"#utility.yul\":3126:3127   */\n      0x04\n        /* \"#utility.yul\":3119:3134   */\n      mstore\n        /* \"#utility.yul\":3153:3157   */\n      0x24\n        /* \"#utility.yul\":3150:3151   */\n      0x00\n        /* \"#utility.yul\":3143:3158   */\n      revert\n        /* \"#utility.yul\":3170:3361   */\n    tag_37:\n        /* \"#utility.yul\":3210:3213   */\n      0x00\n        /* \"#utility.yul\":3229:3249   */\n      tag_101\n        /* \"#utility.yul\":3247:3248   */\n      dup3\n        /* \"#utility.yul\":3229:3249   */\n      tag_52\n      jump\t// in\n    tag_101:\n        /* \"#utility.yul\":3224:3249   */\n      swap2\n      pop\n        /* \"#utility.yul\":3263:3283   */\n      tag_102\n        /* \"#utility.yul\":3281:3282   */\n      dup4\n        /* \"#utility.yul\":3263:3283   */\n      tag_52\n      jump\t// in\n    tag_102:\n        /* \"#utility.yul\":3258:3283   */\n      swap3\n      pop\n        /* \"#utility.yul\":3306:3307   */\n      dup3\n        /* \"#utility.yul\":3303:3304   */\n      dup3\n        /* \"#utility.yul\":3299:3308   */\n      add\n        /* \"#utility.yul\":3292:3308   */\n      swap1\n      pop\n        /* \"#utility.yul\":3327:3330   */\n      dup1\n        /* \"#utility.yul\":3324:3325   */\n      dup3\n        /* \"#utility.yul\":3321:3331   */\n      gt\n        /* \"#utility.yul\":3318:3354   */\n      iszero\n      tag_103\n      jumpi\n        /* \"#utility.yul\":3334:3352   */\n      tag_104\n      tag_60\n      jump\t// in\n    tag_104:\n        /* \"#utility.yul\":3318:3354   */\n    tag_103:\n        /* \"#utility.yul\":3170:3361   */\n      swap3\n      swap2\n      pop\n      pop\n      jump\t// out\n        /* \"#utility.yul\":3367:3777   */\n    tag_40:\n        /* \"#utility.yul\":3407:3414   */\n      0x00\n        /* \"#utility.yul\":3430:3450   */\n      tag_106\n        /* \"#utility.yul\":3448:3449   */\n      dup3\n        /* \"#utility.yul\":3430:3450   */\n      tag_52\n      jump\t// in\n    tag_106:\n        /* \"#utility.yul\":3425:3450   */\n      swap2\n      pop\n        /* \"#utility.yul\":3464:3484   */\n      tag_107\n        /* \"#utility.yul\":3482:3483   */\n      dup4\n        /* \"#utility.yul\":3464:3484   */\n      tag_52\n      jump\t// in\n    tag_107:\n        /* \"#utility.yul\":3459:3484   */\n      swap3\n      pop\n        /* \"#utility.yul\":3519:3520   */\n      dup3\n        /* \"#utility.yul\":3516:3517   */\n      dup3\n        /* \"#utility.yul\":3512:3521   */\n      mul\n        /* \"#utility.yul\":3541:3571   */\n      tag_108\n        /* \"#utility.yul\":3559:3570   */\n      dup2\n        /* \"#utility.yul\":3541:3571   */\n      tag_52\n      jump\t// in\n    tag_108:\n        /* \"#utility.yul\":3530:3571   */\n      swap2\n      pop\n        /* \"#utility.yul\":3720:3721   */\n      dup3\n        /* \"#utility.yul\":3711:3718   */\n      dup3\n        /* \"#utility.yul\":3707:3722   */\n      div\n        /* \"#utility.yul\":3704:3705   */\n      dup5\n        /* \"#utility.yul\":3701:3723   */\n      eq\n        /* \"#utility.yul\":3681:3682   */\n      dup4\n        /* \"#utility.yul\":3674:3683   */\n      iszero\n        /* \"#utility.yul\":3654:3737   */\n      or\n        /* \"#utility.yul\":3631:3770   */\n      tag_109\n      jumpi\n        /* \"#utility.yul\":3750:3768   */\n      tag_110\n      tag_60\n      jump\t// in\n    tag_110:\n        /* \"#utility.yul\":3631:3770   */\n    tag_109:\n        /* \"#utility.yul\":3415:3777   */\n      pop\n        /* \"#utility.yul\":3367:3777   */\n      swap3\n      swap2\n      pop\n      pop\n      jump\t// out\n\n    auxdata: 0xa2646970667358221220fb12b771895c6397e347f8049f346fe28b949a8487644b7716b57ce9927829b364736f6c634300081a0033\n}\n",
				"bytecode": {
					"linkReferences": {},
					"object": "608060405260056000556000600160006101000a81548160ff021916908315150217905550735b38da6a701c568545dcfcb03fcb875f56beddc46001806101000a81548173ffffffffffffffffffffffffffffffffffffffff021916908373ffffffffffffffffffffffffffffffffffffffff16021790555073ab8483f64d9c6d1ecf9b849ae677dd3315835cb2600260006101000a81548173ffffffffffffffffffffffffffffffffffffffff021916908373ffffffffffffffffffffffffffffffffffffffff160217905550734b20993bc481177ec7e8f571cecae8a9e22c02db600360006101000a81548173ffffffffffffffffffffffffffffffffffffffff021916908373ffffffffffffffffffffffffffffffffffffffff16021790555034801561012e57600080fd5b506104608061013e6000396000f3fe608060405234801561001057600080fd5b50600436106100625760003560e01c806313858db51461006757806329e99f07146100855780634fd959b0146100b55780636d66022c146100e65780636dd7d8ea14610104578063e78a688114610120575b600080fd5b61006f61013e565b60405161007c9190610224565b60405180910390f35b61009f600480360381019061009a919061027a565b610155565b6040516100ac91906102b6565b60405180910390f35b6100cf60048036038101906100ca919061027a565b61016b565b6040516100dd9291906102d1565b60405180910390f35b6100ee610191565b6040516100fb9190610224565b60405180910390f35b61011e60048036038101906101199190610358565b6101fd565b005b610128610200565b60405161013591906102b6565b60405180910390f35b6000600160009054906101000a900460ff16905090565b6000600a8261016491906103b4565b9050919050565b60008060058361017b91906103e8565b9150600a8361018a91906103e8565b9050915091565b6000801515600160009054906101000a900460ff161515036101cc5760018060006101000a81548160ff0219169083151502179055506101e8565b6000600160006101000a81548160ff0219169083151502179055505b600160009054906101000a900460ff16905090565b50565b60008054905090565b60008115159050919050565b61021e81610209565b82525050565b60006020820190506102396000830184610215565b92915050565b600080fd5b6000819050919050565b61025781610244565b811461026257600080fd5b50565b6000813590506102748161024e565b92915050565b6000602082840312156102905761028f61023f565b5b600061029e84828501610265565b91505092915050565b6102b081610244565b82525050565b60006020820190506102cb60008301846102a7565b92915050565b60006040820190506102e660008301856102a7565b6102f360208301846102a7565b9392505050565b600073ffffffffffffffffffffffffffffffffffffffff82169050919050565b6000610325826102fa565b9050919050565b6103358161031a565b811461034057600080fd5b50565b6000813590506103528161032c565b92915050565b60006020828403121561036e5761036d61023f565b5b600061037c84828501610343565b91505092915050565b7f4e487b7100000000000000000000000000000000000000000000000000000000600052601160045260246000fd5b60006103bf82610244565b91506103ca83610244565b92508282019050808211156103e2576103e1610385565b5b92915050565b60006103f382610244565b91506103fe83610244565b925082820261040c81610244565b9150828204841483151761042357610422610385565b5b509291505056fea2646970667358221220fb12b771895c6397e347f8049f346fe28b949a8487644b7716b57ce9927829b364736f6c634300081a0033",
					"opcodes": "PUSH1 0x80 PUSH1 0x40 MSTORE PUSH1 0x5 PUSH1 0x0 SSTORE PUSH1 0x0 PUSH1 0x1 PUSH1 0x0 PUSH2 0x100 EXP DUP2 SLOAD DUP2 PUSH1 0xFF MUL NOT AND SWAP1 DUP4 ISZERO ISZERO MUL OR SWAP1 SSTORE POP PUSH20 0x5B38DA6A701C568545DCFCB03FCB875F56BEDDC4 PUSH1 0x1 DUP1 PUSH2 0x100 EXP DUP2 SLOAD DUP2 PUSH20 0xFFFFFFFFFFFFFFFFFFFFFFFFFFFFFFFFFFFFFFFF MUL NOT AND SWAP1 DUP4 PUSH20 0xFFFFFFFFFFFFFFFFFFFFFFFFFFFFFFFFFFFFFFFF AND MUL OR SWAP1 SSTORE POP PUSH20 0xAB8483F64D9C6D1ECF9B849AE677DD3315835CB2 PUSH1 0x2 PUSH1 0x0 PUSH2 0x100 EXP DUP2 SLOAD DUP2 PUSH20 0xFFFFFFFFFFFFFFFFFFFFFFFFFFFFFFFFFFFFFFFF MUL NOT AND SWAP1 DUP4 PUSH20 0xFFFFFFFFFFFFFFFFFFFFFFFFFFFFFFFFFFFFFFFF AND MUL OR SWAP1 SSTORE POP PUSH20 0x4B20993BC481177EC7E8F571CECAE8A9E22C02DB PUSH1 0x3 PUSH1 0x0 PUSH2 0x100 EXP DUP2 SLOAD DUP2 PUSH20 0xFFFFFFFFFFFFFFFFFFFFFFFFFFFFFFFFFFFFFFFF MUL NOT AND SWAP1 DUP4 PUSH20 0xFFFFFFFFFFFFFFFFFFFFFFFFFFFFFFFFFFFFFFFF AND MUL OR SWAP1 SSTORE POP CALLVALUE DUP1 ISZERO PUSH2 0x12E JUMPI PUSH1 0x0 DUP1 REVERT JUMPDEST POP PUSH2 0x460 DUP1 PUSH2 0x13E PUSH1 0x0 CODECOPY PUSH1 0x0 RETURN INVALID PUSH1 0x80 PUSH1 0x40 MSTORE CALLVALUE DUP1 ISZERO PUSH2 0x10 JUMPI PUSH1 0x0 DUP1 REVERT JUMPDEST POP PUSH1 0x4 CALLDATASIZE LT PUSH2 0x62 JUMPI PUSH1 0x0 CALLDATALOAD PUSH1 0xE0 SHR DUP1 PUSH4 0x13858DB5 EQ PUSH2 0x67 JUMPI DUP1 PUSH4 0x29E99F07 EQ PUSH2 0x85 JUMPI DUP1 PUSH4 0x4FD959B0 EQ PUSH2 0xB5 JUMPI DUP1 PUSH4 0x6D66022C EQ PUSH2 0xE6 JUMPI DUP1 PUSH4 0x6DD7D8EA EQ PUSH2 0x104 JUMPI DUP1 PUSH4 0xE78A6881 EQ PUSH2 0x120 JUMPI JUMPDEST PUSH1 0x0 DUP1 REVERT JUMPDEST PUSH2 0x6F PUSH2 0x13E JUMP JUMPDEST PUSH1 0x40 MLOAD PUSH2 0x7C SWAP2 SWAP1 PUSH2 0x224 JUMP JUMPDEST PUSH1 0x40 MLOAD DUP1 SWAP2 SUB SWAP1 RETURN JUMPDEST PUSH2 0x9F PUSH1 0x4 DUP1 CALLDATASIZE SUB DUP2 ADD SWAP1 PUSH2 0x9A SWAP2 SWAP1 PUSH2 0x27A JUMP JUMPDEST PUSH2 0x155 JUMP JUMPDEST PUSH1 0x40 MLOAD PUSH2 0xAC SWAP2 SWAP1 PUSH2 0x2B6 JUMP JUMPDEST PUSH1 0x40 MLOAD DUP1 SWAP2 SUB SWAP1 RETURN JUMPDEST PUSH2 0xCF PUSH1 0x4 DUP1 CALLDATASIZE SUB DUP2 ADD SWAP1 PUSH2 0xCA SWAP2 SWAP1 PUSH2 0x27A JUMP JUMPDEST PUSH2 0x16B JUMP JUMPDEST PUSH1 0x40 MLOAD PUSH2 0xDD SWAP3 SWAP2 SWAP1 PUSH2 0x2D1 JUMP JUMPDEST PUSH1 0x40 MLOAD DUP1 SWAP2 SUB SWAP1 RETURN JUMPDEST PUSH2 0xEE PUSH2 0x191 JUMP JUMPDEST PUSH1 0x40 MLOAD PUSH2 0xFB SWAP2 SWAP1 PUSH2 0x224 JUMP JUMPDEST PUSH1 0x40 MLOAD DUP1 SWAP2 SUB SWAP1 RETURN JUMPDEST PUSH2 0x11E PUSH1 0x4 DUP1 CALLDATASIZE SUB DUP2 ADD SWAP1 PUSH2 0x119 SWAP2 SWAP1 PUSH2 0x358 JUMP JUMPDEST PUSH2 0x1FD JUMP JUMPDEST STOP JUMPDEST PUSH2 0x128 PUSH2 0x200 JUMP JUMPDEST PUSH1 0x40 MLOAD PUSH2 0x135 SWAP2 SWAP1 PUSH2 0x2B6 JUMP JUMPDEST PUSH1 0x40 MLOAD DUP1 SWAP2 SUB SWAP1 RETURN JUMPDEST PUSH1 0x0 PUSH1 0x1 PUSH1 0x0 SWAP1 SLOAD SWAP1 PUSH2 0x100 EXP SWAP1 DIV PUSH1 0xFF AND SWAP1 POP SWAP1 JUMP JUMPDEST PUSH1 0x0 PUSH1 0xA DUP3 PUSH2 0x164 SWAP2 SWAP1 PUSH2 0x3B4 JUMP JUMPDEST SWAP1 POP SWAP2 SWAP1 POP JUMP JUMPDEST PUSH1 0x0 DUP1 PUSH1 0x5 DUP4 PUSH2 0x17B SWAP2 SWAP1 PUSH2 0x3E8 JUMP JUMPDEST SWAP2 POP PUSH1 0xA DUP4 PUSH2 0x18A SWAP2 SWAP1 PUSH2 0x3E8 JUMP JUMPDEST SWAP1 POP SWAP2 POP SWAP2 JUMP JUMPDEST PUSH1 0x0 DUP1 ISZERO ISZERO PUSH1 0x1 PUSH1 0x0 SWAP1 SLOAD SWAP1 PUSH2 0x100 EXP SWAP1 DIV PUSH1 0xFF AND ISZERO ISZERO SUB PUSH2 0x1CC JUMPI PUSH1 0x1 DUP1 PUSH1 0x0 PUSH2 0x100 EXP DUP2 SLOAD DUP2 PUSH1 0xFF MUL NOT AND SWAP1 DUP4 ISZERO ISZERO MUL OR SWAP1 SSTORE POP PUSH2 0x1E8 JUMP JUMPDEST PUSH1 0x0 PUSH1 0x1 PUSH1 0x0 PUSH2 0x100 EXP DUP2 SLOAD DUP2 PUSH1 0xFF MUL NOT AND SWAP1 DUP4 ISZERO ISZERO MUL OR SWAP1 SSTORE POP JUMPDEST PUSH1 0x1 PUSH1 0x0 SWAP1 SLOAD SWAP1 PUSH2 0x100 EXP SWAP1 DIV PUSH1 0xFF AND SWAP1 POP SWAP1 JUMP JUMPDEST POP JUMP JUMPDEST PUSH1 0x0 DUP1 SLOAD SWAP1 POP SWAP1 JUMP JUMPDEST PUSH1 0x0 DUP2 ISZERO ISZERO SWAP1 POP SWAP2 SWAP1 POP JUMP JUMPDEST PUSH2 0x21E DUP2 PUSH2 0x209 JUMP JUMPDEST DUP3 MSTORE POP POP JUMP JUMPDEST PUSH1 0x0 PUSH1 0x20 DUP3 ADD SWAP1 POP PUSH2 0x239 PUSH1 0x0 DUP4 ADD DUP5 PUSH2 0x215 JUMP JUMPDEST SWAP3 SWAP2 POP POP JUMP JUMPDEST PUSH1 0x0 DUP1 REVERT JUMPDEST PUSH1 0x0 DUP2 SWAP1 POP SWAP2 SWAP1 POP JUMP JUMPDEST PUSH2 0x257 DUP2 PUSH2 0x244 JUMP JUMPDEST DUP2 EQ PUSH2 0x262 JUMPI PUSH1 0x0 DUP1 REVERT JUMPDEST POP JUMP JUMPDEST PUSH1 0x0 DUP2 CALLDATALOAD SWAP1 POP PUSH2 0x274 DUP2 PUSH2 0x24E JUMP JUMPDEST SWAP3 SWAP2 POP POP JUMP JUMPDEST PUSH1 0x0 PUSH1 0x20 DUP3 DUP5 SUB SLT ISZERO PUSH2 0x290 JUMPI PUSH2 0x28F PUSH2 0x23F JUMP JUMPDEST JUMPDEST PUSH1 0x0 PUSH2 0x29E DUP5 DUP3 DUP6 ADD PUSH2 0x265 JUMP JUMPDEST SWAP2 POP POP SWAP3 SWAP2 POP POP JUMP JUMPDEST PUSH2 0x2B0 DUP2 PUSH2 0x244 JUMP JUMPDEST DUP3 MSTORE POP POP JUMP JUMPDEST PUSH1 0x0 PUSH1 0x20 DUP3 ADD SWAP1 POP PUSH2 0x2CB PUSH1 0x0 DUP4 ADD DUP5 PUSH2 0x2A7 JUMP JUMPDEST SWAP3 SWAP2 POP POP JUMP JUMPDEST PUSH1 0x0 PUSH1 0x40 DUP3 ADD SWAP1 POP PUSH2 0x2E6 PUSH1 0x0 DUP4 ADD DUP6 PUSH2 0x2A7 JUMP JUMPDEST PUSH2 0x2F3 PUSH1 0x20 DUP4 ADD DUP5 PUSH2 0x2A7 JUMP JUMPDEST SWAP4 SWAP3 POP POP POP JUMP JUMPDEST PUSH1 0x0 PUSH20 0xFFFFFFFFFFFFFFFFFFFFFFFFFFFFFFFFFFFFFFFF DUP3 AND SWAP1 POP SWAP2 SWAP1 POP JUMP JUMPDEST PUSH1 0x0 PUSH2 0x325 DUP3 PUSH2 0x2FA JUMP JUMPDEST SWAP1 POP SWAP2 SWAP1 POP JUMP JUMPDEST PUSH2 0x335 DUP2 PUSH2 0x31A JUMP JUMPDEST DUP2 EQ PUSH2 0x340 JUMPI PUSH1 0x0 DUP1 REVERT JUMPDEST POP JUMP JUMPDEST PUSH1 0x0 DUP2 CALLDATALOAD SWAP1 POP PUSH2 0x352 DUP2 PUSH2 0x32C JUMP JUMPDEST SWAP3 SWAP2 POP POP JUMP JUMPDEST PUSH1 0x0 PUSH1 0x20 DUP3 DUP5 SUB SLT ISZERO PUSH2 0x36E JUMPI PUSH2 0x36D PUSH2 0x23F JUMP JUMPDEST JUMPDEST PUSH1 0x0 PUSH2 0x37C DUP5 DUP3 DUP6 ADD PUSH2 0x343 JUMP JUMPDEST SWAP2 POP POP SWAP3 SWAP2 POP POP JUMP JUMPDEST PUSH32 0x4E487B7100000000000000000000000000000000000000000000000000000000 PUSH1 0x0 MSTORE PUSH1 0x11 PUSH1 0x4 MSTORE PUSH1 0x24 PUSH1 0x0 REVERT JUMPDEST PUSH1 0x0 PUSH2 0x3BF DUP3 PUSH2 0x244 JUMP JUMPDEST SWAP2 POP PUSH2 0x3CA DUP4 PUSH2 0x244 JUMP JUMPDEST SWAP3 POP DUP3 DUP3 ADD SWAP1 POP DUP1 DUP3 GT ISZERO PUSH2 0x3E2 JUMPI PUSH2 0x3E1 PUSH2 0x385 JUMP JUMPDEST JUMPDEST SWAP3 SWAP2 POP POP JUMP JUMPDEST PUSH1 0x0 PUSH2 0x3F3 DUP3 PUSH2 0x244 JUMP JUMPDEST SWAP2 POP PUSH2 0x3FE DUP4 PUSH2 0x244 JUMP JUMPDEST SWAP3 POP DUP3 DUP3 MUL PUSH2 0x40C DUP2 PUSH2 0x244 JUMP JUMPDEST SWAP2 POP DUP3 DUP3 DIV DUP5 EQ DUP4 ISZERO OR PUSH2 0x423 JUMPI PUSH2 0x422 PUSH2 0x385 JUMP JUMPDEST JUMPDEST POP SWAP3 SWAP2 POP POP JUMP INVALID LOG2 PUSH5 0x6970667358 0x22 SLT KECCAK256 0xFB SLT 0xB7 PUSH18 0x895C6397E347F8049F346FE28B949A848764 0x4B PUSH24 0x16B57CE9927829B364736F6C634300081A00330000000000 "
				},
				"gasEstimates": {
					"creation": {
						"codeDepositCost": "224000",
						"executionCost": "119487",
						"totalCost": "343487"
					},
					"external": {
						"NamedArguments(uint256)": "infinite",
						"changeBooleanFlag()": "28972",
						"displayPrivateIsFlag()": "2457",
						"displayPrivateVariable()": "2525",
						"test(uint256)": "infinite",
						"vote(address)": "521"
					}
				},
				"methodIdentifiers": {
					"NamedArguments(uint256)": "4fd959b0",
					"changeBooleanFlag()": "6d66022c",
					"displayPrivateIsFlag()": "13858db5",
					"displayPrivateVariable()": "e78a6881",
					"test(uint256)": "29e99f07",
					"vote(address)": "6dd7d8ea"
				}
			},
			"storageLayout": {
				"storage": [
					{
						"astId": 4,
						"contract": "04 SamrtConttractBasic/SimpleVoting.sol:SimpleVoting",
						"label": "_voteCandidate",
						"offset": 0,
						"slot": "0",
						"type": "t_uint256"
					},
					{
						"astId": 7,
						"contract": "04 SamrtConttractBasic/SimpleVoting.sol:SimpleVoting",
						"label": "_isFlag",
						"offset": 0,
						"slot": "1",
						"type": "t_bool"
					},
					{
						"astId": 10,
						"contract": "04 SamrtConttractBasic/SimpleVoting.sol:SimpleVoting",
						"label": "_owner",
						"offset": 1,
						"slot": "1",
						"type": "t_address"
					},
					{
						"astId": 13,
						"contract": "04 SamrtConttractBasic/SimpleVoting.sol:SimpleVoting",
						"label": "_cadidateOne",
						"offset": 0,
						"slot": "2",
						"type": "t_address"
					},
					{
						"astId": 16,
						"contract": "04 SamrtConttractBasic/SimpleVoting.sol:SimpleVoting",
						"label": "_cadidateTwo",
						"offset": 0,
						"slot": "3",
						"type": "t_address"
					}
				],
				"types": {
					"t_address": {
						"encoding": "inplace",
						"label": "address",
						"numberOfBytes": "20"
					},
					"t_bool": {
						"encoding": "inplace",
						"label": "bool",
						"numberOfBytes": "1"
					},
					"t_uint256": {
						"encoding": "inplace",
						"label": "uint256",
						"numberOfBytes": "32"
					}
				}
			},
			"userdoc": {
				"kind": "user",
				"methods": {},
				"version": 1
			}
		}
	}
}