{
	"04 SamrtConttractBasic/SimpleVoting.sol": {
		"SimpleVoting": {
			"abi": [
				{
					"inputs": [
						{
							"internalType": "uint256",
							"name": "a",
							"type": "uint256"
						}
					],
					"name": "NamedArguments",
					"outputs": [
						{
							"internalType": "uint256",
							"name": "b",
							"type": "uint256"
						},
						{
							"internalType": "uint256",
							"name": "c",
							"type": "uint256"
						}
					],
					"stateMutability": "pure",
					"type": "function"
				},
				{
					"inputs": [],
					"name": "changeBooleanFlag",
					"outputs": [
						{
							"internalType": "bool",
							"name": "",
							"type": "bool"
						}
					],
					"stateMutability": "nonpayable",
					"type": "function"
				},
				{
					"inputs": [],
					"name": "displayPrivateIsFlag",
					"outputs": [
						{
							"internalType": "bool",
							"name": "",
							"type": "bool"
						}
					],
					"stateMutability": "view",
					"type": "function"
				},
				{
					"inputs": [],
					"name": "displayPrivateVariable",
					"outputs": [
						{
							"internalType": "uint256",
							"name": "",
							"type": "uint256"
						}
					],
					"stateMutability": "view",
					"type": "function"
				},
				{
					"inputs": [
						{
							"internalType": "uint256",
							"name": "a",
							"type": "uint256"
						}
					],
					"name": "test",
					"outputs": [
						{
							"internalType": "uint256",
							"name": "",
							"type": "uint256"
						}
					],
					"stateMutability": "pure",
					"type": "function"
				}
			],
			"devdoc": {
				"kind": "dev",
				"methods": {},
				"version": 1
			},
			"evm": {
				"assembly": "    /* \"04 SamrtConttractBasic/SimpleVoting.sol\":59:816  contract SimpleVoting {... */\n  mstore(0x40, 0x80)\n    /* \"04 SamrtConttractBasic/SimpleVoting.sol\":120:121  5 */\n  0x05\n    /* \"04 SamrtConttractBasic/SimpleVoting.sol\":87:121  uint256 private _voteCandidate = 5 */\n  0x00\n  sstore\n    /* \"04 SamrtConttractBasic/SimpleVoting.sol\":150:155  false */\n  0x00\n    /* \"04 SamrtConttractBasic/SimpleVoting.sol\":127:155  bool private _isFlag = false */\n  0x01\n  exp(0x0100, 0x00)\n  dup2\n  sload\n  dup2\n  0xff\n  mul\n  not\n  and\n  swap1\n  dup4\n  iszero\n  iszero\n  mul\n  or\n  swap1\n  sstore\n  pop\n    /* \"04 SamrtConttractBasic/SimpleVoting.sol\":59:816  contract SimpleVoting {... */\n  callvalue\n  dup1\n  iszero\n  tag_1\n  jumpi\n  0x00\n  dup1\n  revert\ntag_1:\n  pop\n  dataSize(sub_0)\n  dup1\n  dataOffset(sub_0)\n  0x00\n  codecopy\n  0x00\n  return\nstop\n\nsub_0: assembly {\n        /* \"04 SamrtConttractBasic/SimpleVoting.sol\":59:816  contract SimpleVoting {... */\n      mstore(0x40, 0x80)\n      callvalue\n      dup1\n      iszero\n      tag_1\n      jumpi\n      0x00\n      dup1\n      revert\n    tag_1:\n      pop\n      jumpi(tag_2, lt(calldatasize, 0x04))\n      shr(0xe0, calldataload(0x00))\n      dup1\n      0x13858db5\n      eq\n      tag_3\n      jumpi\n      dup1\n      0x29e99f07\n      eq\n      tag_4\n      jumpi\n      dup1\n      0x4fd959b0\n      eq\n      tag_5\n      jumpi\n      dup1\n      0x6d66022c\n      eq\n      tag_6\n      jumpi\n      dup1\n      0xe78a6881\n      eq\n      tag_7\n      jumpi\n    tag_2:\n      0x00\n      dup1\n      revert\n        /* \"04 SamrtConttractBasic/SimpleVoting.sol\":726:814  function displayPrivateIsFlag()public view returns (bool){... */\n    tag_3:\n      tag_8\n      tag_9\n      jump\t// in\n    tag_8:\n      mload(0x40)\n      tag_10\n      swap2\n      swap1\n      tag_11\n      jump\t// in\n    tag_10:\n      mload(0x40)\n      dup1\n      swap2\n      sub\n      swap1\n      return\n        /* \"04 SamrtConttractBasic/SimpleVoting.sol\":162:249  function test(uint256 a) external pure returns (uint256) {... */\n    tag_4:\n      tag_12\n      0x04\n      dup1\n      calldatasize\n      sub\n      dup2\n      add\n      swap1\n      tag_13\n      swap2\n      swap1\n      tag_14\n      jump\t// in\n    tag_13:\n      tag_15\n      jump\t// in\n    tag_12:\n      mload(0x40)\n      tag_16\n      swap2\n      swap1\n      tag_17\n      jump\t// in\n    tag_16:\n      mload(0x40)\n      dup1\n      swap2\n      sub\n      swap1\n      return\n        /* \"04 SamrtConttractBasic/SimpleVoting.sol\":255:409  function NamedArguments(uint256 a)... */\n    tag_5:\n      tag_18\n      0x04\n      dup1\n      calldatasize\n      sub\n      dup2\n      add\n      swap1\n      tag_19\n      swap2\n      swap1\n      tag_14\n      jump\t// in\n    tag_19:\n      tag_20\n      jump\t// in\n    tag_18:\n      mload(0x40)\n      tag_21\n      swap3\n      swap2\n      swap1\n      tag_22\n      jump\t// in\n    tag_21:\n      mload(0x40)\n      dup1\n      swap2\n      sub\n      swap1\n      return\n        /* \"04 SamrtConttractBasic/SimpleVoting.sol\":523:721  function changeBooleanFlag() public returns (bool) {... */\n    tag_6:\n      tag_23\n      tag_24\n      jump\t// in\n    tag_23:\n      mload(0x40)\n      tag_25\n      swap2\n      swap1\n      tag_11\n      jump\t// in\n    tag_25:\n      mload(0x40)\n      dup1\n      swap2\n      sub\n      swap1\n      return\n        /* \"04 SamrtConttractBasic/SimpleVoting.sol\":415:517  function displayPrivateVariable() public view returns (uint256) {... */\n    tag_7:\n      tag_26\n      tag_27\n      jump\t// in\n    tag_26:\n      mload(0x40)\n      tag_28\n      swap2\n      swap1\n      tag_17\n      jump\t// in\n    tag_28:\n      mload(0x40)\n      dup1\n      swap2\n      sub\n      swap1\n      return\n        /* \"04 SamrtConttractBasic/SimpleVoting.sol\":726:814  function displayPrivateIsFlag()public view returns (bool){... */\n    tag_9:\n        /* \"04 SamrtConttractBasic/SimpleVoting.sol\":778:782  bool */\n      0x00\n        /* \"04 SamrtConttractBasic/SimpleVoting.sol\":800:807  _isFlag */\n      0x01\n      0x00\n      swap1\n      sload\n      swap1\n      0x0100\n      exp\n      swap1\n      div\n      0xff\n      and\n        /* \"04 SamrtConttractBasic/SimpleVoting.sol\":793:807  return _isFlag */\n      swap1\n      pop\n        /* \"04 SamrtConttractBasic/SimpleVoting.sol\":726:814  function displayPrivateIsFlag()public view returns (bool){... */\n      swap1\n      jump\t// out\n        /* \"04 SamrtConttractBasic/SimpleVoting.sol\":162:249  function test(uint256 a) external pure returns (uint256) {... */\n    tag_15:\n        /* \"04 SamrtConttractBasic/SimpleVoting.sol\":210:217  uint256 */\n      0x00\n        /* \"04 SamrtConttractBasic/SimpleVoting.sol\":240:242  10 */\n      0x0a\n        /* \"04 SamrtConttractBasic/SimpleVoting.sol\":236:237  a */\n      dup3\n        /* \"04 SamrtConttractBasic/SimpleVoting.sol\":236:242  a + 10 */\n      tag_31\n      swap2\n      swap1\n      tag_32\n      jump\t// in\n    tag_31:\n        /* \"04 SamrtConttractBasic/SimpleVoting.sol\":229:242  return a + 10 */\n      swap1\n      pop\n        /* \"04 SamrtConttractBasic/SimpleVoting.sol\":162:249  function test(uint256 a) external pure returns (uint256) {... */\n      swap2\n      swap1\n      pop\n      jump\t// out\n        /* \"04 SamrtConttractBasic/SimpleVoting.sol\":255:409  function NamedArguments(uint256 a)... */\n    tag_20:\n        /* \"04 SamrtConttractBasic/SimpleVoting.sol\":337:346  uint256 b */\n      0x00\n        /* \"04 SamrtConttractBasic/SimpleVoting.sol\":348:357  uint256 c */\n      dup1\n        /* \"04 SamrtConttractBasic/SimpleVoting.sol\":381:382  5 */\n      0x05\n        /* \"04 SamrtConttractBasic/SimpleVoting.sol\":377:378  a */\n      dup4\n        /* \"04 SamrtConttractBasic/SimpleVoting.sol\":377:382  a * 5 */\n      tag_34\n      swap2\n      swap1\n      tag_35\n      jump\t// in\n    tag_34:\n        /* \"04 SamrtConttractBasic/SimpleVoting.sol\":373:382  b = a * 5 */\n      swap2\n      pop\n        /* \"04 SamrtConttractBasic/SimpleVoting.sol\":400:402  10 */\n      0x0a\n        /* \"04 SamrtConttractBasic/SimpleVoting.sol\":396:397  a */\n      dup4\n        /* \"04 SamrtConttractBasic/SimpleVoting.sol\":396:402  a * 10 */\n      tag_36\n      swap2\n      swap1\n      tag_35\n      jump\t// in\n    tag_36:\n        /* \"04 SamrtConttractBasic/SimpleVoting.sol\":392:402  c = a * 10 */\n      swap1\n      pop\n        /* \"04 SamrtConttractBasic/SimpleVoting.sol\":255:409  function NamedArguments(uint256 a)... */\n      swap2\n      pop\n      swap2\n      jump\t// out\n        /* \"04 SamrtConttractBasic/SimpleVoting.sol\":523:721  function changeBooleanFlag() public returns (bool) {... */\n    tag_24:\n        /* \"04 SamrtConttractBasic/SimpleVoting.sol\":568:572  bool */\n      0x00\n        /* \"04 SamrtConttractBasic/SimpleVoting.sol\":599:604  false */\n      dup1\n        /* \"04 SamrtConttractBasic/SimpleVoting.sol\":588:604  _isFlag == false */\n      iszero\n      iszero\n        /* \"04 SamrtConttractBasic/SimpleVoting.sol\":588:595  _isFlag */\n      0x01\n      0x00\n      swap1\n      sload\n      swap1\n      0x0100\n      exp\n      swap1\n      div\n      0xff\n      and\n        /* \"04 SamrtConttractBasic/SimpleVoting.sol\":588:604  _isFlag == false */\n      iszero\n      iszero\n      sub\n        /* \"04 SamrtConttractBasic/SimpleVoting.sol\":584:691  if (_isFlag == false) {... */\n      tag_38\n      jumpi\n        /* \"04 SamrtConttractBasic/SimpleVoting.sol\":630:634  true */\n      0x01\n        /* \"04 SamrtConttractBasic/SimpleVoting.sol\":620:627  _isFlag */\n      dup1\n      0x00\n        /* \"04 SamrtConttractBasic/SimpleVoting.sol\":620:634  _isFlag = true */\n      0x0100\n      exp\n      dup2\n      sload\n      dup2\n      0xff\n      mul\n      not\n      and\n      swap1\n      dup4\n      iszero\n      iszero\n      mul\n      or\n      swap1\n      sstore\n      pop\n        /* \"04 SamrtConttractBasic/SimpleVoting.sol\":584:691  if (_isFlag == false) {... */\n      jump(tag_39)\n    tag_38:\n        /* \"04 SamrtConttractBasic/SimpleVoting.sol\":675:680  false */\n      0x00\n        /* \"04 SamrtConttractBasic/SimpleVoting.sol\":665:672  _isFlag */\n      0x01\n      0x00\n        /* \"04 SamrtConttractBasic/SimpleVoting.sol\":665:680  _isFlag = false */\n      0x0100\n      exp\n      dup2\n      sload\n      dup2\n      0xff\n      mul\n      not\n      and\n      swap1\n      dup4\n      iszero\n      iszero\n      mul\n      or\n      swap1\n      sstore\n      pop\n        /* \"04 SamrtConttractBasic/SimpleVoting.sol\":584:691  if (_isFlag == false) {... */\n    tag_39:\n        /* \"04 SamrtConttractBasic/SimpleVoting.sol\":707:714  _isFlag */\n      0x01\n      0x00\n      swap1\n      sload\n      swap1\n      0x0100\n      exp\n      swap1\n      div\n      0xff\n      and\n        /* \"04 SamrtConttractBasic/SimpleVoting.sol\":700:714  return _isFlag */\n      swap1\n      pop\n        /* \"04 SamrtConttractBasic/SimpleVoting.sol\":523:721  function changeBooleanFlag() public returns (bool) {... */\n      swap1\n      jump\t// out\n        /* \"04 SamrtConttractBasic/SimpleVoting.sol\":415:517  function displayPrivateVariable() public view returns (uint256) {... */\n    tag_27:\n        /* \"04 SamrtConttractBasic/SimpleVoting.sol\":470:477  uint256 */\n      0x00\n        /* \"04 SamrtConttractBasic/SimpleVoting.sol\":496:510  _voteCandidate */\n      dup1\n      sload\n        /* \"04 SamrtConttractBasic/SimpleVoting.sol\":489:510  return _voteCandidate */\n      swap1\n      pop\n        /* \"04 SamrtConttractBasic/SimpleVoting.sol\":415:517  function displayPrivateVariable() public view returns (uint256) {... */\n      swap1\n      jump\t// out\n        /* \"#utility.yul\":7:97   */\n    tag_41:\n        /* \"#utility.yul\":41:48   */\n      0x00\n        /* \"#utility.yul\":84:89   */\n      dup2\n        /* \"#utility.yul\":77:90   */\n      iszero\n        /* \"#utility.yul\":70:91   */\n      iszero\n        /* \"#utility.yul\":59:91   */\n      swap1\n      pop\n        /* \"#utility.yul\":7:97   */\n      swap2\n      swap1\n      pop\n      jump\t// out\n        /* \"#utility.yul\":103:212   */\n    tag_42:\n        /* \"#utility.yul\":184:205   */\n      tag_54\n        /* \"#utility.yul\":199:204   */\n      dup2\n        /* \"#utility.yul\":184:205   */\n      tag_41\n      jump\t// in\n    tag_54:\n        /* \"#utility.yul\":179:182   */\n      dup3\n        /* \"#utility.yul\":172:206   */\n      mstore\n        /* \"#utility.yul\":103:212   */\n      pop\n      pop\n      jump\t// out\n        /* \"#utility.yul\":218:428   */\n    tag_11:\n        /* \"#utility.yul\":305:309   */\n      0x00\n        /* \"#utility.yul\":343:345   */\n      0x20\n        /* \"#utility.yul\":332:341   */\n      dup3\n        /* \"#utility.yul\":328:346   */\n      add\n        /* \"#utility.yul\":320:346   */\n      swap1\n      pop\n        /* \"#utility.yul\":356:421   */\n      tag_56\n        /* \"#utility.yul\":418:419   */\n      0x00\n        /* \"#utility.yul\":407:416   */\n      dup4\n        /* \"#utility.yul\":403:420   */\n      add\n        /* \"#utility.yul\":394:400   */\n      dup5\n        /* \"#utility.yul\":356:421   */\n      tag_42\n      jump\t// in\n    tag_56:\n        /* \"#utility.yul\":218:428   */\n      swap3\n      swap2\n      pop\n      pop\n      jump\t// out\n        /* \"#utility.yul\":515:632   */\n    tag_44:\n        /* \"#utility.yul\":624:625   */\n      0x00\n        /* \"#utility.yul\":621:622   */\n      dup1\n        /* \"#utility.yul\":614:626   */\n      revert\n        /* \"#utility.yul\":761:838   */\n    tag_46:\n        /* \"#utility.yul\":798:805   */\n      0x00\n        /* \"#utility.yul\":827:832   */\n      dup2\n        /* \"#utility.yul\":816:832   */\n      swap1\n      pop\n        /* \"#utility.yul\":761:838   */\n      swap2\n      swap1\n      pop\n      jump\t// out\n        /* \"#utility.yul\":844:966   */\n    tag_47:\n        /* \"#utility.yul\":917:941   */\n      tag_62\n        /* \"#utility.yul\":935:940   */\n      dup2\n        /* \"#utility.yul\":917:941   */\n      tag_46\n      jump\t// in\n    tag_62:\n        /* \"#utility.yul\":910:915   */\n      dup2\n        /* \"#utility.yul\":907:942   */\n      eq\n        /* \"#utility.yul\":897:960   */\n      tag_63\n      jumpi\n        /* \"#utility.yul\":956:957   */\n      0x00\n        /* \"#utility.yul\":953:954   */\n      dup1\n        /* \"#utility.yul\":946:958   */\n      revert\n        /* \"#utility.yul\":897:960   */\n    tag_63:\n        /* \"#utility.yul\":844:966   */\n      pop\n      jump\t// out\n        /* \"#utility.yul\":972:1111   */\n    tag_48:\n        /* \"#utility.yul\":1018:1023   */\n      0x00\n        /* \"#utility.yul\":1056:1062   */\n      dup2\n        /* \"#utility.yul\":1043:1063   */\n      calldataload\n        /* \"#utility.yul\":1034:1063   */\n      swap1\n      pop\n        /* \"#utility.yul\":1072:1105   */\n      tag_65\n        /* \"#utility.yul\":1099:1104   */\n      dup2\n        /* \"#utility.yul\":1072:1105   */\n      tag_47\n      jump\t// in\n    tag_65:\n        /* \"#utility.yul\":972:1111   */\n      swap3\n      swap2\n      pop\n      pop\n      jump\t// out\n        /* \"#utility.yul\":1117:1446   */\n    tag_14:\n        /* \"#utility.yul\":1176:1182   */\n      0x00\n        /* \"#utility.yul\":1225:1227   */\n      0x20\n        /* \"#utility.yul\":1213:1222   */\n      dup3\n        /* \"#utility.yul\":1204:1211   */\n      dup5\n        /* \"#utility.yul\":1200:1223   */\n      sub\n        /* \"#utility.yul\":1196:1228   */\n      slt\n        /* \"#utility.yul\":1193:1312   */\n      iszero\n      tag_67\n      jumpi\n        /* \"#utility.yul\":1231:1310   */\n      tag_68\n      tag_44\n      jump\t// in\n    tag_68:\n        /* \"#utility.yul\":1193:1312   */\n    tag_67:\n        /* \"#utility.yul\":1351:1352   */\n      0x00\n        /* \"#utility.yul\":1376:1429   */\n      tag_69\n        /* \"#utility.yul\":1421:1428   */\n      dup5\n        /* \"#utility.yul\":1412:1418   */\n      dup3\n        /* \"#utility.yul\":1401:1410   */\n      dup6\n        /* \"#utility.yul\":1397:1419   */\n      add\n        /* \"#utility.yul\":1376:1429   */\n      tag_48\n      jump\t// in\n    tag_69:\n        /* \"#utility.yul\":1366:1429   */\n      swap2\n      pop\n        /* \"#utility.yul\":1322:1439   */\n      pop\n        /* \"#utility.yul\":1117:1446   */\n      swap3\n      swap2\n      pop\n      pop\n      jump\t// out\n        /* \"#utility.yul\":1452:1570   */\n    tag_49:\n        /* \"#utility.yul\":1539:1563   */\n      tag_71\n        /* \"#utility.yul\":1557:1562   */\n      dup2\n        /* \"#utility.yul\":1539:1563   */\n      tag_46\n      jump\t// in\n    tag_71:\n        /* \"#utility.yul\":1534:1537   */\n      dup3\n        /* \"#utility.yul\":1527:1564   */\n      mstore\n        /* \"#utility.yul\":1452:1570   */\n      pop\n      pop\n      jump\t// out\n        /* \"#utility.yul\":1576:1798   */\n    tag_17:\n        /* \"#utility.yul\":1669:1673   */\n      0x00\n        /* \"#utility.yul\":1707:1709   */\n      0x20\n        /* \"#utility.yul\":1696:1705   */\n      dup3\n        /* \"#utility.yul\":1692:1710   */\n      add\n        /* \"#utility.yul\":1684:1710   */\n      swap1\n      pop\n        /* \"#utility.yul\":1720:1791   */\n      tag_73\n        /* \"#utility.yul\":1788:1789   */\n      0x00\n        /* \"#utility.yul\":1777:1786   */\n      dup4\n        /* \"#utility.yul\":1773:1790   */\n      add\n        /* \"#utility.yul\":1764:1770   */\n      dup5\n        /* \"#utility.yul\":1720:1791   */\n      tag_49\n      jump\t// in\n    tag_73:\n        /* \"#utility.yul\":1576:1798   */\n      swap3\n      swap2\n      pop\n      pop\n      jump\t// out\n        /* \"#utility.yul\":1804:2136   */\n    tag_22:\n        /* \"#utility.yul\":1925:1929   */\n      0x00\n        /* \"#utility.yul\":1963:1965   */\n      0x40\n        /* \"#utility.yul\":1952:1961   */\n      dup3\n        /* \"#utility.yul\":1948:1966   */\n      add\n        /* \"#utility.yul\":1940:1966   */\n      swap1\n      pop\n        /* \"#utility.yul\":1976:2047   */\n      tag_75\n        /* \"#utility.yul\":2044:2045   */\n      0x00\n        /* \"#utility.yul\":2033:2042   */\n      dup4\n        /* \"#utility.yul\":2029:2046   */\n      add\n        /* \"#utility.yul\":2020:2026   */\n      dup6\n        /* \"#utility.yul\":1976:2047   */\n      tag_49\n      jump\t// in\n    tag_75:\n        /* \"#utility.yul\":2057:2129   */\n      tag_76\n        /* \"#utility.yul\":2125:2127   */\n      0x20\n        /* \"#utility.yul\":2114:2123   */\n      dup4\n        /* \"#utility.yul\":2110:2128   */\n      add\n        /* \"#utility.yul\":2101:2107   */\n      dup5\n        /* \"#utility.yul\":2057:2129   */\n      tag_49\n      jump\t// in\n    tag_76:\n        /* \"#utility.yul\":1804:2136   */\n      swap4\n      swap3\n      pop\n      pop\n      pop\n      jump\t// out\n        /* \"#utility.yul\":2142:2322   */\n    tag_50:\n        /* \"#utility.yul\":2190:2267   */\n      0x4e487b7100000000000000000000000000000000000000000000000000000000\n        /* \"#utility.yul\":2187:2188   */\n      0x00\n        /* \"#utility.yul\":2180:2268   */\n      mstore\n        /* \"#utility.yul\":2287:2291   */\n      0x11\n        /* \"#utility.yul\":2284:2285   */\n      0x04\n        /* \"#utility.yul\":2277:2292   */\n      mstore\n        /* \"#utility.yul\":2311:2315   */\n      0x24\n        /* \"#utility.yul\":2308:2309   */\n      0x00\n        /* \"#utility.yul\":2301:2316   */\n      revert\n        /* \"#utility.yul\":2328:2519   */\n    tag_32:\n        /* \"#utility.yul\":2368:2371   */\n      0x00\n        /* \"#utility.yul\":2387:2407   */\n      tag_79\n        /* \"#utility.yul\":2405:2406   */\n      dup3\n        /* \"#utility.yul\":2387:2407   */\n      tag_46\n      jump\t// in\n    tag_79:\n        /* \"#utility.yul\":2382:2407   */\n      swap2\n      pop\n        /* \"#utility.yul\":2421:2441   */\n      tag_80\n        /* \"#utility.yul\":2439:2440   */\n      dup4\n        /* \"#utility.yul\":2421:2441   */\n      tag_46\n      jump\t// in\n    tag_80:\n        /* \"#utility.yul\":2416:2441   */\n      swap3\n      pop\n        /* \"#utility.yul\":2464:2465   */\n      dup3\n        /* \"#utility.yul\":2461:2462   */\n      dup3\n        /* \"#utility.yul\":2457:2466   */\n      add\n        /* \"#utility.yul\":2450:2466   */\n      swap1\n      pop\n        /* \"#utility.yul\":2485:2488   */\n      dup1\n        /* \"#utility.yul\":2482:2483   */\n      dup3\n        /* \"#utility.yul\":2479:2489   */\n      gt\n        /* \"#utility.yul\":2476:2512   */\n      iszero\n      tag_81\n      jumpi\n        /* \"#utility.yul\":2492:2510   */\n      tag_82\n      tag_50\n      jump\t// in\n    tag_82:\n        /* \"#utility.yul\":2476:2512   */\n    tag_81:\n        /* \"#utility.yul\":2328:2519   */\n      swap3\n      swap2\n      pop\n      pop\n      jump\t// out\n        /* \"#utility.yul\":2525:2935   */\n    tag_35:\n        /* \"#utility.yul\":2565:2572   */\n      0x00\n        /* \"#utility.yul\":2588:2608   */\n      tag_84\n        /* \"#utility.yul\":2606:2607   */\n      dup3\n        /* \"#utility.yul\":2588:2608   */\n      tag_46\n      jump\t// in\n    tag_84:\n        /* \"#utility.yul\":2583:2608   */\n      swap2\n      pop\n        /* \"#utility.yul\":2622:2642   */\n      tag_85\n        /* \"#utility.yul\":2640:2641   */\n      dup4\n        /* \"#utility.yul\":2622:2642   */\n      tag_46\n      jump\t// in\n    tag_85:\n        /* \"#utility.yul\":2617:2642   */\n      swap3\n      pop\n        /* \"#utility.yul\":2677:2678   */\n      dup3\n        /* \"#utility.yul\":2674:2675   */\n      dup3\n        /* \"#utility.yul\":2670:2679   */\n      mul\n        /* \"#utility.yul\":2699:2729   */\n      tag_86\n        /* \"#utility.yul\":2717:2728   */\n      dup2\n        /* \"#utility.yul\":2699:2729   */\n      tag_46\n      jump\t// in\n    tag_86:\n        /* \"#utility.yul\":2688:2729   */\n      swap2\n      pop\n        /* \"#utility.yul\":2878:2879   */\n      dup3\n        /* \"#utility.yul\":2869:2876   */\n      dup3\n        /* \"#utility.yul\":2865:2880   */\n      div\n        /* \"#utility.yul\":2862:2863   */\n      dup5\n        /* \"#utility.yul\":2859:2881   */\n      eq\n        /* \"#utility.yul\":2839:2840   */\n      dup4\n        /* \"#utility.yul\":2832:2841   */\n      iszero\n        /* \"#utility.yul\":2812:2895   */\n      or\n        /* \"#utility.yul\":2789:2928   */\n      tag_87\n      jumpi\n        /* \"#utility.yul\":2908:2926   */\n      tag_88\n      tag_50\n      jump\t// in\n    tag_88:\n        /* \"#utility.yul\":2789:2928   */\n    tag_87:\n        /* \"#utility.yul\":2573:2935   */\n      pop\n        /* \"#utility.yul\":2525:2935   */\n      swap3\n      swap2\n      pop\n      pop\n      jump\t// out\n\n    auxdata: 0xa264697066735822122049b3da33c026f7c76ec457eb5696b0aba143ad01e4004930ad3e30241b48788364736f6c634300081a0033\n}\n",
				"bytecode": {
					"linkReferences": {},
					"object": "608060405260056000556000600160006101000a81548160ff021916908315150217905550348015602f57600080fd5b506103ab8061003f6000396000f3fe608060405234801561001057600080fd5b50600436106100575760003560e01c806313858db51461005c57806329e99f071461007a5780634fd959b0146100aa5780636d66022c146100db578063e78a6881146100f9575b600080fd5b610064610117565b60405161007191906101fa565b60405180910390f35b610094600480360381019061008f9190610250565b61012e565b6040516100a1919061028c565b60405180910390f35b6100c460048036038101906100bf9190610250565b610144565b6040516100d29291906102a7565b60405180910390f35b6100e361016a565b6040516100f091906101fa565b60405180910390f35b6101016101d6565b60405161010e919061028c565b60405180910390f35b6000600160009054906101000a900460ff16905090565b6000600a8261013d91906102ff565b9050919050565b6000806005836101549190610333565b9150600a836101639190610333565b9050915091565b6000801515600160009054906101000a900460ff161515036101a55760018060006101000a81548160ff0219169083151502179055506101c1565b6000600160006101000a81548160ff0219169083151502179055505b600160009054906101000a900460ff16905090565b60008054905090565b60008115159050919050565b6101f4816101df565b82525050565b600060208201905061020f60008301846101eb565b92915050565b600080fd5b6000819050919050565b61022d8161021a565b811461023857600080fd5b50565b60008135905061024a81610224565b92915050565b60006020828403121561026657610265610215565b5b60006102748482850161023b565b91505092915050565b6102868161021a565b82525050565b60006020820190506102a1600083018461027d565b92915050565b60006040820190506102bc600083018561027d565b6102c9602083018461027d565b9392505050565b7f4e487b7100000000000000000000000000000000000000000000000000000000600052601160045260246000fd5b600061030a8261021a565b91506103158361021a565b925082820190508082111561032d5761032c6102d0565b5b92915050565b600061033e8261021a565b91506103498361021a565b92508282026103578161021a565b9150828204841483151761036e5761036d6102d0565b5b509291505056fea264697066735822122049b3da33c026f7c76ec457eb5696b0aba143ad01e4004930ad3e30241b48788364736f6c634300081a0033",
					"opcodes": "PUSH1 0x80 PUSH1 0x40 MSTORE PUSH1 0x5 PUSH1 0x0 SSTORE PUSH1 0x0 PUSH1 0x1 PUSH1 0x0 PUSH2 0x100 EXP DUP2 SLOAD DUP2 PUSH1 0xFF MUL NOT AND SWAP1 DUP4 ISZERO ISZERO MUL OR SWAP1 SSTORE POP CALLVALUE DUP1 ISZERO PUSH1 0x2F JUMPI PUSH1 0x0 DUP1 REVERT JUMPDEST POP PUSH2 0x3AB DUP1 PUSH2 0x3F PUSH1 0x0 CODECOPY PUSH1 0x0 RETURN INVALID PUSH1 0x80 PUSH1 0x40 MSTORE CALLVALUE DUP1 ISZERO PUSH2 0x10 JUMPI PUSH1 0x0 DUP1 REVERT JUMPDEST POP PUSH1 0x4 CALLDATASIZE LT PUSH2 0x57 JUMPI PUSH1 0x0 CALLDATALOAD PUSH1 0xE0 SHR DUP1 PUSH4 0x13858DB5 EQ PUSH2 0x5C JUMPI DUP1 PUSH4 0x29E99F07 EQ PUSH2 0x7A JUMPI DUP1 PUSH4 0x4FD959B0 EQ PUSH2 0xAA JUMPI DUP1 PUSH4 0x6D66022C EQ PUSH2 0xDB JUMPI DUP1 PUSH4 0xE78A6881 EQ PUSH2 0xF9 JUMPI JUMPDEST PUSH1 0x0 DUP1 REVERT JUMPDEST PUSH2 0x64 PUSH2 0x117 JUMP JUMPDEST PUSH1 0x40 MLOAD PUSH2 0x71 SWAP2 SWAP1 PUSH2 0x1FA JUMP JUMPDEST PUSH1 0x40 MLOAD DUP1 SWAP2 SUB SWAP1 RETURN JUMPDEST PUSH2 0x94 PUSH1 0x4 DUP1 CALLDATASIZE SUB DUP2 ADD SWAP1 PUSH2 0x8F SWAP2 SWAP1 PUSH2 0x250 JUMP JUMPDEST PUSH2 0x12E JUMP JUMPDEST PUSH1 0x40 MLOAD PUSH2 0xA1 SWAP2 SWAP1 PUSH2 0x28C JUMP JUMPDEST PUSH1 0x40 MLOAD DUP1 SWAP2 SUB SWAP1 RETURN JUMPDEST PUSH2 0xC4 PUSH1 0x4 DUP1 CALLDATASIZE SUB DUP2 ADD SWAP1 PUSH2 0xBF SWAP2 SWAP1 PUSH2 0x250 JUMP JUMPDEST PUSH2 0x144 JUMP JUMPDEST PUSH1 0x40 MLOAD PUSH2 0xD2 SWAP3 SWAP2 SWAP1 PUSH2 0x2A7 JUMP JUMPDEST PUSH1 0x40 MLOAD DUP1 SWAP2 SUB SWAP1 RETURN JUMPDEST PUSH2 0xE3 PUSH2 0x16A JUMP JUMPDEST PUSH1 0x40 MLOAD PUSH2 0xF0 SWAP2 SWAP1 PUSH2 0x1FA JUMP JUMPDEST PUSH1 0x40 MLOAD DUP1 SWAP2 SUB SWAP1 RETURN JUMPDEST PUSH2 0x101 PUSH2 0x1D6 JUMP JUMPDEST PUSH1 0x40 MLOAD PUSH2 0x10E SWAP2 SWAP1 PUSH2 0x28C JUMP JUMPDEST PUSH1 0x40 MLOAD DUP1 SWAP2 SUB SWAP1 RETURN JUMPDEST PUSH1 0x0 PUSH1 0x1 PUSH1 0x0 SWAP1 SLOAD SWAP1 PUSH2 0x100 EXP SWAP1 DIV PUSH1 0xFF AND SWAP1 POP SWAP1 JUMP JUMPDEST PUSH1 0x0 PUSH1 0xA DUP3 PUSH2 0x13D SWAP2 SWAP1 PUSH2 0x2FF JUMP JUMPDEST SWAP1 POP SWAP2 SWAP1 POP JUMP JUMPDEST PUSH1 0x0 DUP1 PUSH1 0x5 DUP4 PUSH2 0x154 SWAP2 SWAP1 PUSH2 0x333 JUMP JUMPDEST SWAP2 POP PUSH1 0xA DUP4 PUSH2 0x163 SWAP2 SWAP1 PUSH2 0x333 JUMP JUMPDEST SWAP1 POP SWAP2 POP SWAP2 JUMP JUMPDEST PUSH1 0x0 DUP1 ISZERO ISZERO PUSH1 0x1 PUSH1 0x0 SWAP1 SLOAD SWAP1 PUSH2 0x100 EXP SWAP1 DIV PUSH1 0xFF AND ISZERO ISZERO SUB PUSH2 0x1A5 JUMPI PUSH1 0x1 DUP1 PUSH1 0x0 PUSH2 0x100 EXP DUP2 SLOAD DUP2 PUSH1 0xFF MUL NOT AND SWAP1 DUP4 ISZERO ISZERO MUL OR SWAP1 SSTORE POP PUSH2 0x1C1 JUMP JUMPDEST PUSH1 0x0 PUSH1 0x1 PUSH1 0x0 PUSH2 0x100 EXP DUP2 SLOAD DUP2 PUSH1 0xFF MUL NOT AND SWAP1 DUP4 ISZERO ISZERO MUL OR SWAP1 SSTORE POP JUMPDEST PUSH1 0x1 PUSH1 0x0 SWAP1 SLOAD SWAP1 PUSH2 0x100 EXP SWAP1 DIV PUSH1 0xFF AND SWAP1 POP SWAP1 JUMP JUMPDEST PUSH1 0x0 DUP1 SLOAD SWAP1 POP SWAP1 JUMP JUMPDEST PUSH1 0x0 DUP2 ISZERO ISZERO SWAP1 POP SWAP2 SWAP1 POP JUMP JUMPDEST PUSH2 0x1F4 DUP2 PUSH2 0x1DF JUMP JUMPDEST DUP3 MSTORE POP POP JUMP JUMPDEST PUSH1 0x0 PUSH1 0x20 DUP3 ADD SWAP1 POP PUSH2 0x20F PUSH1 0x0 DUP4 ADD DUP5 PUSH2 0x1EB JUMP JUMPDEST SWAP3 SWAP2 POP POP JUMP JUMPDEST PUSH1 0x0 DUP1 REVERT JUMPDEST PUSH1 0x0 DUP2 SWAP1 POP SWAP2 SWAP1 POP JUMP JUMPDEST PUSH2 0x22D DUP2 PUSH2 0x21A JUMP JUMPDEST DUP2 EQ PUSH2 0x238 JUMPI PUSH1 0x0 DUP1 REVERT JUMPDEST POP JUMP JUMPDEST PUSH1 0x0 DUP2 CALLDATALOAD SWAP1 POP PUSH2 0x24A DUP2 PUSH2 0x224 JUMP JUMPDEST SWAP3 SWAP2 POP POP JUMP JUMPDEST PUSH1 0x0 PUSH1 0x20 DUP3 DUP5 SUB SLT ISZERO PUSH2 0x266 JUMPI PUSH2 0x265 PUSH2 0x215 JUMP JUMPDEST JUMPDEST PUSH1 0x0 PUSH2 0x274 DUP5 DUP3 DUP6 ADD PUSH2 0x23B JUMP JUMPDEST SWAP2 POP POP SWAP3 SWAP2 POP POP JUMP JUMPDEST PUSH2 0x286 DUP2 PUSH2 0x21A JUMP JUMPDEST DUP3 MSTORE POP POP JUMP JUMPDEST PUSH1 0x0 PUSH1 0x20 DUP3 ADD SWAP1 POP PUSH2 0x2A1 PUSH1 0x0 DUP4 ADD DUP5 PUSH2 0x27D JUMP JUMPDEST SWAP3 SWAP2 POP POP JUMP JUMPDEST PUSH1 0x0 PUSH1 0x40 DUP3 ADD SWAP1 POP PUSH2 0x2BC PUSH1 0x0 DUP4 ADD DUP6 PUSH2 0x27D JUMP JUMPDEST PUSH2 0x2C9 PUSH1 0x20 DUP4 ADD DUP5 PUSH2 0x27D JUMP JUMPDEST SWAP4 SWAP3 POP POP POP JUMP JUMPDEST PUSH32 0x4E487B7100000000000000000000000000000000000000000000000000000000 PUSH1 0x0 MSTORE PUSH1 0x11 PUSH1 0x4 MSTORE PUSH1 0x24 PUSH1 0x0 REVERT JUMPDEST PUSH1 0x0 PUSH2 0x30A DUP3 PUSH2 0x21A JUMP JUMPDEST SWAP2 POP PUSH2 0x315 DUP4 PUSH2 0x21A JUMP JUMPDEST SWAP3 POP DUP3 DUP3 ADD SWAP1 POP DUP1 DUP3 GT ISZERO PUSH2 0x32D JUMPI PUSH2 0x32C PUSH2 0x2D0 JUMP JUMPDEST JUMPDEST SWAP3 SWAP2 POP POP JUMP JUMPDEST PUSH1 0x0 PUSH2 0x33E DUP3 PUSH2 0x21A JUMP JUMPDEST SWAP2 POP PUSH2 0x349 DUP4 PUSH2 0x21A JUMP JUMPDEST SWAP3 POP DUP3 DUP3 MUL PUSH2 0x357 DUP2 PUSH2 0x21A JUMP JUMPDEST SWAP2 POP DUP3 DUP3 DIV DUP5 EQ DUP4 ISZERO OR PUSH2 0x36E JUMPI PUSH2 0x36D PUSH2 0x2D0 JUMP JUMPDEST JUMPDEST POP SWAP3 SWAP2 POP POP JUMP INVALID LOG2 PUSH5 0x6970667358 0x22 SLT KECCAK256 BLOBHASH 0xB3 0xDA CALLER 0xC0 0x26 0xF7 0xC7 PUSH15 0xC457EB5696B0ABA143AD01E4004930 0xAD RETURNDATACOPY ADDRESS 0x24 SHL BASEFEE PUSH25 0x8364736F6C634300081A003300000000000000000000000000 "
				},
				"gasEstimates": {
					"creation": {
						"codeDepositCost": "187800",
						"executionCost": "46605",
						"totalCost": "234405"
					},
					"external": {
						"NamedArguments(uint256)": "infinite",
						"changeBooleanFlag()": "28972",
						"displayPrivateIsFlag()": "2457",
						"displayPrivateVariable()": "2503",
						"test(uint256)": "infinite"
					}
				},
				"methodIdentifiers": {
					"NamedArguments(uint256)": "4fd959b0",
					"changeBooleanFlag()": "6d66022c",
					"displayPrivateIsFlag()": "13858db5",
					"displayPrivateVariable()": "e78a6881",
					"test(uint256)": "29e99f07"
				}
			},
			"storageLayout": {
				"storage": [
					{
						"astId": 4,
						"contract": "04 SamrtConttractBasic/SimpleVoting.sol:SimpleVoting",
						"label": "_voteCandidate",
						"offset": 0,
						"slot": "0",
						"type": "t_uint256"
					},
					{
						"astId": 7,
						"contract": "04 SamrtConttractBasic/SimpleVoting.sol:SimpleVoting",
						"label": "_isFlag",
						"offset": 0,
						"slot": "1",
						"type": "t_bool"
					}
				],
				"types": {
					"t_bool": {
						"encoding": "inplace",
						"label": "bool",
						"numberOfBytes": "1"
					},
					"t_uint256": {
						"encoding": "inplace",
						"label": "uint256",
						"numberOfBytes": "32"
					}
				}
			},
			"userdoc": {
				"kind": "user",
				"methods": {},
				"version": 1
			}
		}
	}
}