{
	"04 SamrtConttractBasic/CompoundInterestCalculator.sol": {
		"CompoundInterestCalculator": {
			"abi": [
				{
					"inputs": [
						{
							"internalType": "uint256",
							"name": "principal_",
							"type": "uint256"
						},
						{
							"internalType": "uint256",
							"name": "interestRate_",
							"type": "uint256"
						},
						{
							"internalType": "uint256",
							"name": "years_",
							"type": "uint256"
						}
					],
					"name": "calculateInteresCompound",
					"outputs": [
						{
							"internalType": "uint256",
							"name": "",
							"type": "uint256"
						}
					],
					"stateMutability": "pure",
					"type": "function"
				}
			],
			"devdoc": {
				"kind": "dev",
				"methods": {},
				"version": 1
			},
			"evm": {
				"assembly": "    /* \"04 SamrtConttractBasic/CompoundInterestCalculator.sol\":59:654  contract CompoundInterestCalculator {... */\n  mstore(0x40, 0x80)\n  callvalue\n  dup1\n  iszero\n  tag_1\n  jumpi\n  0x00\n  dup1\n  revert\ntag_1:\n  pop\n  dataSize(sub_0)\n  dup1\n  dataOffset(sub_0)\n  0x00\n  codecopy\n  0x00\n  return\nstop\n\nsub_0: assembly {\n        /* \"04 SamrtConttractBasic/CompoundInterestCalculator.sol\":59:654  contract CompoundInterestCalculator {... */\n      mstore(0x40, 0x80)\n      callvalue\n      dup1\n      iszero\n      tag_1\n      jumpi\n      0x00\n      dup1\n      revert\n    tag_1:\n      pop\n      jumpi(tag_2, lt(calldatasize, 0x04))\n      shr(0xe0, calldataload(0x00))\n      dup1\n      0x7d58c322\n      eq\n      tag_3\n      jumpi\n    tag_2:\n      0x00\n      dup1\n      revert\n        /* \"04 SamrtConttractBasic/CompoundInterestCalculator.sol\":106:651  function calculateInteresCompound(uint256 principal_, uint256 interestRate_, uint256 years_) public pure returns (uint256) {... */\n    tag_3:\n      tag_4\n      0x04\n      dup1\n      calldatasize\n      sub\n      dup2\n      add\n      swap1\n      tag_5\n      swap2\n      swap1\n      tag_6\n      jump\t// in\n    tag_5:\n      tag_7\n      jump\t// in\n    tag_4:\n      mload(0x40)\n      tag_8\n      swap2\n      swap1\n      tag_9\n      jump\t// in\n    tag_8:\n      mload(0x40)\n      dup1\n      swap2\n      sub\n      swap1\n      return\n    tag_7:\n        /* \"04 SamrtConttractBasic/CompoundInterestCalculator.sol\":220:227  uint256 */\n      0x00\n        /* \"04 SamrtConttractBasic/CompoundInterestCalculator.sol\":259:260  0 */\n      dup1\n        /* \"04 SamrtConttractBasic/CompoundInterestCalculator.sol\":246:256  principal_ */\n      dup5\n        /* \"04 SamrtConttractBasic/CompoundInterestCalculator.sol\":246:260  principal_ > 0 */\n      gt\n        /* \"04 SamrtConttractBasic/CompoundInterestCalculator.sol\":238:282  require(principal_ > 0, \"Invalid principal\") */\n      tag_11\n      jumpi\n      mload(0x40)\n      0x08c379a000000000000000000000000000000000000000000000000000000000\n      dup2\n      mstore\n      0x04\n      add\n      tag_12\n      swap1\n      tag_13\n      jump\t// in\n    tag_12:\n      mload(0x40)\n      dup1\n      swap2\n      sub\n      swap1\n      revert\n    tag_11:\n        /* \"04 SamrtConttractBasic/CompoundInterestCalculator.sol\":309:310  0 */\n      0x00\n        /* \"04 SamrtConttractBasic/CompoundInterestCalculator.sol\":300:306  years_ */\n      dup3\n        /* \"04 SamrtConttractBasic/CompoundInterestCalculator.sol\":300:310  years_ > 0 */\n      gt\n        /* \"04 SamrtConttractBasic/CompoundInterestCalculator.sol\":300:331  years_ > 0 && interestRate_ > 0 */\n      dup1\n      iszero\n      tag_14\n      jumpi\n      pop\n        /* \"04 SamrtConttractBasic/CompoundInterestCalculator.sol\":330:331  0 */\n      0x00\n        /* \"04 SamrtConttractBasic/CompoundInterestCalculator.sol\":314:327  interestRate_ */\n      dup4\n        /* \"04 SamrtConttractBasic/CompoundInterestCalculator.sol\":314:331  interestRate_ > 0 */\n      gt\n        /* \"04 SamrtConttractBasic/CompoundInterestCalculator.sol\":300:331  years_ > 0 && interestRate_ > 0 */\n    tag_14:\n        /* \"04 SamrtConttractBasic/CompoundInterestCalculator.sol\":292:365  require(years_ > 0 && interestRate_ > 0, \"Invalid Interest Rate or Year\") */\n      tag_15\n      jumpi\n      mload(0x40)\n      0x08c379a000000000000000000000000000000000000000000000000000000000\n      dup2\n      mstore\n      0x04\n      add\n      tag_16\n      swap1\n      tag_17\n      jump\t// in\n    tag_16:\n      mload(0x40)\n      dup1\n      swap2\n      sub\n      swap1\n      revert\n    tag_15:\n        /* \"04 SamrtConttractBasic/CompoundInterestCalculator.sol\":375:401  uint256 totalWithInterests */\n      0x00\n        /* \"04 SamrtConttractBasic/CompoundInterestCalculator.sol\":404:414  principal_ */\n      dup5\n        /* \"04 SamrtConttractBasic/CompoundInterestCalculator.sol\":375:414  uint256 totalWithInterests = principal_ */\n      swap1\n      pop\n        /* \"04 SamrtConttractBasic/CompoundInterestCalculator.sol\":438:447  uint256 i */\n      0x00\n        /* \"04 SamrtConttractBasic/CompoundInterestCalculator.sol\":433:610  for (uint256 i = 0; i < years_; i++) {... */\n    tag_18:\n        /* \"04 SamrtConttractBasic/CompoundInterestCalculator.sol\":457:463  years_ */\n      dup4\n        /* \"04 SamrtConttractBasic/CompoundInterestCalculator.sol\":453:454  i */\n      dup2\n        /* \"04 SamrtConttractBasic/CompoundInterestCalculator.sol\":453:463  i < years_ */\n      lt\n        /* \"04 SamrtConttractBasic/CompoundInterestCalculator.sol\":433:610  for (uint256 i = 0; i < years_; i++) {... */\n      iszero\n      tag_19\n      jumpi\n        /* \"04 SamrtConttractBasic/CompoundInterestCalculator.sol\":485:501  uint256 interest */\n      0x00\n        /* \"04 SamrtConttractBasic/CompoundInterestCalculator.sol\":543:546  100 */\n      0x64\n        /* \"04 SamrtConttractBasic/CompoundInterestCalculator.sol\":526:539  interestRate_ */\n      dup7\n        /* \"04 SamrtConttractBasic/CompoundInterestCalculator.sol\":505:523  totalWithInterests */\n      dup5\n        /* \"04 SamrtConttractBasic/CompoundInterestCalculator.sol\":505:539  totalWithInterests * interestRate_ */\n      tag_21\n      swap2\n      swap1\n      tag_22\n      jump\t// in\n    tag_21:\n        /* \"04 SamrtConttractBasic/CompoundInterestCalculator.sol\":504:546  (totalWithInterests * interestRate_) / 100 */\n      tag_23\n      swap2\n      swap1\n      tag_24\n      jump\t// in\n    tag_23:\n        /* \"04 SamrtConttractBasic/CompoundInterestCalculator.sol\":485:546  uint256 interest = (totalWithInterests * interestRate_) / 100 */\n      swap1\n      pop\n        /* \"04 SamrtConttractBasic/CompoundInterestCalculator.sol\":582:590  interest */\n      dup1\n        /* \"04 SamrtConttractBasic/CompoundInterestCalculator.sol\":560:590  totalWithInterests += interest */\n      dup4\n      tag_25\n      swap2\n      swap1\n      tag_26\n      jump\t// in\n    tag_25:\n      swap3\n      pop\n        /* \"04 SamrtConttractBasic/CompoundInterestCalculator.sol\":470:610  {... */\n      pop\n        /* \"04 SamrtConttractBasic/CompoundInterestCalculator.sol\":465:468  i++ */\n      dup1\n      dup1\n      0x01\n      add\n      swap2\n      pop\n      pop\n        /* \"04 SamrtConttractBasic/CompoundInterestCalculator.sol\":433:610  for (uint256 i = 0; i < years_; i++) {... */\n      jump(tag_18)\n    tag_19:\n      pop\n        /* \"04 SamrtConttractBasic/CompoundInterestCalculator.sol\":626:644  totalWithInterests */\n      dup1\n        /* \"04 SamrtConttractBasic/CompoundInterestCalculator.sol\":619:644  return totalWithInterests */\n      swap2\n      pop\n      pop\n        /* \"04 SamrtConttractBasic/CompoundInterestCalculator.sol\":106:651  function calculateInteresCompound(uint256 principal_, uint256 interestRate_, uint256 years_) public pure returns (uint256) {... */\n      swap4\n      swap3\n      pop\n      pop\n      pop\n      jump\t// out\n        /* \"#utility.yul\":88:205   */\n    tag_28:\n        /* \"#utility.yul\":197:198   */\n      0x00\n        /* \"#utility.yul\":194:195   */\n      dup1\n        /* \"#utility.yul\":187:199   */\n      revert\n        /* \"#utility.yul\":334:411   */\n    tag_30:\n        /* \"#utility.yul\":371:378   */\n      0x00\n        /* \"#utility.yul\":400:405   */\n      dup2\n        /* \"#utility.yul\":389:405   */\n      swap1\n      pop\n        /* \"#utility.yul\":334:411   */\n      swap2\n      swap1\n      pop\n      jump\t// out\n        /* \"#utility.yul\":417:539   */\n    tag_31:\n        /* \"#utility.yul\":490:514   */\n      tag_47\n        /* \"#utility.yul\":508:513   */\n      dup2\n        /* \"#utility.yul\":490:514   */\n      tag_30\n      jump\t// in\n    tag_47:\n        /* \"#utility.yul\":483:488   */\n      dup2\n        /* \"#utility.yul\":480:515   */\n      eq\n        /* \"#utility.yul\":470:533   */\n      tag_48\n      jumpi\n        /* \"#utility.yul\":529:530   */\n      0x00\n        /* \"#utility.yul\":526:527   */\n      dup1\n        /* \"#utility.yul\":519:531   */\n      revert\n        /* \"#utility.yul\":470:533   */\n    tag_48:\n        /* \"#utility.yul\":417:539   */\n      pop\n      jump\t// out\n        /* \"#utility.yul\":545:684   */\n    tag_32:\n        /* \"#utility.yul\":591:596   */\n      0x00\n        /* \"#utility.yul\":629:635   */\n      dup2\n        /* \"#utility.yul\":616:636   */\n      calldataload\n        /* \"#utility.yul\":607:636   */\n      swap1\n      pop\n        /* \"#utility.yul\":645:678   */\n      tag_50\n        /* \"#utility.yul\":672:677   */\n      dup2\n        /* \"#utility.yul\":645:678   */\n      tag_31\n      jump\t// in\n    tag_50:\n        /* \"#utility.yul\":545:684   */\n      swap3\n      swap2\n      pop\n      pop\n      jump\t// out\n        /* \"#utility.yul\":690:1309   */\n    tag_6:\n        /* \"#utility.yul\":767:773   */\n      0x00\n        /* \"#utility.yul\":775:781   */\n      dup1\n        /* \"#utility.yul\":783:789   */\n      0x00\n        /* \"#utility.yul\":832:834   */\n      0x60\n        /* \"#utility.yul\":820:829   */\n      dup5\n        /* \"#utility.yul\":811:818   */\n      dup7\n        /* \"#utility.yul\":807:830   */\n      sub\n        /* \"#utility.yul\":803:835   */\n      slt\n        /* \"#utility.yul\":800:919   */\n      iszero\n      tag_52\n      jumpi\n        /* \"#utility.yul\":838:917   */\n      tag_53\n      tag_28\n      jump\t// in\n    tag_53:\n        /* \"#utility.yul\":800:919   */\n    tag_52:\n        /* \"#utility.yul\":958:959   */\n      0x00\n        /* \"#utility.yul\":983:1036   */\n      tag_54\n        /* \"#utility.yul\":1028:1035   */\n      dup7\n        /* \"#utility.yul\":1019:1025   */\n      dup3\n        /* \"#utility.yul\":1008:1017   */\n      dup8\n        /* \"#utility.yul\":1004:1026   */\n      add\n        /* \"#utility.yul\":983:1036   */\n      tag_32\n      jump\t// in\n    tag_54:\n        /* \"#utility.yul\":973:1036   */\n      swap4\n      pop\n        /* \"#utility.yul\":929:1046   */\n      pop\n        /* \"#utility.yul\":1085:1087   */\n      0x20\n        /* \"#utility.yul\":1111:1164   */\n      tag_55\n        /* \"#utility.yul\":1156:1163   */\n      dup7\n        /* \"#utility.yul\":1147:1153   */\n      dup3\n        /* \"#utility.yul\":1136:1145   */\n      dup8\n        /* \"#utility.yul\":1132:1154   */\n      add\n        /* \"#utility.yul\":1111:1164   */\n      tag_32\n      jump\t// in\n    tag_55:\n        /* \"#utility.yul\":1101:1164   */\n      swap3\n      pop\n        /* \"#utility.yul\":1056:1174   */\n      pop\n        /* \"#utility.yul\":1213:1215   */\n      0x40\n        /* \"#utility.yul\":1239:1292   */\n      tag_56\n        /* \"#utility.yul\":1284:1291   */\n      dup7\n        /* \"#utility.yul\":1275:1281   */\n      dup3\n        /* \"#utility.yul\":1264:1273   */\n      dup8\n        /* \"#utility.yul\":1260:1282   */\n      add\n        /* \"#utility.yul\":1239:1292   */\n      tag_32\n      jump\t// in\n    tag_56:\n        /* \"#utility.yul\":1229:1292   */\n      swap2\n      pop\n        /* \"#utility.yul\":1184:1302   */\n      pop\n        /* \"#utility.yul\":690:1309   */\n      swap3\n      pop\n      swap3\n      pop\n      swap3\n      jump\t// out\n        /* \"#utility.yul\":1315:1433   */\n    tag_33:\n        /* \"#utility.yul\":1402:1426   */\n      tag_58\n        /* \"#utility.yul\":1420:1425   */\n      dup2\n        /* \"#utility.yul\":1402:1426   */\n      tag_30\n      jump\t// in\n    tag_58:\n        /* \"#utility.yul\":1397:1400   */\n      dup3\n        /* \"#utility.yul\":1390:1427   */\n      mstore\n        /* \"#utility.yul\":1315:1433   */\n      pop\n      pop\n      jump\t// out\n        /* \"#utility.yul\":1439:1661   */\n    tag_9:\n        /* \"#utility.yul\":1532:1536   */\n      0x00\n        /* \"#utility.yul\":1570:1572   */\n      0x20\n        /* \"#utility.yul\":1559:1568   */\n      dup3\n        /* \"#utility.yul\":1555:1573   */\n      add\n        /* \"#utility.yul\":1547:1573   */\n      swap1\n      pop\n        /* \"#utility.yul\":1583:1654   */\n      tag_60\n        /* \"#utility.yul\":1651:1652   */\n      0x00\n        /* \"#utility.yul\":1640:1649   */\n      dup4\n        /* \"#utility.yul\":1636:1653   */\n      add\n        /* \"#utility.yul\":1627:1633   */\n      dup5\n        /* \"#utility.yul\":1583:1654   */\n      tag_33\n      jump\t// in\n    tag_60:\n        /* \"#utility.yul\":1439:1661   */\n      swap3\n      swap2\n      pop\n      pop\n      jump\t// out\n        /* \"#utility.yul\":1667:1836   */\n    tag_34:\n        /* \"#utility.yul\":1751:1762   */\n      0x00\n        /* \"#utility.yul\":1785:1791   */\n      dup3\n        /* \"#utility.yul\":1780:1783   */\n      dup3\n        /* \"#utility.yul\":1773:1792   */\n      mstore\n        /* \"#utility.yul\":1825:1829   */\n      0x20\n        /* \"#utility.yul\":1820:1823   */\n      dup3\n        /* \"#utility.yul\":1816:1830   */\n      add\n        /* \"#utility.yul\":1801:1830   */\n      swap1\n      pop\n        /* \"#utility.yul\":1667:1836   */\n      swap3\n      swap2\n      pop\n      pop\n      jump\t// out\n        /* \"#utility.yul\":1842:2009   */\n    tag_35:\n        /* \"#utility.yul\":1982:2001   */\n      0x496e76616c6964207072696e636970616c000000000000000000000000000000\n        /* \"#utility.yul\":1978:1979   */\n      0x00\n        /* \"#utility.yul\":1970:1976   */\n      dup3\n        /* \"#utility.yul\":1966:1980   */\n      add\n        /* \"#utility.yul\":1959:2002   */\n      mstore\n        /* \"#utility.yul\":1842:2009   */\n      pop\n      jump\t// out\n        /* \"#utility.yul\":2015:2381   */\n    tag_36:\n        /* \"#utility.yul\":2157:2160   */\n      0x00\n        /* \"#utility.yul\":2178:2245   */\n      tag_64\n        /* \"#utility.yul\":2242:2244   */\n      0x11\n        /* \"#utility.yul\":2237:2240   */\n      dup4\n        /* \"#utility.yul\":2178:2245   */\n      tag_34\n      jump\t// in\n    tag_64:\n        /* \"#utility.yul\":2171:2245   */\n      swap2\n      pop\n        /* \"#utility.yul\":2254:2347   */\n      tag_65\n        /* \"#utility.yul\":2343:2346   */\n      dup3\n        /* \"#utility.yul\":2254:2347   */\n      tag_35\n      jump\t// in\n    tag_65:\n        /* \"#utility.yul\":2372:2374   */\n      0x20\n        /* \"#utility.yul\":2367:2370   */\n      dup3\n        /* \"#utility.yul\":2363:2375   */\n      add\n        /* \"#utility.yul\":2356:2375   */\n      swap1\n      pop\n        /* \"#utility.yul\":2015:2381   */\n      swap2\n      swap1\n      pop\n      jump\t// out\n        /* \"#utility.yul\":2387:2806   */\n    tag_13:\n        /* \"#utility.yul\":2553:2557   */\n      0x00\n        /* \"#utility.yul\":2591:2593   */\n      0x20\n        /* \"#utility.yul\":2580:2589   */\n      dup3\n        /* \"#utility.yul\":2576:2594   */\n      add\n        /* \"#utility.yul\":2568:2594   */\n      swap1\n      pop\n        /* \"#utility.yul\":2640:2649   */\n      dup2\n        /* \"#utility.yul\":2634:2638   */\n      dup2\n        /* \"#utility.yul\":2630:2650   */\n      sub\n        /* \"#utility.yul\":2626:2627   */\n      0x00\n        /* \"#utility.yul\":2615:2624   */\n      dup4\n        /* \"#utility.yul\":2611:2628   */\n      add\n        /* \"#utility.yul\":2604:2651   */\n      mstore\n        /* \"#utility.yul\":2668:2799   */\n      tag_67\n        /* \"#utility.yul\":2794:2798   */\n      dup2\n        /* \"#utility.yul\":2668:2799   */\n      tag_36\n      jump\t// in\n    tag_67:\n        /* \"#utility.yul\":2660:2799   */\n      swap1\n      pop\n        /* \"#utility.yul\":2387:2806   */\n      swap2\n      swap1\n      pop\n      jump\t// out\n        /* \"#utility.yul\":2812:2991   */\n    tag_37:\n        /* \"#utility.yul\":2952:2983   */\n      0x496e76616c696420496e7465726573742052617465206f722059656172000000\n        /* \"#utility.yul\":2948:2949   */\n      0x00\n        /* \"#utility.yul\":2940:2946   */\n      dup3\n        /* \"#utility.yul\":2936:2950   */\n      add\n        /* \"#utility.yul\":2929:2984   */\n      mstore\n        /* \"#utility.yul\":2812:2991   */\n      pop\n      jump\t// out\n        /* \"#utility.yul\":2997:3363   */\n    tag_38:\n        /* \"#utility.yul\":3139:3142   */\n      0x00\n        /* \"#utility.yul\":3160:3227   */\n      tag_70\n        /* \"#utility.yul\":3224:3226   */\n      0x1d\n        /* \"#utility.yul\":3219:3222   */\n      dup4\n        /* \"#utility.yul\":3160:3227   */\n      tag_34\n      jump\t// in\n    tag_70:\n        /* \"#utility.yul\":3153:3227   */\n      swap2\n      pop\n        /* \"#utility.yul\":3236:3329   */\n      tag_71\n        /* \"#utility.yul\":3325:3328   */\n      dup3\n        /* \"#utility.yul\":3236:3329   */\n      tag_37\n      jump\t// in\n    tag_71:\n        /* \"#utility.yul\":3354:3356   */\n      0x20\n        /* \"#utility.yul\":3349:3352   */\n      dup3\n        /* \"#utility.yul\":3345:3357   */\n      add\n        /* \"#utility.yul\":3338:3357   */\n      swap1\n      pop\n        /* \"#utility.yul\":2997:3363   */\n      swap2\n      swap1\n      pop\n      jump\t// out\n        /* \"#utility.yul\":3369:3788   */\n    tag_17:\n        /* \"#utility.yul\":3535:3539   */\n      0x00\n        /* \"#utility.yul\":3573:3575   */\n      0x20\n        /* \"#utility.yul\":3562:3571   */\n      dup3\n        /* \"#utility.yul\":3558:3576   */\n      add\n        /* \"#utility.yul\":3550:3576   */\n      swap1\n      pop\n        /* \"#utility.yul\":3622:3631   */\n      dup2\n        /* \"#utility.yul\":3616:3620   */\n      dup2\n        /* \"#utility.yul\":3612:3632   */\n      sub\n        /* \"#utility.yul\":3608:3609   */\n      0x00\n        /* \"#utility.yul\":3597:3606   */\n      dup4\n        /* \"#utility.yul\":3593:3610   */\n      add\n        /* \"#utility.yul\":3586:3633   */\n      mstore\n        /* \"#utility.yul\":3650:3781   */\n      tag_73\n        /* \"#utility.yul\":3776:3780   */\n      dup2\n        /* \"#utility.yul\":3650:3781   */\n      tag_38\n      jump\t// in\n    tag_73:\n        /* \"#utility.yul\":3642:3781   */\n      swap1\n      pop\n        /* \"#utility.yul\":3369:3788   */\n      swap2\n      swap1\n      pop\n      jump\t// out\n        /* \"#utility.yul\":3794:3974   */\n    tag_39:\n        /* \"#utility.yul\":3842:3919   */\n      0x4e487b7100000000000000000000000000000000000000000000000000000000\n        /* \"#utility.yul\":3839:3840   */\n      0x00\n        /* \"#utility.yul\":3832:3920   */\n      mstore\n        /* \"#utility.yul\":3939:3943   */\n      0x11\n        /* \"#utility.yul\":3936:3937   */\n      0x04\n        /* \"#utility.yul\":3929:3944   */\n      mstore\n        /* \"#utility.yul\":3963:3967   */\n      0x24\n        /* \"#utility.yul\":3960:3961   */\n      0x00\n        /* \"#utility.yul\":3953:3968   */\n      revert\n        /* \"#utility.yul\":3980:4390   */\n    tag_22:\n        /* \"#utility.yul\":4020:4027   */\n      0x00\n        /* \"#utility.yul\":4043:4063   */\n      tag_76\n        /* \"#utility.yul\":4061:4062   */\n      dup3\n        /* \"#utility.yul\":4043:4063   */\n      tag_30\n      jump\t// in\n    tag_76:\n        /* \"#utility.yul\":4038:4063   */\n      swap2\n      pop\n        /* \"#utility.yul\":4077:4097   */\n      tag_77\n        /* \"#utility.yul\":4095:4096   */\n      dup4\n        /* \"#utility.yul\":4077:4097   */\n      tag_30\n      jump\t// in\n    tag_77:\n        /* \"#utility.yul\":4072:4097   */\n      swap3\n      pop\n        /* \"#utility.yul\":4132:4133   */\n      dup3\n        /* \"#utility.yul\":4129:4130   */\n      dup3\n        /* \"#utility.yul\":4125:4134   */\n      mul\n        /* \"#utility.yul\":4154:4184   */\n      tag_78\n        /* \"#utility.yul\":4172:4183   */\n      dup2\n        /* \"#utility.yul\":4154:4184   */\n      tag_30\n      jump\t// in\n    tag_78:\n        /* \"#utility.yul\":4143:4184   */\n      swap2\n      pop\n        /* \"#utility.yul\":4333:4334   */\n      dup3\n        /* \"#utility.yul\":4324:4331   */\n      dup3\n        /* \"#utility.yul\":4320:4335   */\n      div\n        /* \"#utility.yul\":4317:4318   */\n      dup5\n        /* \"#utility.yul\":4314:4336   */\n      eq\n        /* \"#utility.yul\":4294:4295   */\n      dup4\n        /* \"#utility.yul\":4287:4296   */\n      iszero\n        /* \"#utility.yul\":4267:4350   */\n      or\n        /* \"#utility.yul\":4244:4383   */\n      tag_79\n      jumpi\n        /* \"#utility.yul\":4363:4381   */\n      tag_80\n      tag_39\n      jump\t// in\n    tag_80:\n        /* \"#utility.yul\":4244:4383   */\n    tag_79:\n        /* \"#utility.yul\":4028:4390   */\n      pop\n        /* \"#utility.yul\":3980:4390   */\n      swap3\n      swap2\n      pop\n      pop\n      jump\t// out\n        /* \"#utility.yul\":4396:4576   */\n    tag_40:\n        /* \"#utility.yul\":4444:4521   */\n      0x4e487b7100000000000000000000000000000000000000000000000000000000\n        /* \"#utility.yul\":4441:4442   */\n      0x00\n        /* \"#utility.yul\":4434:4522   */\n      mstore\n        /* \"#utility.yul\":4541:4545   */\n      0x12\n        /* \"#utility.yul\":4538:4539   */\n      0x04\n        /* \"#utility.yul\":4531:4546   */\n      mstore\n        /* \"#utility.yul\":4565:4569   */\n      0x24\n        /* \"#utility.yul\":4562:4563   */\n      0x00\n        /* \"#utility.yul\":4555:4570   */\n      revert\n        /* \"#utility.yul\":4582:4767   */\n    tag_24:\n        /* \"#utility.yul\":4622:4623   */\n      0x00\n        /* \"#utility.yul\":4639:4659   */\n      tag_83\n        /* \"#utility.yul\":4657:4658   */\n      dup3\n        /* \"#utility.yul\":4639:4659   */\n      tag_30\n      jump\t// in\n    tag_83:\n        /* \"#utility.yul\":4634:4659   */\n      swap2\n      pop\n        /* \"#utility.yul\":4673:4693   */\n      tag_84\n        /* \"#utility.yul\":4691:4692   */\n      dup4\n        /* \"#utility.yul\":4673:4693   */\n      tag_30\n      jump\t// in\n    tag_84:\n        /* \"#utility.yul\":4668:4693   */\n      swap3\n      pop\n        /* \"#utility.yul\":4712:4713   */\n      dup3\n        /* \"#utility.yul\":4702:4737   */\n      tag_85\n      jumpi\n        /* \"#utility.yul\":4717:4735   */\n      tag_86\n      tag_40\n      jump\t// in\n    tag_86:\n        /* \"#utility.yul\":4702:4737   */\n    tag_85:\n        /* \"#utility.yul\":4759:4760   */\n      dup3\n        /* \"#utility.yul\":4756:4757   */\n      dup3\n        /* \"#utility.yul\":4752:4761   */\n      div\n        /* \"#utility.yul\":4747:4761   */\n      swap1\n      pop\n        /* \"#utility.yul\":4582:4767   */\n      swap3\n      swap2\n      pop\n      pop\n      jump\t// out\n        /* \"#utility.yul\":4773:4964   */\n    tag_26:\n        /* \"#utility.yul\":4813:4816   */\n      0x00\n        /* \"#utility.yul\":4832:4852   */\n      tag_88\n        /* \"#utility.yul\":4850:4851   */\n      dup3\n        /* \"#utility.yul\":4832:4852   */\n      tag_30\n      jump\t// in\n    tag_88:\n        /* \"#utility.yul\":4827:4852   */\n      swap2\n      pop\n        /* \"#utility.yul\":4866:4886   */\n      tag_89\n        /* \"#utility.yul\":4884:4885   */\n      dup4\n        /* \"#utility.yul\":4866:4886   */\n      tag_30\n      jump\t// in\n    tag_89:\n        /* \"#utility.yul\":4861:4886   */\n      swap3\n      pop\n        /* \"#utility.yul\":4909:4910   */\n      dup3\n        /* \"#utility.yul\":4906:4907   */\n      dup3\n        /* \"#utility.yul\":4902:4911   */\n      add\n        /* \"#utility.yul\":4895:4911   */\n      swap1\n      pop\n        /* \"#utility.yul\":4930:4933   */\n      dup1\n        /* \"#utility.yul\":4927:4928   */\n      dup3\n        /* \"#utility.yul\":4924:4934   */\n      gt\n        /* \"#utility.yul\":4921:4957   */\n      iszero\n      tag_90\n      jumpi\n        /* \"#utility.yul\":4937:4955   */\n      tag_91\n      tag_39\n      jump\t// in\n    tag_91:\n        /* \"#utility.yul\":4921:4957   */\n    tag_90:\n        /* \"#utility.yul\":4773:4964   */\n      swap3\n      swap2\n      pop\n      pop\n      jump\t// out\n\n    auxdata: 0xa26469706673582212201251962a53a0098e2fc9c4910b5b8e94cd9a233180bd82698bd7f4cb47e6e63364736f6c634300081a0033\n}\n",
				"bytecode": {
					"linkReferences": {},
					"object": "6080604052348015600f57600080fd5b506104238061001f6000396000f3fe608060405234801561001057600080fd5b506004361061002b5760003560e01c80637d58c32214610030575b600080fd5b61004a60048036038101906100459190610182565b610060565b60405161005791906101e4565b60405180910390f35b60008084116100a4576040517f08c379a000000000000000000000000000000000000000000000000000000000815260040161009b9061025c565b60405180910390fd5b6000821180156100b45750600083115b6100f3576040517f08c379a00000000000000000000000000000000000000000000000000000000081526004016100ea906102c8565b60405180910390fd5b600084905060005b8381101561013b576000606486846101139190610317565b61011d9190610388565b9050808361012b91906103b9565b92505080806001019150506100fb565b50809150509392505050565b600080fd5b6000819050919050565b61015f8161014c565b811461016a57600080fd5b50565b60008135905061017c81610156565b92915050565b60008060006060848603121561019b5761019a610147565b5b60006101a98682870161016d565b93505060206101ba8682870161016d565b92505060406101cb8682870161016d565b9150509250925092565b6101de8161014c565b82525050565b60006020820190506101f960008301846101d5565b92915050565b600082825260208201905092915050565b7f496e76616c6964207072696e636970616c000000000000000000000000000000600082015250565b60006102466011836101ff565b915061025182610210565b602082019050919050565b6000602082019050818103600083015261027581610239565b9050919050565b7f496e76616c696420496e7465726573742052617465206f722059656172000000600082015250565b60006102b2601d836101ff565b91506102bd8261027c565b602082019050919050565b600060208201905081810360008301526102e1816102a5565b9050919050565b7f4e487b7100000000000000000000000000000000000000000000000000000000600052601160045260246000fd5b60006103228261014c565b915061032d8361014c565b925082820261033b8161014c565b91508282048414831517610352576103516102e8565b5b5092915050565b7f4e487b7100000000000000000000000000000000000000000000000000000000600052601260045260246000fd5b60006103938261014c565b915061039e8361014c565b9250826103ae576103ad610359565b5b828204905092915050565b60006103c48261014c565b91506103cf8361014c565b92508282019050808211156103e7576103e66102e8565b5b9291505056fea26469706673582212201251962a53a0098e2fc9c4910b5b8e94cd9a233180bd82698bd7f4cb47e6e63364736f6c634300081a0033",
					"opcodes": "PUSH1 0x80 PUSH1 0x40 MSTORE CALLVALUE DUP1 ISZERO PUSH1 0xF JUMPI PUSH1 0x0 DUP1 REVERT JUMPDEST POP PUSH2 0x423 DUP1 PUSH2 0x1F PUSH1 0x0 CODECOPY PUSH1 0x0 RETURN INVALID PUSH1 0x80 PUSH1 0x40 MSTORE CALLVALUE DUP1 ISZERO PUSH2 0x10 JUMPI PUSH1 0x0 DUP1 REVERT JUMPDEST POP PUSH1 0x4 CALLDATASIZE LT PUSH2 0x2B JUMPI PUSH1 0x0 CALLDATALOAD PUSH1 0xE0 SHR DUP1 PUSH4 0x7D58C322 EQ PUSH2 0x30 JUMPI JUMPDEST PUSH1 0x0 DUP1 REVERT JUMPDEST PUSH2 0x4A PUSH1 0x4 DUP1 CALLDATASIZE SUB DUP2 ADD SWAP1 PUSH2 0x45 SWAP2 SWAP1 PUSH2 0x182 JUMP JUMPDEST PUSH2 0x60 JUMP JUMPDEST PUSH1 0x40 MLOAD PUSH2 0x57 SWAP2 SWAP1 PUSH2 0x1E4 JUMP JUMPDEST PUSH1 0x40 MLOAD DUP1 SWAP2 SUB SWAP1 RETURN JUMPDEST PUSH1 0x0 DUP1 DUP5 GT PUSH2 0xA4 JUMPI PUSH1 0x40 MLOAD PUSH32 0x8C379A000000000000000000000000000000000000000000000000000000000 DUP2 MSTORE PUSH1 0x4 ADD PUSH2 0x9B SWAP1 PUSH2 0x25C JUMP JUMPDEST PUSH1 0x40 MLOAD DUP1 SWAP2 SUB SWAP1 REVERT JUMPDEST PUSH1 0x0 DUP3 GT DUP1 ISZERO PUSH2 0xB4 JUMPI POP PUSH1 0x0 DUP4 GT JUMPDEST PUSH2 0xF3 JUMPI PUSH1 0x40 MLOAD PUSH32 0x8C379A000000000000000000000000000000000000000000000000000000000 DUP2 MSTORE PUSH1 0x4 ADD PUSH2 0xEA SWAP1 PUSH2 0x2C8 JUMP JUMPDEST PUSH1 0x40 MLOAD DUP1 SWAP2 SUB SWAP1 REVERT JUMPDEST PUSH1 0x0 DUP5 SWAP1 POP PUSH1 0x0 JUMPDEST DUP4 DUP2 LT ISZERO PUSH2 0x13B JUMPI PUSH1 0x0 PUSH1 0x64 DUP7 DUP5 PUSH2 0x113 SWAP2 SWAP1 PUSH2 0x317 JUMP JUMPDEST PUSH2 0x11D SWAP2 SWAP1 PUSH2 0x388 JUMP JUMPDEST SWAP1 POP DUP1 DUP4 PUSH2 0x12B SWAP2 SWAP1 PUSH2 0x3B9 JUMP JUMPDEST SWAP3 POP POP DUP1 DUP1 PUSH1 0x1 ADD SWAP2 POP POP PUSH2 0xFB JUMP JUMPDEST POP DUP1 SWAP2 POP POP SWAP4 SWAP3 POP POP POP JUMP JUMPDEST PUSH1 0x0 DUP1 REVERT JUMPDEST PUSH1 0x0 DUP2 SWAP1 POP SWAP2 SWAP1 POP JUMP JUMPDEST PUSH2 0x15F DUP2 PUSH2 0x14C JUMP JUMPDEST DUP2 EQ PUSH2 0x16A JUMPI PUSH1 0x0 DUP1 REVERT JUMPDEST POP JUMP JUMPDEST PUSH1 0x0 DUP2 CALLDATALOAD SWAP1 POP PUSH2 0x17C DUP2 PUSH2 0x156 JUMP JUMPDEST SWAP3 SWAP2 POP POP JUMP JUMPDEST PUSH1 0x0 DUP1 PUSH1 0x0 PUSH1 0x60 DUP5 DUP7 SUB SLT ISZERO PUSH2 0x19B JUMPI PUSH2 0x19A PUSH2 0x147 JUMP JUMPDEST JUMPDEST PUSH1 0x0 PUSH2 0x1A9 DUP7 DUP3 DUP8 ADD PUSH2 0x16D JUMP JUMPDEST SWAP4 POP POP PUSH1 0x20 PUSH2 0x1BA DUP7 DUP3 DUP8 ADD PUSH2 0x16D JUMP JUMPDEST SWAP3 POP POP PUSH1 0x40 PUSH2 0x1CB DUP7 DUP3 DUP8 ADD PUSH2 0x16D JUMP JUMPDEST SWAP2 POP POP SWAP3 POP SWAP3 POP SWAP3 JUMP JUMPDEST PUSH2 0x1DE DUP2 PUSH2 0x14C JUMP JUMPDEST DUP3 MSTORE POP POP JUMP JUMPDEST PUSH1 0x0 PUSH1 0x20 DUP3 ADD SWAP1 POP PUSH2 0x1F9 PUSH1 0x0 DUP4 ADD DUP5 PUSH2 0x1D5 JUMP JUMPDEST SWAP3 SWAP2 POP POP JUMP JUMPDEST PUSH1 0x0 DUP3 DUP3 MSTORE PUSH1 0x20 DUP3 ADD SWAP1 POP SWAP3 SWAP2 POP POP JUMP JUMPDEST PUSH32 0x496E76616C6964207072696E636970616C000000000000000000000000000000 PUSH1 0x0 DUP3 ADD MSTORE POP JUMP JUMPDEST PUSH1 0x0 PUSH2 0x246 PUSH1 0x11 DUP4 PUSH2 0x1FF JUMP JUMPDEST SWAP2 POP PUSH2 0x251 DUP3 PUSH2 0x210 JUMP JUMPDEST PUSH1 0x20 DUP3 ADD SWAP1 POP SWAP2 SWAP1 POP JUMP JUMPDEST PUSH1 0x0 PUSH1 0x20 DUP3 ADD SWAP1 POP DUP2 DUP2 SUB PUSH1 0x0 DUP4 ADD MSTORE PUSH2 0x275 DUP2 PUSH2 0x239 JUMP JUMPDEST SWAP1 POP SWAP2 SWAP1 POP JUMP JUMPDEST PUSH32 0x496E76616C696420496E7465726573742052617465206F722059656172000000 PUSH1 0x0 DUP3 ADD MSTORE POP JUMP JUMPDEST PUSH1 0x0 PUSH2 0x2B2 PUSH1 0x1D DUP4 PUSH2 0x1FF JUMP JUMPDEST SWAP2 POP PUSH2 0x2BD DUP3 PUSH2 0x27C JUMP JUMPDEST PUSH1 0x20 DUP3 ADD SWAP1 POP SWAP2 SWAP1 POP JUMP JUMPDEST PUSH1 0x0 PUSH1 0x20 DUP3 ADD SWAP1 POP DUP2 DUP2 SUB PUSH1 0x0 DUP4 ADD MSTORE PUSH2 0x2E1 DUP2 PUSH2 0x2A5 JUMP JUMPDEST SWAP1 POP SWAP2 SWAP1 POP JUMP JUMPDEST PUSH32 0x4E487B7100000000000000000000000000000000000000000000000000000000 PUSH1 0x0 MSTORE PUSH1 0x11 PUSH1 0x4 MSTORE PUSH1 0x24 PUSH1 0x0 REVERT JUMPDEST PUSH1 0x0 PUSH2 0x322 DUP3 PUSH2 0x14C JUMP JUMPDEST SWAP2 POP PUSH2 0x32D DUP4 PUSH2 0x14C JUMP JUMPDEST SWAP3 POP DUP3 DUP3 MUL PUSH2 0x33B DUP2 PUSH2 0x14C JUMP JUMPDEST SWAP2 POP DUP3 DUP3 DIV DUP5 EQ DUP4 ISZERO OR PUSH2 0x352 JUMPI PUSH2 0x351 PUSH2 0x2E8 JUMP JUMPDEST JUMPDEST POP SWAP3 SWAP2 POP POP JUMP JUMPDEST PUSH32 0x4E487B7100000000000000000000000000000000000000000000000000000000 PUSH1 0x0 MSTORE PUSH1 0x12 PUSH1 0x4 MSTORE PUSH1 0x24 PUSH1 0x0 REVERT JUMPDEST PUSH1 0x0 PUSH2 0x393 DUP3 PUSH2 0x14C JUMP JUMPDEST SWAP2 POP PUSH2 0x39E DUP4 PUSH2 0x14C JUMP JUMPDEST SWAP3 POP DUP3 PUSH2 0x3AE JUMPI PUSH2 0x3AD PUSH2 0x359 JUMP JUMPDEST JUMPDEST DUP3 DUP3 DIV SWAP1 POP SWAP3 SWAP2 POP POP JUMP JUMPDEST PUSH1 0x0 PUSH2 0x3C4 DUP3 PUSH2 0x14C JUMP JUMPDEST SWAP2 POP PUSH2 0x3CF DUP4 PUSH2 0x14C JUMP JUMPDEST SWAP3 POP DUP3 DUP3 ADD SWAP1 POP DUP1 DUP3 GT ISZERO PUSH2 0x3E7 JUMPI PUSH2 0x3E6 PUSH2 0x2E8 JUMP JUMPDEST JUMPDEST SWAP3 SWAP2 POP POP JUMP INVALID LOG2 PUSH5 0x6970667358 0x22 SLT KECCAK256 SLT MLOAD SWAP7 0x2A MSTORE8 LOG0 MULMOD DUP15 0x2F 0xC9 0xC4 SWAP2 SIGNEXTEND JUMPDEST DUP15 SWAP5 0xCD SWAP11 0x23 BALANCE DUP1 0xBD DUP3 PUSH10 0x8BD7F4CB47E6E6336473 PUSH16 0x6C634300081A00330000000000000000 "
				},
				"gasEstimates": {
					"creation": {
						"codeDepositCost": "211800",
						"executionCost": "257",
						"totalCost": "212057"
					},
					"external": {
						"calculateInteresCompound(uint256,uint256,uint256)": "infinite"
					}
				},
				"methodIdentifiers": {
					"calculateInteresCompound(uint256,uint256,uint256)": "7d58c322"
				}
			},
			"storageLayout": {
				"storage": [],
				"types": null
			},
			"userdoc": {
				"kind": "user",
				"methods": {},
				"version": 1
			}
		}
	}
}