{
	"04 SamrtConttractBasic/SimpleVoting1.sol": {
		"SimpleVoting": {
			"abi": [
				{
					"inputs": [
						{
							"internalType": "uint256",
							"name": "value",
							"type": "uint256"
						},
						{
							"internalType": "uint256",
							"name": "length",
							"type": "uint256"
						}
					],
					"name": "StringsInsufficientHexLength",
					"type": "error"
				},
				{
					"inputs": [
						{
							"internalType": "string",
							"name": "raison",
							"type": "string"
						}
					],
					"name": "customError",
					"type": "error"
				},
				{
					"anonymous": false,
					"inputs": [
						{
							"indexed": true,
							"internalType": "address",
							"name": "voter",
							"type": "address"
						},
						{
							"indexed": false,
							"internalType": "enum SimpleVoting.ListCandidates",
							"name": "candidate",
							"type": "uint8"
						}
					],
					"name": "Vote",
					"type": "event"
				},
				{
					"inputs": [],
					"name": "getResult",
					"outputs": [
						{
							"internalType": "string",
							"name": "",
							"type": "string"
						}
					],
					"stateMutability": "view",
					"type": "function"
				},
				{
					"inputs": [
						{
							"internalType": "enum SimpleVoting.ListCandidates",
							"name": "candidate_",
							"type": "uint8"
						},
						{
							"internalType": "uint256",
							"name": "ageVoter_",
							"type": "uint256"
						}
					],
					"name": "vote",
					"outputs": [],
					"stateMutability": "nonpayable",
					"type": "function"
				}
			],
			"devdoc": {
				"errors": {
					"StringsInsufficientHexLength(uint256,uint256)": [
						{
							"details": "The `value` string doesn't fit in the specified `length`."
						}
					]
				},
				"kind": "dev",
				"methods": {},
				"version": 1
			},
			"evm": {
				"assembly": "    /* \"04 SamrtConttractBasic/SimpleVoting1.sol\":112:2143  contract SimpleVoting {... */\n  mstore(0x40, 0x80)\n    /* \"04 SamrtConttractBasic/SimpleVoting1.sol\":338:380  0x5B38Da6a701c568545dCfcB03FcB875f56beddC4 */\n  0x5b38da6a701c568545dcfcb03fcb875f56beddc4\n    /* \"04 SamrtConttractBasic/SimpleVoting1.sol\":312:380  address private  _owner = 0x5B38Da6a701c568545dCfcB03FcB875f56beddC4 */\n  0x03\n  exp(0x0100, 0x00)\n  dup2\n  sload\n  dup2\n  0xffffffffffffffffffffffffffffffffffffffff\n  mul\n  not\n  and\n  swap1\n  dup4\n  0xffffffffffffffffffffffffffffffffffffffff\n  and\n  mul\n  or\n  swap1\n  sstore\n  pop\n    /* \"04 SamrtConttractBasic/SimpleVoting1.sol\":418:460  0xAb8483F64d9C6d1EcF9b849Ae677dD3315835cb2 */\n  0xab8483f64d9c6d1ecf9b849ae677dd3315835cb2\n    /* \"04 SamrtConttractBasic/SimpleVoting1.sol\":386:460  address private  _cadidateOne = 0xAb8483F64d9C6d1EcF9b849Ae677dD3315835cb2 */\n  0x04\n  exp(0x0100, 0x00)\n  dup2\n  sload\n  dup2\n  0xffffffffffffffffffffffffffffffffffffffff\n  mul\n  not\n  and\n  swap1\n  dup4\n  0xffffffffffffffffffffffffffffffffffffffff\n  and\n  mul\n  or\n  swap1\n  sstore\n  pop\n    /* \"04 SamrtConttractBasic/SimpleVoting1.sol\":498:540  0x4B20993Bc481177ec7E8f571ceCaE8A9e22C02db */\n  0x4b20993bc481177ec7e8f571cecae8a9e22c02db\n    /* \"04 SamrtConttractBasic/SimpleVoting1.sol\":466:540  address private  _cadidateTwo = 0x4B20993Bc481177ec7E8f571ceCaE8A9e22C02db */\n  0x05\n  exp(0x0100, 0x00)\n  dup2\n  sload\n  dup2\n  0xffffffffffffffffffffffffffffffffffffffff\n  mul\n  not\n  and\n  swap1\n  dup4\n  0xffffffffffffffffffffffffffffffffffffffff\n  and\n  mul\n  or\n  swap1\n  sstore\n  pop\n    /* \"04 SamrtConttractBasic/SimpleVoting1.sol\":546:610  address[2] private  allCandidates = [_cadidateOne, _cadidateTwo] */\n  mload(0x40)\n  dup1\n  0x40\n  add\n  0x40\n  mstore\n  dup1\n    /* \"04 SamrtConttractBasic/SimpleVoting1.sol\":583:595  _cadidateOne */\n  0x04\n  0x00\n  swap1\n  sload\n  swap1\n  0x0100\n  exp\n  swap1\n  div\n  0xffffffffffffffffffffffffffffffffffffffff\n  and\n    /* \"04 SamrtConttractBasic/SimpleVoting1.sol\":546:610  address[2] private  allCandidates = [_cadidateOne, _cadidateTwo] */\n  0xffffffffffffffffffffffffffffffffffffffff\n  and\n  0xffffffffffffffffffffffffffffffffffffffff\n  and\n  dup2\n  mstore\n  0x20\n  add\n    /* \"04 SamrtConttractBasic/SimpleVoting1.sol\":597:609  _cadidateTwo */\n  0x05\n  0x00\n  swap1\n  sload\n  swap1\n  0x0100\n  exp\n  swap1\n  div\n  0xffffffffffffffffffffffffffffffffffffffff\n  and\n    /* \"04 SamrtConttractBasic/SimpleVoting1.sol\":546:610  address[2] private  allCandidates = [_cadidateOne, _cadidateTwo] */\n  0xffffffffffffffffffffffffffffffffffffffff\n  and\n  0xffffffffffffffffffffffffffffffffffffffff\n  and\n  dup2\n  mstore\n  pop\n  0x06\n  swap1\n  0x02\n  tag_1\n  swap3\n  swap2\n  swap1\n  tag_2\n  jump\t// in\ntag_1:\n  pop\n    /* \"04 SamrtConttractBasic/SimpleVoting1.sol\":112:2143  contract SimpleVoting {... */\n  callvalue\n  dup1\n  iszero\n  tag_3\n  jumpi\n  0x00\n  dup1\n  revert\ntag_3:\n  pop\n  jump(tag_4)\ntag_2:\n  dup3\n  0x02\n  dup2\n  add\n  swap3\n  dup3\n  iszero\n  tag_5\n  jumpi\n  swap2\n  0x20\n  mul\n  dup3\n  add\ntag_6:\n  dup3\n  dup2\n  gt\n  iszero\n  tag_7\n  jumpi\n  dup3\n  mload\n  dup3\n  exp(0x0100, 0x00)\n  dup2\n  sload\n  dup2\n  0xffffffffffffffffffffffffffffffffffffffff\n  mul\n  not\n  and\n  swap1\n  dup4\n  0xffffffffffffffffffffffffffffffffffffffff\n  and\n  mul\n  or\n  swap1\n  sstore\n  pop\n  swap2\n  0x20\n  add\n  swap2\n  swap1\n  0x01\n  add\n  swap1\n  jump(tag_6)\ntag_7:\ntag_5:\n  pop\n  swap1\n  pop\n  tag_8\n  swap2\n  swap1\n  tag_9\n  jump\t// in\ntag_8:\n  pop\n  swap1\n  jump\t// out\ntag_9:\ntag_10:\n  dup1\n  dup3\n  gt\n  iszero\n  tag_11\n  jumpi\n  0x00\n  dup2\n  0x00\n  swap1\n  sstore\n  pop\n  0x01\n  add\n  jump(tag_10)\ntag_11:\n  pop\n  swap1\n  jump\t// out\ntag_4:\n  dataSize(sub_0)\n  dup1\n  dataOffset(sub_0)\n  0x00\n  codecopy\n  0x00\n  return\nstop\n\nsub_0: assembly {\n        /* \"04 SamrtConttractBasic/SimpleVoting1.sol\":112:2143  contract SimpleVoting {... */\n      mstore(0x40, 0x80)\n      callvalue\n      dup1\n      iszero\n      tag_1\n      jumpi\n      0x00\n      dup1\n      revert\n    tag_1:\n      pop\n      jumpi(tag_2, lt(calldatasize, 0x04))\n      shr(0xe0, calldataload(0x00))\n      dup1\n      0xd3f29ace\n      eq\n      tag_3\n      jumpi\n      dup1\n      0xde292789\n      eq\n      tag_4\n      jumpi\n    tag_2:\n      0x00\n      dup1\n      revert\n        /* \"04 SamrtConttractBasic/SimpleVoting1.sol\":826:1624  function vote(ListCandidates candidate_, uint ageVoter_) public {... */\n    tag_3:\n      tag_5\n      0x04\n      dup1\n      calldatasize\n      sub\n      dup2\n      add\n      swap1\n      tag_6\n      swap2\n      swap1\n      tag_7\n      jump\t// in\n    tag_6:\n      tag_8\n      jump\t// in\n    tag_5:\n      stop\n        /* \"04 SamrtConttractBasic/SimpleVoting1.sol\":1693:2141  function getResult() public view returns (string memory){... */\n    tag_4:\n      tag_9\n      tag_10\n      jump\t// in\n    tag_9:\n      mload(0x40)\n      tag_11\n      swap2\n      swap1\n      tag_12\n      jump\t// in\n    tag_11:\n      mload(0x40)\n      dup1\n      swap2\n      sub\n      swap1\n      return\n        /* \"04 SamrtConttractBasic/SimpleVoting1.sol\":826:1624  function vote(ListCandidates candidate_, uint ageVoter_) public {... */\n    tag_8:\n        /* \"04 SamrtConttractBasic/SimpleVoting1.sol\":908:918  msg.sender */\n      caller\n        /* \"04 SamrtConttractBasic/SimpleVoting1.sol\":900:905  voter */\n      0x02\n      0x00\n        /* \"04 SamrtConttractBasic/SimpleVoting1.sol\":900:918  voter = msg.sender */\n      0x0100\n      exp\n      dup2\n      sload\n      dup2\n      0xffffffffffffffffffffffffffffffffffffffff\n      mul\n      not\n      and\n      swap1\n      dup4\n      0xffffffffffffffffffffffffffffffffffffffff\n      and\n      mul\n      or\n      swap1\n      sstore\n      pop\n        /* \"04 SamrtConttractBasic/SimpleVoting1.sol\":943:945  18 */\n      0x12\n        /* \"04 SamrtConttractBasic/SimpleVoting1.sol\":932:941  ageVoter_ */\n      dup2\n        /* \"04 SamrtConttractBasic/SimpleVoting1.sol\":932:945  ageVoter_ <18 */\n      lt\n        /* \"04 SamrtConttractBasic/SimpleVoting1.sol\":928:1021  if (ageVoter_ <18){... */\n      iszero\n      tag_14\n      jumpi\n        /* \"04 SamrtConttractBasic/SimpleVoting1.sol\":967:1010  customError(\"You need to be older than 18\") */\n      mload(0x40)\n      0x2beb23b400000000000000000000000000000000000000000000000000000000\n      dup2\n      mstore\n      0x04\n      add\n      tag_15\n      swap1\n      tag_16\n      jump\t// in\n    tag_15:\n      mload(0x40)\n      dup1\n      swap2\n      sub\n      swap1\n      revert\n        /* \"04 SamrtConttractBasic/SimpleVoting1.sol\":928:1021  if (ageVoter_ <18){... */\n    tag_14:\n        /* \"04 SamrtConttractBasic/SimpleVoting1.sol\":1039:1045  voters */\n      0x00\n        /* \"04 SamrtConttractBasic/SimpleVoting1.sol\":1039:1057  voters[msg.sender] */\n      dup1\n        /* \"04 SamrtConttractBasic/SimpleVoting1.sol\":1046:1056  msg.sender */\n      caller\n        /* \"04 SamrtConttractBasic/SimpleVoting1.sol\":1039:1057  voters[msg.sender] */\n      0xffffffffffffffffffffffffffffffffffffffff\n      and\n      0xffffffffffffffffffffffffffffffffffffffff\n      and\n      dup2\n      mstore\n      0x20\n      add\n      swap1\n      dup2\n      mstore\n      0x20\n      add\n      0x00\n      keccak256\n      0x00\n      swap1\n      sload\n      swap1\n      0x0100\n      exp\n      swap1\n      div\n      0xff\n      and\n        /* \"04 SamrtConttractBasic/SimpleVoting1.sol\":1038:1057  !voters[msg.sender] */\n      iszero\n        /* \"04 SamrtConttractBasic/SimpleVoting1.sol\":1030:1084  require(!voters[msg.sender], \"You have already voted\") */\n      tag_17\n      jumpi\n      mload(0x40)\n      0x08c379a000000000000000000000000000000000000000000000000000000000\n      dup2\n      mstore\n      0x04\n      add\n      tag_18\n      swap1\n      tag_19\n      jump\t// in\n    tag_18:\n      mload(0x40)\n      dup1\n      swap2\n      sub\n      swap1\n      revert\n    tag_17:\n        /* \"04 SamrtConttractBasic/SimpleVoting1.sol\":1111:1117  _owner */\n      0x03\n      0x00\n      swap1\n      sload\n      swap1\n      0x0100\n      exp\n      swap1\n      div\n      0xffffffffffffffffffffffffffffffffffffffff\n      and\n        /* \"04 SamrtConttractBasic/SimpleVoting1.sol\":1102:1117  voter != _owner */\n      0xffffffffffffffffffffffffffffffffffffffff\n      and\n        /* \"04 SamrtConttractBasic/SimpleVoting1.sol\":1102:1107  voter */\n      0x02\n      0x00\n      swap1\n      sload\n      swap1\n      0x0100\n      exp\n      swap1\n      div\n      0xffffffffffffffffffffffffffffffffffffffff\n      and\n        /* \"04 SamrtConttractBasic/SimpleVoting1.sol\":1102:1117  voter != _owner */\n      0xffffffffffffffffffffffffffffffffffffffff\n      and\n      sub\n        /* \"04 SamrtConttractBasic/SimpleVoting1.sol\":1094:1137  require(voter != _owner, \"Owner cant vote\") */\n      tag_20\n      jumpi\n      mload(0x40)\n      0x08c379a000000000000000000000000000000000000000000000000000000000\n      dup2\n      mstore\n      0x04\n      add\n      tag_21\n      swap1\n      tag_22\n      jump\t// in\n    tag_21:\n      mload(0x40)\n      dup1\n      swap2\n      sub\n      swap1\n      revert\n    tag_20:\n        /* \"04 SamrtConttractBasic/SimpleVoting1.sol\":1169:1170  5 */\n      0x05\n        /* \"04 SamrtConttractBasic/SimpleVoting1.sol\":1155:1165  voterCount */\n      sload(0x09)\n        /* \"04 SamrtConttractBasic/SimpleVoting1.sol\":1155:1170  voterCount <= 5 */\n      gt\n      iszero\n        /* \"04 SamrtConttractBasic/SimpleVoting1.sol\":1147:1190  require(voterCount <= 5, \"Voting finished\") */\n      tag_23\n      jumpi\n      mload(0x40)\n      0x08c379a000000000000000000000000000000000000000000000000000000000\n      dup2\n      mstore\n      0x04\n      add\n      tag_24\n      swap1\n      tag_25\n      jump\t// in\n    tag_24:\n      mload(0x40)\n      dup1\n      swap2\n      sub\n      swap1\n      revert\n    tag_23:\n        /* \"04 SamrtConttractBasic/SimpleVoting1.sol\":1216:1220  true */\n      0x01\n        /* \"04 SamrtConttractBasic/SimpleVoting1.sol\":1200:1206  voters */\n      0x00\n        /* \"04 SamrtConttractBasic/SimpleVoting1.sol\":1200:1213  voters[voter] */\n      dup1\n        /* \"04 SamrtConttractBasic/SimpleVoting1.sol\":1207:1212  voter */\n      0x02\n      0x00\n      swap1\n      sload\n      swap1\n      0x0100\n      exp\n      swap1\n      div\n      0xffffffffffffffffffffffffffffffffffffffff\n      and\n        /* \"04 SamrtConttractBasic/SimpleVoting1.sol\":1200:1213  voters[voter] */\n      0xffffffffffffffffffffffffffffffffffffffff\n      and\n      0xffffffffffffffffffffffffffffffffffffffff\n      and\n      dup2\n      mstore\n      0x20\n      add\n      swap1\n      dup2\n      mstore\n      0x20\n      add\n      0x00\n      keccak256\n      0x00\n        /* \"04 SamrtConttractBasic/SimpleVoting1.sol\":1200:1220  voters[voter] = true */\n      0x0100\n      exp\n      dup2\n      sload\n      dup2\n      0xff\n      mul\n      not\n      and\n      swap1\n      dup4\n      iszero\n      iszero\n      mul\n      or\n      swap1\n      sstore\n      pop\n        /* \"04 SamrtConttractBasic/SimpleVoting1.sol\":1230:1239  allVoters */\n      0x08\n        /* \"04 SamrtConttractBasic/SimpleVoting1.sol\":1245:1250  voter */\n      0x02\n      0x00\n      swap1\n      sload\n      swap1\n      0x0100\n      exp\n      swap1\n      div\n      0xffffffffffffffffffffffffffffffffffffffff\n      and\n        /* \"04 SamrtConttractBasic/SimpleVoting1.sol\":1230:1251  allVoters.push(voter) */\n      swap1\n      dup1\n      0x01\n      dup2\n      sload\n      add\n      dup1\n      dup3\n      sstore\n      dup1\n      swap2\n      pop\n      pop\n      0x01\n      swap1\n      sub\n      swap1\n      0x00\n      mstore\n      keccak256(0x00, 0x20)\n      add\n      0x00\n      swap1\n      swap2\n      swap1\n      swap2\n      swap1\n      swap2\n      0x0100\n      exp\n      dup2\n      sload\n      dup2\n      0xffffffffffffffffffffffffffffffffffffffff\n      mul\n      not\n      and\n      swap1\n      dup4\n      0xffffffffffffffffffffffffffffffffffffffff\n      and\n      mul\n      or\n      swap1\n      sstore\n      pop\n        /* \"04 SamrtConttractBasic/SimpleVoting1.sol\":1261:1271  voterCount */\n      0x09\n      0x00\n        /* \"04 SamrtConttractBasic/SimpleVoting1.sol\":1261:1273  voterCount++ */\n      dup2\n      sload\n      dup1\n      swap3\n      swap2\n      swap1\n      tag_27\n      swap1\n      tag_28\n      jump\t// in\n    tag_27:\n      swap2\n      swap1\n      pop\n      sstore\n      pop\n        /* \"04 SamrtConttractBasic/SimpleVoting1.sol\":1319:1329  candidate_ */\n      dup2\n        /* \"04 SamrtConttractBasic/SimpleVoting1.sol\":1288:1329  ListCandidates._cadidateOne == candidate_ */\n      0x01\n      dup2\n      gt\n      iszero\n      tag_29\n      jumpi\n      tag_30\n      tag_31\n      jump\t// in\n    tag_30:\n    tag_29:\n        /* \"04 SamrtConttractBasic/SimpleVoting1.sol\":1288:1315  ListCandidates._cadidateOne */\n      0x00\n        /* \"04 SamrtConttractBasic/SimpleVoting1.sol\":1288:1329  ListCandidates._cadidateOne == candidate_ */\n      0x01\n      dup2\n      gt\n      iszero\n      tag_32\n      jumpi\n      tag_33\n      tag_31\n      jump\t// in\n    tag_33:\n    tag_32:\n      sub\n        /* \"04 SamrtConttractBasic/SimpleVoting1.sol\":1284:1618  if (ListCandidates._cadidateOne == candidate_) {... */\n      tag_34\n      jumpi\n        /* \"04 SamrtConttractBasic/SimpleVoting1.sol\":1345:1362  candidatesResults */\n      0x01\n        /* \"04 SamrtConttractBasic/SimpleVoting1.sol\":1345:1376  candidatesResults[_cadidateOne] */\n      0x00\n        /* \"04 SamrtConttractBasic/SimpleVoting1.sol\":1363:1375  _cadidateOne */\n      0x04\n      0x00\n      swap1\n      sload\n      swap1\n      0x0100\n      exp\n      swap1\n      div\n      0xffffffffffffffffffffffffffffffffffffffff\n      and\n        /* \"04 SamrtConttractBasic/SimpleVoting1.sol\":1345:1376  candidatesResults[_cadidateOne] */\n      0xffffffffffffffffffffffffffffffffffffffff\n      and\n      0xffffffffffffffffffffffffffffffffffffffff\n      and\n      dup2\n      mstore\n      0x20\n      add\n      swap1\n      dup2\n      mstore\n      0x20\n      add\n      0x00\n      keccak256\n      0x00\n        /* \"04 SamrtConttractBasic/SimpleVoting1.sol\":1345:1378  candidatesResults[_cadidateOne]++ */\n      dup2\n      sload\n      dup1\n      swap3\n      swap2\n      swap1\n      tag_35\n      swap1\n      tag_28\n      jump\t// in\n    tag_35:\n      swap2\n      swap1\n      pop\n      sstore\n      pop\n        /* \"04 SamrtConttractBasic/SimpleVoting1.sol\":1402:1407  voter */\n      0x02\n      0x00\n      swap1\n      sload\n      swap1\n      0x0100\n      exp\n      swap1\n      div\n      0xffffffffffffffffffffffffffffffffffffffff\n      and\n        /* \"04 SamrtConttractBasic/SimpleVoting1.sol\":1397:1437  Vote(voter, ListCandidates._cadidateOne) */\n      0xffffffffffffffffffffffffffffffffffffffff\n      and\n      0x5579f99982aa469ba774030720ca9b44b56718c5ac9274754502a3c044811c73\n        /* \"04 SamrtConttractBasic/SimpleVoting1.sol\":1409:1436  ListCandidates._cadidateOne */\n      0x00\n        /* \"04 SamrtConttractBasic/SimpleVoting1.sol\":1397:1437  Vote(voter, ListCandidates._cadidateOne) */\n      mload(0x40)\n      tag_36\n      swap2\n      swap1\n      tag_37\n      jump\t// in\n    tag_36:\n      mload(0x40)\n      dup1\n      swap2\n      sub\n      swap1\n      log2\n        /* \"04 SamrtConttractBasic/SimpleVoting1.sol\":1284:1618  if (ListCandidates._cadidateOne == candidate_) {... */\n      jump(tag_38)\n    tag_34:\n        /* \"04 SamrtConttractBasic/SimpleVoting1.sol\":1489:1499  candidate_ */\n      dup2\n        /* \"04 SamrtConttractBasic/SimpleVoting1.sol\":1458:1499  ListCandidates._cadidateTwo == candidate_ */\n      0x01\n      dup2\n      gt\n      iszero\n      tag_39\n      jumpi\n      tag_40\n      tag_31\n      jump\t// in\n    tag_40:\n    tag_39:\n        /* \"04 SamrtConttractBasic/SimpleVoting1.sol\":1458:1485  ListCandidates._cadidateTwo */\n      0x01\n        /* \"04 SamrtConttractBasic/SimpleVoting1.sol\":1458:1499  ListCandidates._cadidateTwo == candidate_ */\n      dup1\n      dup2\n      gt\n      iszero\n      tag_41\n      jumpi\n      tag_42\n      tag_31\n      jump\t// in\n    tag_42:\n    tag_41:\n      sub\n        /* \"04 SamrtConttractBasic/SimpleVoting1.sol\":1454:1618  if (ListCandidates._cadidateTwo == candidate_) {... */\n      tag_43\n      jumpi\n        /* \"04 SamrtConttractBasic/SimpleVoting1.sol\":1515:1532  candidatesResults */\n      0x01\n        /* \"04 SamrtConttractBasic/SimpleVoting1.sol\":1515:1546  candidatesResults[_cadidateTwo] */\n      0x00\n        /* \"04 SamrtConttractBasic/SimpleVoting1.sol\":1533:1545  _cadidateTwo */\n      0x05\n      0x00\n      swap1\n      sload\n      swap1\n      0x0100\n      exp\n      swap1\n      div\n      0xffffffffffffffffffffffffffffffffffffffff\n      and\n        /* \"04 SamrtConttractBasic/SimpleVoting1.sol\":1515:1546  candidatesResults[_cadidateTwo] */\n      0xffffffffffffffffffffffffffffffffffffffff\n      and\n      0xffffffffffffffffffffffffffffffffffffffff\n      and\n      dup2\n      mstore\n      0x20\n      add\n      swap1\n      dup2\n      mstore\n      0x20\n      add\n      0x00\n      keccak256\n      0x00\n        /* \"04 SamrtConttractBasic/SimpleVoting1.sol\":1515:1548  candidatesResults[_cadidateTwo]++ */\n      dup2\n      sload\n      dup1\n      swap3\n      swap2\n      swap1\n      tag_44\n      swap1\n      tag_28\n      jump\t// in\n    tag_44:\n      swap2\n      swap1\n      pop\n      sstore\n      pop\n        /* \"04 SamrtConttractBasic/SimpleVoting1.sol\":1572:1577  voter */\n      0x02\n      0x00\n      swap1\n      sload\n      swap1\n      0x0100\n      exp\n      swap1\n      div\n      0xffffffffffffffffffffffffffffffffffffffff\n      and\n        /* \"04 SamrtConttractBasic/SimpleVoting1.sol\":1567:1607  Vote(voter, ListCandidates._cadidateTwo) */\n      0xffffffffffffffffffffffffffffffffffffffff\n      and\n      0x5579f99982aa469ba774030720ca9b44b56718c5ac9274754502a3c044811c73\n        /* \"04 SamrtConttractBasic/SimpleVoting1.sol\":1579:1606  ListCandidates._cadidateTwo */\n      0x01\n        /* \"04 SamrtConttractBasic/SimpleVoting1.sol\":1567:1607  Vote(voter, ListCandidates._cadidateTwo) */\n      mload(0x40)\n      tag_45\n      swap2\n      swap1\n      tag_37\n      jump\t// in\n    tag_45:\n      mload(0x40)\n      dup1\n      swap2\n      sub\n      swap1\n      log2\n        /* \"04 SamrtConttractBasic/SimpleVoting1.sol\":1454:1618  if (ListCandidates._cadidateTwo == candidate_) {... */\n    tag_43:\n        /* \"04 SamrtConttractBasic/SimpleVoting1.sol\":1284:1618  if (ListCandidates._cadidateOne == candidate_) {... */\n    tag_38:\n        /* \"04 SamrtConttractBasic/SimpleVoting1.sol\":826:1624  function vote(ListCandidates candidate_, uint ageVoter_) public {... */\n      pop\n      pop\n      jump\t// out\n        /* \"04 SamrtConttractBasic/SimpleVoting1.sol\":1693:2141  function getResult() public view returns (string memory){... */\n    tag_10:\n        /* \"04 SamrtConttractBasic/SimpleVoting1.sol\":1735:1748  string memory */\n      0x60\n        /* \"04 SamrtConttractBasic/SimpleVoting1.sol\":1759:1779  string memory result */\n      dup1\n        /* \"04 SamrtConttractBasic/SimpleVoting1.sol\":1794:1803  uint256 i */\n      0x00\n        /* \"04 SamrtConttractBasic/SimpleVoting1.sol\":1789:2112  for (uint256 i = 0; i < allCandidates.length; i++) {... */\n    tag_47:\n        /* \"04 SamrtConttractBasic/SimpleVoting1.sol\":1813:1833  allCandidates.length */\n      0x02\n        /* \"04 SamrtConttractBasic/SimpleVoting1.sol\":1809:1810  i */\n      dup2\n        /* \"04 SamrtConttractBasic/SimpleVoting1.sol\":1809:1833  i < allCandidates.length */\n      lt\n        /* \"04 SamrtConttractBasic/SimpleVoting1.sol\":1789:2112  for (uint256 i = 0; i < allCandidates.length; i++) {... */\n      iszero\n      tag_48\n      jumpi\n        /* \"04 SamrtConttractBasic/SimpleVoting1.sol\":1854:1878  string memory strAddress */\n      0x00\n        /* \"04 SamrtConttractBasic/SimpleVoting1.sol\":1881:1911  allCandidates[i].toHexString() */\n      tag_50\n        /* \"04 SamrtConttractBasic/SimpleVoting1.sol\":1881:1894  allCandidates */\n      0x06\n        /* \"04 SamrtConttractBasic/SimpleVoting1.sol\":1895:1896  i */\n      dup4\n        /* \"04 SamrtConttractBasic/SimpleVoting1.sol\":1881:1897  allCandidates[i] */\n      0x02\n      dup2\n      lt\n      tag_51\n      jumpi\n      tag_52\n      tag_53\n      jump\t// in\n    tag_52:\n    tag_51:\n      add\n      0x00\n      swap1\n      sload\n      swap1\n      0x0100\n      exp\n      swap1\n      div\n      0xffffffffffffffffffffffffffffffffffffffff\n      and\n        /* \"04 SamrtConttractBasic/SimpleVoting1.sol\":1881:1909  allCandidates[i].toHexString */\n      0xffffffffffffffffffffffffffffffffffffffff\n      and\n      tag_55\n        /* \"04 SamrtConttractBasic/SimpleVoting1.sol\":1881:1911  allCandidates[i].toHexString() */\n      jump\t// in\n    tag_50:\n        /* \"04 SamrtConttractBasic/SimpleVoting1.sol\":1854:1911  string memory strAddress = allCandidates[i].toHexString() */\n      swap1\n      pop\n        /* \"04 SamrtConttractBasic/SimpleVoting1.sol\":1925:1948  string memory strNumber */\n      0x00\n        /* \"04 SamrtConttractBasic/SimpleVoting1.sol\":1951:1997  candidatesResults[allCandidates[i]].toString() */\n      tag_56\n        /* \"04 SamrtConttractBasic/SimpleVoting1.sol\":1951:1968  candidatesResults */\n      0x01\n        /* \"04 SamrtConttractBasic/SimpleVoting1.sol\":1951:1986  candidatesResults[allCandidates[i]] */\n      0x00\n        /* \"04 SamrtConttractBasic/SimpleVoting1.sol\":1969:1982  allCandidates */\n      0x06\n        /* \"04 SamrtConttractBasic/SimpleVoting1.sol\":1983:1984  i */\n      dup7\n        /* \"04 SamrtConttractBasic/SimpleVoting1.sol\":1969:1985  allCandidates[i] */\n      0x02\n      dup2\n      lt\n      tag_57\n      jumpi\n      tag_58\n      tag_53\n      jump\t// in\n    tag_58:\n    tag_57:\n      add\n      0x00\n      swap1\n      sload\n      swap1\n      0x0100\n      exp\n      swap1\n      div\n      0xffffffffffffffffffffffffffffffffffffffff\n      and\n        /* \"04 SamrtConttractBasic/SimpleVoting1.sol\":1951:1986  candidatesResults[allCandidates[i]] */\n      0xffffffffffffffffffffffffffffffffffffffff\n      and\n      0xffffffffffffffffffffffffffffffffffffffff\n      and\n      dup2\n      mstore\n      0x20\n      add\n      swap1\n      dup2\n      mstore\n      0x20\n      add\n      0x00\n      keccak256\n      sload\n        /* \"04 SamrtConttractBasic/SimpleVoting1.sol\":1951:1995  candidatesResults[allCandidates[i]].toString */\n      tag_60\n        /* \"04 SamrtConttractBasic/SimpleVoting1.sol\":1951:1997  candidatesResults[allCandidates[i]].toString() */\n      jump\t// in\n    tag_56:\n        /* \"04 SamrtConttractBasic/SimpleVoting1.sol\":1925:1997  string memory strNumber = candidatesResults[allCandidates[i]].toString() */\n      swap1\n      pop\n        /* \"04 SamrtConttractBasic/SimpleVoting1.sol\":2044:2050  result */\n      dup4\n        /* \"04 SamrtConttractBasic/SimpleVoting1.sol\":2052:2062  strAddress */\n      dup3\n        /* \"04 SamrtConttractBasic/SimpleVoting1.sol\":2071:2080  strNumber */\n      dup3\n        /* \"04 SamrtConttractBasic/SimpleVoting1.sol\":2027:2100  abi.encodePacked(result, strAddress, \" = \", strNumber, \"\\n\", \"---------\") */\n      add(0x20, mload(0x40))\n      tag_61\n      swap4\n      swap3\n      swap2\n      swap1\n      tag_62\n      jump\t// in\n    tag_61:\n      mload(0x40)\n      0x20\n      dup2\n      dup4\n      sub\n      sub\n      dup2\n      mstore\n      swap1\n      0x40\n      mstore\n        /* \"04 SamrtConttractBasic/SimpleVoting1.sol\":2011:2101  result = string(abi.encodePacked(result, strAddress, \" = \", strNumber, \"\\n\", \"---------\")) */\n      swap4\n      pop\n        /* \"04 SamrtConttractBasic/SimpleVoting1.sol\":1840:2112  {... */\n      pop\n      pop\n        /* \"04 SamrtConttractBasic/SimpleVoting1.sol\":1835:1838  i++ */\n      dup1\n      dup1\n      0x01\n      add\n      swap2\n      pop\n      pop\n        /* \"04 SamrtConttractBasic/SimpleVoting1.sol\":1789:2112  for (uint256 i = 0; i < allCandidates.length; i++) {... */\n      jump(tag_47)\n    tag_48:\n      pop\n        /* \"04 SamrtConttractBasic/SimpleVoting1.sol\":2128:2134  result */\n      dup1\n        /* \"04 SamrtConttractBasic/SimpleVoting1.sol\":2121:2134  return result */\n      swap2\n      pop\n      pop\n        /* \"04 SamrtConttractBasic/SimpleVoting1.sol\":1693:2141  function getResult() public view returns (string memory){... */\n      swap1\n      jump\t// out\n        /* \"@openzeppelin/contracts/utils/Strings.sol\":2973:3121  function toHexString(address addr) internal pure returns (string memory) {... */\n    tag_55:\n        /* \"@openzeppelin/contracts/utils/Strings.sol\":3031:3044  string memory */\n      0x60\n        /* \"@openzeppelin/contracts/utils/Strings.sol\":3063:3114  toHexString(uint256(uint160(addr)), ADDRESS_LENGTH) */\n      tag_64\n        /* \"@openzeppelin/contracts/utils/Strings.sol\":3091:3095  addr */\n      dup3\n        /* \"@openzeppelin/contracts/utils/Strings.sol\":3075:3097  uint256(uint160(addr)) */\n      0xffffffffffffffffffffffffffffffffffffffff\n      and\n        /* \"@openzeppelin/contracts/utils/Strings.sol\":448:450  20 */\n      0x14\n        /* \"@openzeppelin/contracts/utils/Strings.sol\":3063:3114  toHexString(uint256(uint160(addr)), ADDRESS_LENGTH) */\n      0xff\n      and\n        /* \"@openzeppelin/contracts/utils/Strings.sol\":3063:3074  toHexString */\n      tag_65\n        /* \"@openzeppelin/contracts/utils/Strings.sol\":3063:3114  toHexString(uint256(uint160(addr)), ADDRESS_LENGTH) */\n      jump\t// in\n    tag_64:\n        /* \"@openzeppelin/contracts/utils/Strings.sol\":3056:3114  return toHexString(uint256(uint160(addr)), ADDRESS_LENGTH) */\n      swap1\n      pop\n        /* \"@openzeppelin/contracts/utils/Strings.sol\":2973:3121  function toHexString(address addr) internal pure returns (string memory) {... */\n      swap2\n      swap1\n      pop\n      jump\t// out\n        /* \"@openzeppelin/contracts/utils/Strings.sol\":987:1619  function toString(uint256 value) internal pure returns (string memory) {... */\n    tag_60:\n        /* \"@openzeppelin/contracts/utils/Strings.sol\":1043:1056  string memory */\n      0x60\n        /* \"@openzeppelin/contracts/utils/Strings.sol\":1092:1106  uint256 length */\n      0x00\n        /* \"@openzeppelin/contracts/utils/Strings.sol\":1129:1130  1 */\n      0x01\n        /* \"@openzeppelin/contracts/utils/Strings.sol\":1109:1126  Math.log10(value) */\n      tag_67\n        /* \"@openzeppelin/contracts/utils/Strings.sol\":1120:1125  value */\n      dup5\n        /* \"@openzeppelin/contracts/utils/Strings.sol\":1109:1119  Math.log10 */\n      tag_68\n        /* \"@openzeppelin/contracts/utils/Strings.sol\":1109:1126  Math.log10(value) */\n      jump\t// in\n    tag_67:\n        /* \"@openzeppelin/contracts/utils/Strings.sol\":1109:1130  Math.log10(value) + 1 */\n      add\n        /* \"@openzeppelin/contracts/utils/Strings.sol\":1092:1130  uint256 length = Math.log10(value) + 1 */\n      swap1\n      pop\n        /* \"@openzeppelin/contracts/utils/Strings.sol\":1144:1164  string memory buffer */\n      0x00\n        /* \"@openzeppelin/contracts/utils/Strings.sol\":1178:1184  length */\n      dup2\n        /* \"@openzeppelin/contracts/utils/Strings.sol\":1167:1185  new string(length) */\n      0xffffffffffffffff\n      dup2\n      gt\n      iszero\n      tag_69\n      jumpi\n      tag_70\n      tag_71\n      jump\t// in\n    tag_70:\n    tag_69:\n      mload(0x40)\n      swap1\n      dup1\n      dup3\n      mstore\n      dup1\n      0x1f\n      add\n      not(0x1f)\n      and\n      0x20\n      add\n      dup3\n      add\n      0x40\n      mstore\n      dup1\n      iszero\n      tag_72\n      jumpi\n      dup2\n      0x20\n      add\n      0x01\n      dup3\n      mul\n      dup1\n      calldatasize\n      dup4\n      calldatacopy\n      dup1\n      dup3\n      add\n      swap2\n      pop\n      pop\n      swap1\n      pop\n    tag_72:\n      pop\n        /* \"@openzeppelin/contracts/utils/Strings.sol\":1144:1185  string memory buffer = new string(length) */\n      swap1\n      pop\n        /* \"@openzeppelin/contracts/utils/Strings.sol\":1199:1210  uint256 ptr */\n      0x00\n        /* \"@openzeppelin/contracts/utils/Strings.sol\":1294:1300  length */\n      dup3\n        /* \"@openzeppelin/contracts/utils/Strings.sol\":1290:1292  32 */\n      0x20\n        /* \"@openzeppelin/contracts/utils/Strings.sol\":1286:1301  add(32, length) */\n      add\n        /* \"@openzeppelin/contracts/utils/Strings.sol\":1278:1284  buffer */\n      dup3\n        /* \"@openzeppelin/contracts/utils/Strings.sol\":1274:1302  add(buffer, add(32, length)) */\n      add\n        /* \"@openzeppelin/contracts/utils/Strings.sol\":1267:1302  ptr := add(buffer, add(32, length)) */\n      swap1\n      pop\n        /* \"@openzeppelin/contracts/utils/Strings.sol\":1329:1576  while (true) {... */\n    tag_73:\n        /* \"@openzeppelin/contracts/utils/Strings.sol\":1336:1340  true */\n      0x01\n        /* \"@openzeppelin/contracts/utils/Strings.sol\":1329:1576  while (true) {... */\n      iszero\n      tag_74\n      jumpi\n        /* \"@openzeppelin/contracts/utils/Strings.sol\":1360:1365  ptr-- */\n      dup1\n      dup1\n      0x01\n      swap1\n      sub\n      swap2\n      pop\n      pop\n        /* \"@openzeppelin/contracts/utils/Strings.sol\":1464:1474  HEX_DIGITS */\n      0x3031323334353637383961626364656600000000000000000000000000000000\n        /* \"@openzeppelin/contracts/utils/Strings.sol\":1459:1461  10 */\n      0x0a\n        /* \"@openzeppelin/contracts/utils/Strings.sol\":1452:1457  value */\n      dup7\n        /* \"@openzeppelin/contracts/utils/Strings.sol\":1448:1462  mod(value, 10) */\n      mod\n        /* \"@openzeppelin/contracts/utils/Strings.sol\":1443:1475  byte(mod(value, 10), HEX_DIGITS) */\n      byte\n        /* \"@openzeppelin/contracts/utils/Strings.sol\":1438:1441  ptr */\n      dup2\n        /* \"@openzeppelin/contracts/utils/Strings.sol\":1430:1476  mstore8(ptr, byte(mod(value, 10), HEX_DIGITS)) */\n      mstore8\n        /* \"@openzeppelin/contracts/utils/Strings.sol\":1520:1522  10 */\n      0x0a\n        /* \"@openzeppelin/contracts/utils/Strings.sol\":1511:1522  value /= 10 */\n      dup6\n      dup2\n      tag_75\n      jumpi\n      tag_76\n      tag_77\n      jump\t// in\n    tag_76:\n    tag_75:\n      div\n      swap5\n      pop\n        /* \"@openzeppelin/contracts/utils/Strings.sol\":1553:1554  0 */\n      0x00\n        /* \"@openzeppelin/contracts/utils/Strings.sol\":1544:1549  value */\n      dup6\n        /* \"@openzeppelin/contracts/utils/Strings.sol\":1544:1554  value == 0 */\n      sub\n        /* \"@openzeppelin/contracts/utils/Strings.sol\":1329:1576  while (true) {... */\n      tag_73\n        /* \"@openzeppelin/contracts/utils/Strings.sol\":1540:1561  if (value == 0) break */\n      jumpi\n        /* \"@openzeppelin/contracts/utils/Strings.sol\":1329:1576  while (true) {... */\n    tag_74:\n        /* \"@openzeppelin/contracts/utils/Strings.sol\":1596:1602  buffer */\n      dup2\n        /* \"@openzeppelin/contracts/utils/Strings.sol\":1589:1602  return buffer */\n      swap4\n      pop\n      pop\n      pop\n      pop\n        /* \"@openzeppelin/contracts/utils/Strings.sol\":987:1619  function toString(uint256 value) internal pure returns (string memory) {... */\n      swap2\n      swap1\n      pop\n      jump\t// out\n        /* \"@openzeppelin/contracts/utils/Strings.sol\":2289:2814  function toHexString(uint256 value, uint256 length) internal pure returns (string memory) {... */\n    tag_65:\n        /* \"@openzeppelin/contracts/utils/Strings.sol\":2364:2377  string memory */\n      0x60\n        /* \"@openzeppelin/contracts/utils/Strings.sol\":2389:2407  uint256 localValue */\n      0x00\n        /* \"@openzeppelin/contracts/utils/Strings.sol\":2410:2415  value */\n      dup4\n        /* \"@openzeppelin/contracts/utils/Strings.sol\":2389:2415  uint256 localValue = value */\n      swap1\n      pop\n        /* \"@openzeppelin/contracts/utils/Strings.sol\":2425:2444  bytes memory buffer */\n      0x00\n        /* \"@openzeppelin/contracts/utils/Strings.sol\":2470:2471  2 */\n      0x02\n        /* \"@openzeppelin/contracts/utils/Strings.sol\":2461:2467  length */\n      dup5\n        /* \"@openzeppelin/contracts/utils/Strings.sol\":2457:2458  2 */\n      0x02\n        /* \"@openzeppelin/contracts/utils/Strings.sol\":2457:2467  2 * length */\n      tag_80\n      swap2\n      swap1\n      tag_81\n      jump\t// in\n    tag_80:\n        /* \"@openzeppelin/contracts/utils/Strings.sol\":2457:2471  2 * length + 2 */\n      tag_82\n      swap2\n      swap1\n      tag_83\n      jump\t// in\n    tag_82:\n        /* \"@openzeppelin/contracts/utils/Strings.sol\":2447:2472  new bytes(2 * length + 2) */\n      0xffffffffffffffff\n      dup2\n      gt\n      iszero\n      tag_84\n      jumpi\n      tag_85\n      tag_71\n      jump\t// in\n    tag_85:\n    tag_84:\n      mload(0x40)\n      swap1\n      dup1\n      dup3\n      mstore\n      dup1\n      0x1f\n      add\n      not(0x1f)\n      and\n      0x20\n      add\n      dup3\n      add\n      0x40\n      mstore\n      dup1\n      iszero\n      tag_86\n      jumpi\n      dup2\n      0x20\n      add\n      0x01\n      dup3\n      mul\n      dup1\n      calldatasize\n      dup4\n      calldatacopy\n      dup1\n      dup3\n      add\n      swap2\n      pop\n      pop\n      swap1\n      pop\n    tag_86:\n      pop\n        /* \"@openzeppelin/contracts/utils/Strings.sol\":2425:2472  bytes memory buffer = new bytes(2 * length + 2) */\n      swap1\n      pop\n        /* \"@openzeppelin/contracts/utils/Strings.sol\":2482:2497  buffer[0] = \"0\" */\n      0x3000000000000000000000000000000000000000000000000000000000000000\n        /* \"@openzeppelin/contracts/utils/Strings.sol\":2482:2488  buffer */\n      dup2\n        /* \"@openzeppelin/contracts/utils/Strings.sol\":2489:2490  0 */\n      0x00\n        /* \"@openzeppelin/contracts/utils/Strings.sol\":2482:2491  buffer[0] */\n      dup2\n      mload\n      dup2\n      lt\n      tag_87\n      jumpi\n      tag_88\n      tag_53\n      jump\t// in\n    tag_88:\n    tag_87:\n      0x20\n      add\n      add\n        /* \"@openzeppelin/contracts/utils/Strings.sol\":2482:2497  buffer[0] = \"0\" */\n      swap1\n      not(0xffffffffffffffffffffffffffffffffffffffffffffffffffffffffffffff)\n      and\n      swap1\n      dup2\n      0x00\n      byte\n      swap1\n      mstore8\n      pop\n        /* \"@openzeppelin/contracts/utils/Strings.sol\":2507:2522  buffer[1] = \"x\" */\n      0x7800000000000000000000000000000000000000000000000000000000000000\n        /* \"@openzeppelin/contracts/utils/Strings.sol\":2507:2513  buffer */\n      dup2\n        /* \"@openzeppelin/contracts/utils/Strings.sol\":2514:2515  1 */\n      0x01\n        /* \"@openzeppelin/contracts/utils/Strings.sol\":2507:2516  buffer[1] */\n      dup2\n      mload\n      dup2\n      lt\n      tag_89\n      jumpi\n      tag_90\n      tag_53\n      jump\t// in\n    tag_90:\n    tag_89:\n      0x20\n      add\n      add\n        /* \"@openzeppelin/contracts/utils/Strings.sol\":2507:2522  buffer[1] = \"x\" */\n      swap1\n      not(0xffffffffffffffffffffffffffffffffffffffffffffffffffffffffffffff)\n      and\n      swap1\n      dup2\n      0x00\n      byte\n      swap1\n      mstore8\n      pop\n        /* \"@openzeppelin/contracts/utils/Strings.sol\":2537:2546  uint256 i */\n      0x00\n        /* \"@openzeppelin/contracts/utils/Strings.sol\":2562:2563  1 */\n      0x01\n        /* \"@openzeppelin/contracts/utils/Strings.sol\":2553:2559  length */\n      dup6\n        /* \"@openzeppelin/contracts/utils/Strings.sol\":2549:2550  2 */\n      0x02\n        /* \"@openzeppelin/contracts/utils/Strings.sol\":2549:2559  2 * length */\n      tag_94\n      swap2\n      swap1\n      tag_81\n      jump\t// in\n    tag_94:\n        /* \"@openzeppelin/contracts/utils/Strings.sol\":2549:2563  2 * length + 1 */\n      tag_95\n      swap2\n      swap1\n      tag_83\n      jump\t// in\n    tag_95:\n        /* \"@openzeppelin/contracts/utils/Strings.sol\":2537:2563  uint256 i = 2 * length + 1 */\n      swap1\n      pop\n        /* \"@openzeppelin/contracts/utils/Strings.sol\":2532:2672  for (uint256 i = 2 * length + 1; i > 1; --i) {... */\n    tag_91:\n        /* \"@openzeppelin/contracts/utils/Strings.sol\":2569:2570  1 */\n      0x01\n        /* \"@openzeppelin/contracts/utils/Strings.sol\":2565:2566  i */\n      dup2\n        /* \"@openzeppelin/contracts/utils/Strings.sol\":2565:2570  i > 1 */\n      gt\n        /* \"@openzeppelin/contracts/utils/Strings.sol\":2532:2672  for (uint256 i = 2 * length + 1; i > 1; --i) {... */\n      iszero\n      tag_92\n      jumpi\n        /* \"@openzeppelin/contracts/utils/Strings.sol\":2603:2613  HEX_DIGITS */\n      0x3031323334353637383961626364656600000000000000000000000000000000\n        /* \"@openzeppelin/contracts/utils/Strings.sol\":2627:2630  0xf */\n      0x0f\n        /* \"@openzeppelin/contracts/utils/Strings.sol\":2614:2624  localValue */\n      dup5\n        /* \"@openzeppelin/contracts/utils/Strings.sol\":2614:2630  localValue & 0xf */\n      and\n        /* \"@openzeppelin/contracts/utils/Strings.sol\":2603:2631  HEX_DIGITS[localValue & 0xf] */\n      0x10\n      dup2\n      lt\n      tag_96\n      jumpi\n      tag_97\n      tag_53\n      jump\t// in\n    tag_97:\n    tag_96:\n      byte\n      0xf8\n      shl\n        /* \"@openzeppelin/contracts/utils/Strings.sol\":2591:2597  buffer */\n      dup3\n        /* \"@openzeppelin/contracts/utils/Strings.sol\":2598:2599  i */\n      dup3\n        /* \"@openzeppelin/contracts/utils/Strings.sol\":2591:2600  buffer[i] */\n      dup2\n      mload\n      dup2\n      lt\n      tag_98\n      jumpi\n      tag_99\n      tag_53\n      jump\t// in\n    tag_99:\n    tag_98:\n      0x20\n      add\n      add\n        /* \"@openzeppelin/contracts/utils/Strings.sol\":2591:2631  buffer[i] = HEX_DIGITS[localValue & 0xf] */\n      swap1\n      not(0xffffffffffffffffffffffffffffffffffffffffffffffffffffffffffffff)\n      and\n      swap1\n      dup2\n      0x00\n      byte\n      swap1\n      mstore8\n      pop\n        /* \"@openzeppelin/contracts/utils/Strings.sol\":2660:2661  4 */\n      0x04\n        /* \"@openzeppelin/contracts/utils/Strings.sol\":2645:2661  localValue >>= 4 */\n      dup4\n      swap1\n      shr\n      swap3\n      pop\n        /* \"@openzeppelin/contracts/utils/Strings.sol\":2572:2575  --i */\n      dup1\n      tag_100\n      swap1\n      tag_101\n      jump\t// in\n    tag_100:\n      swap1\n      pop\n        /* \"@openzeppelin/contracts/utils/Strings.sol\":2532:2672  for (uint256 i = 2 * length + 1; i > 1; --i) {... */\n      jump(tag_91)\n    tag_92:\n      pop\n        /* \"@openzeppelin/contracts/utils/Strings.sol\":2699:2700  0 */\n      0x00\n        /* \"@openzeppelin/contracts/utils/Strings.sol\":2685:2695  localValue */\n      dup3\n        /* \"@openzeppelin/contracts/utils/Strings.sol\":2685:2700  localValue != 0 */\n      eq\n        /* \"@openzeppelin/contracts/utils/Strings.sol\":2681:2777  if (localValue != 0) {... */\n      tag_102\n      jumpi\n        /* \"@openzeppelin/contracts/utils/Strings.sol\":2752:2757  value */\n      dup5\n        /* \"@openzeppelin/contracts/utils/Strings.sol\":2759:2765  length */\n      dup5\n        /* \"@openzeppelin/contracts/utils/Strings.sol\":2723:2766  StringsInsufficientHexLength(value, length) */\n      mload(0x40)\n      0xe22e27eb00000000000000000000000000000000000000000000000000000000\n      dup2\n      mstore\n      0x04\n      add\n      tag_103\n      swap3\n      swap2\n      swap1\n      tag_104\n      jump\t// in\n    tag_103:\n      mload(0x40)\n      dup1\n      swap2\n      sub\n      swap1\n      revert\n        /* \"@openzeppelin/contracts/utils/Strings.sol\":2681:2777  if (localValue != 0) {... */\n    tag_102:\n        /* \"@openzeppelin/contracts/utils/Strings.sol\":2800:2806  buffer */\n      dup1\n        /* \"@openzeppelin/contracts/utils/Strings.sol\":2786:2807  return string(buffer) */\n      swap3\n      pop\n      pop\n      pop\n        /* \"@openzeppelin/contracts/utils/Strings.sol\":2289:2814  function toHexString(uint256 value, uint256 length) internal pure returns (string memory) {... */\n      swap3\n      swap2\n      pop\n      pop\n      jump\t// out\n        /* \"@openzeppelin/contracts/utils/math/Math.sol\":25316:26232  function log10(uint256 value) internal pure returns (uint256) {... */\n    tag_68:\n        /* \"@openzeppelin/contracts/utils/math/Math.sol\":25369:25376  uint256 */\n      0x00\n        /* \"@openzeppelin/contracts/utils/math/Math.sol\":25388:25402  uint256 result */\n      dup1\n        /* \"@openzeppelin/contracts/utils/math/Math.sol\":25405:25406  0 */\n      0x00\n        /* \"@openzeppelin/contracts/utils/math/Math.sol\":25388:25406  uint256 result = 0 */\n      swap1\n      pop\n        /* \"@openzeppelin/contracts/utils/math/Math.sol\":25453:25461  10 ** 64 */\n      0x184f03e93ff9f4daa797ed6e38ed64bf6a1f010000000000000000\n        /* \"@openzeppelin/contracts/utils/math/Math.sol\":25444:25449  value */\n      dup4\n        /* \"@openzeppelin/contracts/utils/math/Math.sol\":25444:25461  value >= 10 ** 64 */\n      lt\n        /* \"@openzeppelin/contracts/utils/math/Math.sol\":25440:25543  if (value >= 10 ** 64) {... */\n      tag_106\n      jumpi\n        /* \"@openzeppelin/contracts/utils/math/Math.sol\":25490:25498  10 ** 64 */\n      0x184f03e93ff9f4daa797ed6e38ed64bf6a1f010000000000000000\n        /* \"@openzeppelin/contracts/utils/math/Math.sol\":25481:25498  value /= 10 ** 64 */\n      dup4\n      dup2\n      tag_107\n      jumpi\n      tag_108\n      tag_77\n      jump\t// in\n    tag_108:\n    tag_107:\n      div\n      swap3\n      pop\n        /* \"@openzeppelin/contracts/utils/math/Math.sol\":25526:25528  64 */\n      0x40\n        /* \"@openzeppelin/contracts/utils/math/Math.sol\":25516:25528  result += 64 */\n      dup2\n      add\n      swap1\n      pop\n        /* \"@openzeppelin/contracts/utils/math/Math.sol\":25440:25543  if (value >= 10 ** 64) {... */\n    tag_106:\n        /* \"@openzeppelin/contracts/utils/math/Math.sol\":25569:25577  10 ** 32 */\n      0x04ee2d6d415b85acef8100000000\n        /* \"@openzeppelin/contracts/utils/math/Math.sol\":25560:25565  value */\n      dup4\n        /* \"@openzeppelin/contracts/utils/math/Math.sol\":25560:25577  value >= 10 ** 32 */\n      lt\n        /* \"@openzeppelin/contracts/utils/math/Math.sol\":25556:25659  if (value >= 10 ** 32) {... */\n      tag_109\n      jumpi\n        /* \"@openzeppelin/contracts/utils/math/Math.sol\":25606:25614  10 ** 32 */\n      0x04ee2d6d415b85acef8100000000\n        /* \"@openzeppelin/contracts/utils/math/Math.sol\":25597:25614  value /= 10 ** 32 */\n      dup4\n      dup2\n      tag_110\n      jumpi\n      tag_111\n      tag_77\n      jump\t// in\n    tag_111:\n    tag_110:\n      div\n      swap3\n      pop\n        /* \"@openzeppelin/contracts/utils/math/Math.sol\":25642:25644  32 */\n      0x20\n        /* \"@openzeppelin/contracts/utils/math/Math.sol\":25632:25644  result += 32 */\n      dup2\n      add\n      swap1\n      pop\n        /* \"@openzeppelin/contracts/utils/math/Math.sol\":25556:25659  if (value >= 10 ** 32) {... */\n    tag_109:\n        /* \"@openzeppelin/contracts/utils/math/Math.sol\":25685:25693  10 ** 16 */\n      0x2386f26fc10000\n        /* \"@openzeppelin/contracts/utils/math/Math.sol\":25676:25681  value */\n      dup4\n        /* \"@openzeppelin/contracts/utils/math/Math.sol\":25676:25693  value >= 10 ** 16 */\n      lt\n        /* \"@openzeppelin/contracts/utils/math/Math.sol\":25672:25775  if (value >= 10 ** 16) {... */\n      tag_112\n      jumpi\n        /* \"@openzeppelin/contracts/utils/math/Math.sol\":25722:25730  10 ** 16 */\n      0x2386f26fc10000\n        /* \"@openzeppelin/contracts/utils/math/Math.sol\":25713:25730  value /= 10 ** 16 */\n      dup4\n      dup2\n      tag_113\n      jumpi\n      tag_114\n      tag_77\n      jump\t// in\n    tag_114:\n    tag_113:\n      div\n      swap3\n      pop\n        /* \"@openzeppelin/contracts/utils/math/Math.sol\":25758:25760  16 */\n      0x10\n        /* \"@openzeppelin/contracts/utils/math/Math.sol\":25748:25760  result += 16 */\n      dup2\n      add\n      swap1\n      pop\n        /* \"@openzeppelin/contracts/utils/math/Math.sol\":25672:25775  if (value >= 10 ** 16) {... */\n    tag_112:\n        /* \"@openzeppelin/contracts/utils/math/Math.sol\":25801:25808  10 ** 8 */\n      0x05f5e100\n        /* \"@openzeppelin/contracts/utils/math/Math.sol\":25792:25797  value */\n      dup4\n        /* \"@openzeppelin/contracts/utils/math/Math.sol\":25792:25808  value >= 10 ** 8 */\n      lt\n        /* \"@openzeppelin/contracts/utils/math/Math.sol\":25788:25888  if (value >= 10 ** 8) {... */\n      tag_115\n      jumpi\n        /* \"@openzeppelin/contracts/utils/math/Math.sol\":25837:25844  10 ** 8 */\n      0x05f5e100\n        /* \"@openzeppelin/contracts/utils/math/Math.sol\":25828:25844  value /= 10 ** 8 */\n      dup4\n      dup2\n      tag_116\n      jumpi\n      tag_117\n      tag_77\n      jump\t// in\n    tag_117:\n    tag_116:\n      div\n      swap3\n      pop\n        /* \"@openzeppelin/contracts/utils/math/Math.sol\":25872:25873  8 */\n      0x08\n        /* \"@openzeppelin/contracts/utils/math/Math.sol\":25862:25873  result += 8 */\n      dup2\n      add\n      swap1\n      pop\n        /* \"@openzeppelin/contracts/utils/math/Math.sol\":25788:25888  if (value >= 10 ** 8) {... */\n    tag_115:\n        /* \"@openzeppelin/contracts/utils/math/Math.sol\":25914:25921  10 ** 4 */\n      0x2710\n        /* \"@openzeppelin/contracts/utils/math/Math.sol\":25905:25910  value */\n      dup4\n        /* \"@openzeppelin/contracts/utils/math/Math.sol\":25905:25921  value >= 10 ** 4 */\n      lt\n        /* \"@openzeppelin/contracts/utils/math/Math.sol\":25901:26001  if (value >= 10 ** 4) {... */\n      tag_118\n      jumpi\n        /* \"@openzeppelin/contracts/utils/math/Math.sol\":25950:25957  10 ** 4 */\n      0x2710\n        /* \"@openzeppelin/contracts/utils/math/Math.sol\":25941:25957  value /= 10 ** 4 */\n      dup4\n      dup2\n      tag_119\n      jumpi\n      tag_120\n      tag_77\n      jump\t// in\n    tag_120:\n    tag_119:\n      div\n      swap3\n      pop\n        /* \"@openzeppelin/contracts/utils/math/Math.sol\":25985:25986  4 */\n      0x04\n        /* \"@openzeppelin/contracts/utils/math/Math.sol\":25975:25986  result += 4 */\n      dup2\n      add\n      swap1\n      pop\n        /* \"@openzeppelin/contracts/utils/math/Math.sol\":25901:26001  if (value >= 10 ** 4) {... */\n    tag_118:\n        /* \"@openzeppelin/contracts/utils/math/Math.sol\":26027:26034  10 ** 2 */\n      0x64\n        /* \"@openzeppelin/contracts/utils/math/Math.sol\":26018:26023  value */\n      dup4\n        /* \"@openzeppelin/contracts/utils/math/Math.sol\":26018:26034  value >= 10 ** 2 */\n      lt\n        /* \"@openzeppelin/contracts/utils/math/Math.sol\":26014:26114  if (value >= 10 ** 2) {... */\n      tag_121\n      jumpi\n        /* \"@openzeppelin/contracts/utils/math/Math.sol\":26063:26070  10 ** 2 */\n      0x64\n        /* \"@openzeppelin/contracts/utils/math/Math.sol\":26054:26070  value /= 10 ** 2 */\n      dup4\n      dup2\n      tag_122\n      jumpi\n      tag_123\n      tag_77\n      jump\t// in\n    tag_123:\n    tag_122:\n      div\n      swap3\n      pop\n        /* \"@openzeppelin/contracts/utils/math/Math.sol\":26098:26099  2 */\n      0x02\n        /* \"@openzeppelin/contracts/utils/math/Math.sol\":26088:26099  result += 2 */\n      dup2\n      add\n      swap1\n      pop\n        /* \"@openzeppelin/contracts/utils/math/Math.sol\":26014:26114  if (value >= 10 ** 2) {... */\n    tag_121:\n        /* \"@openzeppelin/contracts/utils/math/Math.sol\":26140:26147  10 ** 1 */\n      0x0a\n        /* \"@openzeppelin/contracts/utils/math/Math.sol\":26131:26136  value */\n      dup4\n        /* \"@openzeppelin/contracts/utils/math/Math.sol\":26131:26147  value >= 10 ** 1 */\n      lt\n        /* \"@openzeppelin/contracts/utils/math/Math.sol\":26127:26193  if (value >= 10 ** 1) {... */\n      tag_124\n      jumpi\n        /* \"@openzeppelin/contracts/utils/math/Math.sol\":26177:26178  1 */\n      0x01\n        /* \"@openzeppelin/contracts/utils/math/Math.sol\":26167:26178  result += 1 */\n      dup2\n      add\n      swap1\n      pop\n        /* \"@openzeppelin/contracts/utils/math/Math.sol\":26127:26193  if (value >= 10 ** 1) {... */\n    tag_124:\n        /* \"@openzeppelin/contracts/utils/math/Math.sol\":26219:26225  result */\n      dup1\n        /* \"@openzeppelin/contracts/utils/math/Math.sol\":26212:26225  return result */\n      swap2\n      pop\n      pop\n        /* \"@openzeppelin/contracts/utils/math/Math.sol\":25316:26232  function log10(uint256 value) internal pure returns (uint256) {... */\n      swap2\n      swap1\n      pop\n      jump\t// out\n        /* \"#utility.yul\":88:205   */\n    tag_126:\n        /* \"#utility.yul\":197:198   */\n      0x00\n        /* \"#utility.yul\":194:195   */\n      dup1\n        /* \"#utility.yul\":187:199   */\n      revert\n        /* \"#utility.yul\":334:450   */\n    tag_128:\n        /* \"#utility.yul\":424:425   */\n      0x02\n        /* \"#utility.yul\":417:422   */\n      dup2\n        /* \"#utility.yul\":414:426   */\n      lt\n        /* \"#utility.yul\":404:444   */\n      tag_165\n      jumpi\n        /* \"#utility.yul\":440:441   */\n      0x00\n        /* \"#utility.yul\":437:438   */\n      dup1\n        /* \"#utility.yul\":430:442   */\n      revert\n        /* \"#utility.yul\":404:444   */\n    tag_165:\n        /* \"#utility.yul\":334:450   */\n      pop\n      jump\t// out\n        /* \"#utility.yul\":456:629   */\n    tag_129:\n        /* \"#utility.yul\":519:524   */\n      0x00\n        /* \"#utility.yul\":557:563   */\n      dup2\n        /* \"#utility.yul\":544:564   */\n      calldataload\n        /* \"#utility.yul\":535:564   */\n      swap1\n      pop\n        /* \"#utility.yul\":573:623   */\n      tag_167\n        /* \"#utility.yul\":617:622   */\n      dup2\n        /* \"#utility.yul\":573:623   */\n      tag_128\n      jump\t// in\n    tag_167:\n        /* \"#utility.yul\":456:629   */\n      swap3\n      swap2\n      pop\n      pop\n      jump\t// out\n        /* \"#utility.yul\":635:712   */\n    tag_130:\n        /* \"#utility.yul\":672:679   */\n      0x00\n        /* \"#utility.yul\":701:706   */\n      dup2\n        /* \"#utility.yul\":690:706   */\n      swap1\n      pop\n        /* \"#utility.yul\":635:712   */\n      swap2\n      swap1\n      pop\n      jump\t// out\n        /* \"#utility.yul\":718:840   */\n    tag_131:\n        /* \"#utility.yul\":791:815   */\n      tag_170\n        /* \"#utility.yul\":809:814   */\n      dup2\n        /* \"#utility.yul\":791:815   */\n      tag_130\n      jump\t// in\n    tag_170:\n        /* \"#utility.yul\":784:789   */\n      dup2\n        /* \"#utility.yul\":781:816   */\n      eq\n        /* \"#utility.yul\":771:834   */\n      tag_171\n      jumpi\n        /* \"#utility.yul\":830:831   */\n      0x00\n        /* \"#utility.yul\":827:828   */\n      dup1\n        /* \"#utility.yul\":820:832   */\n      revert\n        /* \"#utility.yul\":771:834   */\n    tag_171:\n        /* \"#utility.yul\":718:840   */\n      pop\n      jump\t// out\n        /* \"#utility.yul\":846:985   */\n    tag_132:\n        /* \"#utility.yul\":892:897   */\n      0x00\n        /* \"#utility.yul\":930:936   */\n      dup2\n        /* \"#utility.yul\":917:937   */\n      calldataload\n        /* \"#utility.yul\":908:937   */\n      swap1\n      pop\n        /* \"#utility.yul\":946:979   */\n      tag_173\n        /* \"#utility.yul\":973:978   */\n      dup2\n        /* \"#utility.yul\":946:979   */\n      tag_131\n      jump\t// in\n    tag_173:\n        /* \"#utility.yul\":846:985   */\n      swap3\n      swap2\n      pop\n      pop\n      jump\t// out\n        /* \"#utility.yul\":991:1499   */\n    tag_7:\n        /* \"#utility.yul\":1076:1082   */\n      0x00\n        /* \"#utility.yul\":1084:1090   */\n      dup1\n        /* \"#utility.yul\":1133:1135   */\n      0x40\n        /* \"#utility.yul\":1121:1130   */\n      dup4\n        /* \"#utility.yul\":1112:1119   */\n      dup6\n        /* \"#utility.yul\":1108:1131   */\n      sub\n        /* \"#utility.yul\":1104:1136   */\n      slt\n        /* \"#utility.yul\":1101:1220   */\n      iszero\n      tag_175\n      jumpi\n        /* \"#utility.yul\":1139:1218   */\n      tag_176\n      tag_126\n      jump\t// in\n    tag_176:\n        /* \"#utility.yul\":1101:1220   */\n    tag_175:\n        /* \"#utility.yul\":1259:1260   */\n      0x00\n        /* \"#utility.yul\":1284:1354   */\n      tag_177\n        /* \"#utility.yul\":1346:1353   */\n      dup6\n        /* \"#utility.yul\":1337:1343   */\n      dup3\n        /* \"#utility.yul\":1326:1335   */\n      dup7\n        /* \"#utility.yul\":1322:1344   */\n      add\n        /* \"#utility.yul\":1284:1354   */\n      tag_129\n      jump\t// in\n    tag_177:\n        /* \"#utility.yul\":1274:1354   */\n      swap3\n      pop\n        /* \"#utility.yul\":1230:1364   */\n      pop\n        /* \"#utility.yul\":1403:1405   */\n      0x20\n        /* \"#utility.yul\":1429:1482   */\n      tag_178\n        /* \"#utility.yul\":1474:1481   */\n      dup6\n        /* \"#utility.yul\":1465:1471   */\n      dup3\n        /* \"#utility.yul\":1454:1463   */\n      dup7\n        /* \"#utility.yul\":1450:1472   */\n      add\n        /* \"#utility.yul\":1429:1482   */\n      tag_132\n      jump\t// in\n    tag_178:\n        /* \"#utility.yul\":1419:1482   */\n      swap2\n      pop\n        /* \"#utility.yul\":1374:1492   */\n      pop\n        /* \"#utility.yul\":991:1499   */\n      swap3\n      pop\n      swap3\n      swap1\n      pop\n      jump\t// out\n        /* \"#utility.yul\":1505:1604   */\n    tag_133:\n        /* \"#utility.yul\":1557:1563   */\n      0x00\n        /* \"#utility.yul\":1591:1596   */\n      dup2\n        /* \"#utility.yul\":1585:1597   */\n      mload\n        /* \"#utility.yul\":1575:1597   */\n      swap1\n      pop\n        /* \"#utility.yul\":1505:1604   */\n      swap2\n      swap1\n      pop\n      jump\t// out\n        /* \"#utility.yul\":1610:1779   */\n    tag_134:\n        /* \"#utility.yul\":1694:1705   */\n      0x00\n        /* \"#utility.yul\":1728:1734   */\n      dup3\n        /* \"#utility.yul\":1723:1726   */\n      dup3\n        /* \"#utility.yul\":1716:1735   */\n      mstore\n        /* \"#utility.yul\":1768:1772   */\n      0x20\n        /* \"#utility.yul\":1763:1766   */\n      dup3\n        /* \"#utility.yul\":1759:1773   */\n      add\n        /* \"#utility.yul\":1744:1773   */\n      swap1\n      pop\n        /* \"#utility.yul\":1610:1779   */\n      swap3\n      swap2\n      pop\n      pop\n      jump\t// out\n        /* \"#utility.yul\":1785:2033   */\n    tag_135:\n        /* \"#utility.yul\":1867:1868   */\n      0x00\n        /* \"#utility.yul\":1877:1990   */\n    tag_182:\n        /* \"#utility.yul\":1891:1897   */\n      dup4\n        /* \"#utility.yul\":1888:1889   */\n      dup2\n        /* \"#utility.yul\":1885:1898   */\n      lt\n        /* \"#utility.yul\":1877:1990   */\n      iszero\n      tag_184\n      jumpi\n        /* \"#utility.yul\":1976:1977   */\n      dup1\n        /* \"#utility.yul\":1971:1974   */\n      dup3\n        /* \"#utility.yul\":1967:1978   */\n      add\n        /* \"#utility.yul\":1961:1979   */\n      mload\n        /* \"#utility.yul\":1957:1958   */\n      dup2\n        /* \"#utility.yul\":1952:1955   */\n      dup5\n        /* \"#utility.yul\":1948:1959   */\n      add\n        /* \"#utility.yul\":1941:1980   */\n      mstore\n        /* \"#utility.yul\":1913:1915   */\n      0x20\n        /* \"#utility.yul\":1910:1911   */\n      dup2\n        /* \"#utility.yul\":1906:1916   */\n      add\n        /* \"#utility.yul\":1901:1916   */\n      swap1\n      pop\n        /* \"#utility.yul\":1877:1990   */\n      jump(tag_182)\n    tag_184:\n        /* \"#utility.yul\":2024:2025   */\n      0x00\n        /* \"#utility.yul\":2015:2021   */\n      dup5\n        /* \"#utility.yul\":2010:2013   */\n      dup5\n        /* \"#utility.yul\":2006:2022   */\n      add\n        /* \"#utility.yul\":1999:2026   */\n      mstore\n        /* \"#utility.yul\":1847:2033   */\n      pop\n        /* \"#utility.yul\":1785:2033   */\n      pop\n      pop\n      pop\n      jump\t// out\n        /* \"#utility.yul\":2039:2141   */\n    tag_136:\n        /* \"#utility.yul\":2080:2086   */\n      0x00\n        /* \"#utility.yul\":2131:2133   */\n      0x1f\n        /* \"#utility.yul\":2127:2134   */\n      not\n        /* \"#utility.yul\":2122:2124   */\n      0x1f\n        /* \"#utility.yul\":2115:2120   */\n      dup4\n        /* \"#utility.yul\":2111:2125   */\n      add\n        /* \"#utility.yul\":2107:2135   */\n      and\n        /* \"#utility.yul\":2097:2135   */\n      swap1\n      pop\n        /* \"#utility.yul\":2039:2141   */\n      swap2\n      swap1\n      pop\n      jump\t// out\n        /* \"#utility.yul\":2147:2524   */\n    tag_137:\n        /* \"#utility.yul\":2235:2238   */\n      0x00\n        /* \"#utility.yul\":2263:2302   */\n      tag_187\n        /* \"#utility.yul\":2296:2301   */\n      dup3\n        /* \"#utility.yul\":2263:2302   */\n      tag_133\n      jump\t// in\n    tag_187:\n        /* \"#utility.yul\":2318:2389   */\n      tag_188\n        /* \"#utility.yul\":2382:2388   */\n      dup2\n        /* \"#utility.yul\":2377:2380   */\n      dup6\n        /* \"#utility.yul\":2318:2389   */\n      tag_134\n      jump\t// in\n    tag_188:\n        /* \"#utility.yul\":2311:2389   */\n      swap4\n      pop\n        /* \"#utility.yul\":2398:2463   */\n      tag_189\n        /* \"#utility.yul\":2456:2462   */\n      dup2\n        /* \"#utility.yul\":2451:2454   */\n      dup6\n        /* \"#utility.yul\":2444:2448   */\n      0x20\n        /* \"#utility.yul\":2437:2442   */\n      dup7\n        /* \"#utility.yul\":2433:2449   */\n      add\n        /* \"#utility.yul\":2398:2463   */\n      tag_135\n      jump\t// in\n    tag_189:\n        /* \"#utility.yul\":2488:2517   */\n      tag_190\n        /* \"#utility.yul\":2510:2516   */\n      dup2\n        /* \"#utility.yul\":2488:2517   */\n      tag_136\n      jump\t// in\n    tag_190:\n        /* \"#utility.yul\":2483:2486   */\n      dup5\n        /* \"#utility.yul\":2479:2518   */\n      add\n        /* \"#utility.yul\":2472:2518   */\n      swap2\n      pop\n        /* \"#utility.yul\":2239:2524   */\n      pop\n        /* \"#utility.yul\":2147:2524   */\n      swap3\n      swap2\n      pop\n      pop\n      jump\t// out\n        /* \"#utility.yul\":2530:2843   */\n    tag_12:\n        /* \"#utility.yul\":2643:2647   */\n      0x00\n        /* \"#utility.yul\":2681:2683   */\n      0x20\n        /* \"#utility.yul\":2670:2679   */\n      dup3\n        /* \"#utility.yul\":2666:2684   */\n      add\n        /* \"#utility.yul\":2658:2684   */\n      swap1\n      pop\n        /* \"#utility.yul\":2730:2739   */\n      dup2\n        /* \"#utility.yul\":2724:2728   */\n      dup2\n        /* \"#utility.yul\":2720:2740   */\n      sub\n        /* \"#utility.yul\":2716:2717   */\n      0x00\n        /* \"#utility.yul\":2705:2714   */\n      dup4\n        /* \"#utility.yul\":2701:2718   */\n      add\n        /* \"#utility.yul\":2694:2741   */\n      mstore\n        /* \"#utility.yul\":2758:2836   */\n      tag_192\n        /* \"#utility.yul\":2831:2835   */\n      dup2\n        /* \"#utility.yul\":2822:2828   */\n      dup5\n        /* \"#utility.yul\":2758:2836   */\n      tag_137\n      jump\t// in\n    tag_192:\n        /* \"#utility.yul\":2750:2836   */\n      swap1\n      pop\n        /* \"#utility.yul\":2530:2843   */\n      swap3\n      swap2\n      pop\n      pop\n      jump\t// out\n        /* \"#utility.yul\":2849:3027   */\n    tag_138:\n        /* \"#utility.yul\":2989:3019   */\n      0x596f75206e65656420746f206265206f6c646572207468616e20313800000000\n        /* \"#utility.yul\":2985:2986   */\n      0x00\n        /* \"#utility.yul\":2977:2983   */\n      dup3\n        /* \"#utility.yul\":2973:2987   */\n      add\n        /* \"#utility.yul\":2966:3020   */\n      mstore\n        /* \"#utility.yul\":2849:3027   */\n      pop\n      jump\t// out\n        /* \"#utility.yul\":3033:3399   */\n    tag_139:\n        /* \"#utility.yul\":3175:3178   */\n      0x00\n        /* \"#utility.yul\":3196:3263   */\n      tag_195\n        /* \"#utility.yul\":3260:3262   */\n      0x1c\n        /* \"#utility.yul\":3255:3258   */\n      dup4\n        /* \"#utility.yul\":3196:3263   */\n      tag_134\n      jump\t// in\n    tag_195:\n        /* \"#utility.yul\":3189:3263   */\n      swap2\n      pop\n        /* \"#utility.yul\":3272:3365   */\n      tag_196\n        /* \"#utility.yul\":3361:3364   */\n      dup3\n        /* \"#utility.yul\":3272:3365   */\n      tag_138\n      jump\t// in\n    tag_196:\n        /* \"#utility.yul\":3390:3392   */\n      0x20\n        /* \"#utility.yul\":3385:3388   */\n      dup3\n        /* \"#utility.yul\":3381:3393   */\n      add\n        /* \"#utility.yul\":3374:3393   */\n      swap1\n      pop\n        /* \"#utility.yul\":3033:3399   */\n      swap2\n      swap1\n      pop\n      jump\t// out\n        /* \"#utility.yul\":3405:3824   */\n    tag_16:\n        /* \"#utility.yul\":3571:3575   */\n      0x00\n        /* \"#utility.yul\":3609:3611   */\n      0x20\n        /* \"#utility.yul\":3598:3607   */\n      dup3\n        /* \"#utility.yul\":3594:3612   */\n      add\n        /* \"#utility.yul\":3586:3612   */\n      swap1\n      pop\n        /* \"#utility.yul\":3658:3667   */\n      dup2\n        /* \"#utility.yul\":3652:3656   */\n      dup2\n        /* \"#utility.yul\":3648:3668   */\n      sub\n        /* \"#utility.yul\":3644:3645   */\n      0x00\n        /* \"#utility.yul\":3633:3642   */\n      dup4\n        /* \"#utility.yul\":3629:3646   */\n      add\n        /* \"#utility.yul\":3622:3669   */\n      mstore\n        /* \"#utility.yul\":3686:3817   */\n      tag_198\n        /* \"#utility.yul\":3812:3816   */\n      dup2\n        /* \"#utility.yul\":3686:3817   */\n      tag_139\n      jump\t// in\n    tag_198:\n        /* \"#utility.yul\":3678:3817   */\n      swap1\n      pop\n        /* \"#utility.yul\":3405:3824   */\n      swap2\n      swap1\n      pop\n      jump\t// out\n        /* \"#utility.yul\":3830:4002   */\n    tag_140:\n        /* \"#utility.yul\":3970:3994   */\n      0x596f75206861766520616c726561647920766f74656400000000000000000000\n        /* \"#utility.yul\":3966:3967   */\n      0x00\n        /* \"#utility.yul\":3958:3964   */\n      dup3\n        /* \"#utility.yul\":3954:3968   */\n      add\n        /* \"#utility.yul\":3947:3995   */\n      mstore\n        /* \"#utility.yul\":3830:4002   */\n      pop\n      jump\t// out\n        /* \"#utility.yul\":4008:4374   */\n    tag_141:\n        /* \"#utility.yul\":4150:4153   */\n      0x00\n        /* \"#utility.yul\":4171:4238   */\n      tag_201\n        /* \"#utility.yul\":4235:4237   */\n      0x16\n        /* \"#utility.yul\":4230:4233   */\n      dup4\n        /* \"#utility.yul\":4171:4238   */\n      tag_134\n      jump\t// in\n    tag_201:\n        /* \"#utility.yul\":4164:4238   */\n      swap2\n      pop\n        /* \"#utility.yul\":4247:4340   */\n      tag_202\n        /* \"#utility.yul\":4336:4339   */\n      dup3\n        /* \"#utility.yul\":4247:4340   */\n      tag_140\n      jump\t// in\n    tag_202:\n        /* \"#utility.yul\":4365:4367   */\n      0x20\n        /* \"#utility.yul\":4360:4363   */\n      dup3\n        /* \"#utility.yul\":4356:4368   */\n      add\n        /* \"#utility.yul\":4349:4368   */\n      swap1\n      pop\n        /* \"#utility.yul\":4008:4374   */\n      swap2\n      swap1\n      pop\n      jump\t// out\n        /* \"#utility.yul\":4380:4799   */\n    tag_19:\n        /* \"#utility.yul\":4546:4550   */\n      0x00\n        /* \"#utility.yul\":4584:4586   */\n      0x20\n        /* \"#utility.yul\":4573:4582   */\n      dup3\n        /* \"#utility.yul\":4569:4587   */\n      add\n        /* \"#utility.yul\":4561:4587   */\n      swap1\n      pop\n        /* \"#utility.yul\":4633:4642   */\n      dup2\n        /* \"#utility.yul\":4627:4631   */\n      dup2\n        /* \"#utility.yul\":4623:4643   */\n      sub\n        /* \"#utility.yul\":4619:4620   */\n      0x00\n        /* \"#utility.yul\":4608:4617   */\n      dup4\n        /* \"#utility.yul\":4604:4621   */\n      add\n        /* \"#utility.yul\":4597:4644   */\n      mstore\n        /* \"#utility.yul\":4661:4792   */\n      tag_204\n        /* \"#utility.yul\":4787:4791   */\n      dup2\n        /* \"#utility.yul\":4661:4792   */\n      tag_141\n      jump\t// in\n    tag_204:\n        /* \"#utility.yul\":4653:4792   */\n      swap1\n      pop\n        /* \"#utility.yul\":4380:4799   */\n      swap2\n      swap1\n      pop\n      jump\t// out\n        /* \"#utility.yul\":4805:4970   */\n    tag_142:\n        /* \"#utility.yul\":4945:4962   */\n      0x4f776e65722063616e7420766f74650000000000000000000000000000000000\n        /* \"#utility.yul\":4941:4942   */\n      0x00\n        /* \"#utility.yul\":4933:4939   */\n      dup3\n        /* \"#utility.yul\":4929:4943   */\n      add\n        /* \"#utility.yul\":4922:4963   */\n      mstore\n        /* \"#utility.yul\":4805:4970   */\n      pop\n      jump\t// out\n        /* \"#utility.yul\":4976:5342   */\n    tag_143:\n        /* \"#utility.yul\":5118:5121   */\n      0x00\n        /* \"#utility.yul\":5139:5206   */\n      tag_207\n        /* \"#utility.yul\":5203:5205   */\n      0x0f\n        /* \"#utility.yul\":5198:5201   */\n      dup4\n        /* \"#utility.yul\":5139:5206   */\n      tag_134\n      jump\t// in\n    tag_207:\n        /* \"#utility.yul\":5132:5206   */\n      swap2\n      pop\n        /* \"#utility.yul\":5215:5308   */\n      tag_208\n        /* \"#utility.yul\":5304:5307   */\n      dup3\n        /* \"#utility.yul\":5215:5308   */\n      tag_142\n      jump\t// in\n    tag_208:\n        /* \"#utility.yul\":5333:5335   */\n      0x20\n        /* \"#utility.yul\":5328:5331   */\n      dup3\n        /* \"#utility.yul\":5324:5336   */\n      add\n        /* \"#utility.yul\":5317:5336   */\n      swap1\n      pop\n        /* \"#utility.yul\":4976:5342   */\n      swap2\n      swap1\n      pop\n      jump\t// out\n        /* \"#utility.yul\":5348:5767   */\n    tag_22:\n        /* \"#utility.yul\":5514:5518   */\n      0x00\n        /* \"#utility.yul\":5552:5554   */\n      0x20\n        /* \"#utility.yul\":5541:5550   */\n      dup3\n        /* \"#utility.yul\":5537:5555   */\n      add\n        /* \"#utility.yul\":5529:5555   */\n      swap1\n      pop\n        /* \"#utility.yul\":5601:5610   */\n      dup2\n        /* \"#utility.yul\":5595:5599   */\n      dup2\n        /* \"#utility.yul\":5591:5611   */\n      sub\n        /* \"#utility.yul\":5587:5588   */\n      0x00\n        /* \"#utility.yul\":5576:5585   */\n      dup4\n        /* \"#utility.yul\":5572:5589   */\n      add\n        /* \"#utility.yul\":5565:5612   */\n      mstore\n        /* \"#utility.yul\":5629:5760   */\n      tag_210\n        /* \"#utility.yul\":5755:5759   */\n      dup2\n        /* \"#utility.yul\":5629:5760   */\n      tag_143\n      jump\t// in\n    tag_210:\n        /* \"#utility.yul\":5621:5760   */\n      swap1\n      pop\n        /* \"#utility.yul\":5348:5767   */\n      swap2\n      swap1\n      pop\n      jump\t// out\n        /* \"#utility.yul\":5773:5938   */\n    tag_144:\n        /* \"#utility.yul\":5913:5930   */\n      0x566f74696e672066696e69736865640000000000000000000000000000000000\n        /* \"#utility.yul\":5909:5910   */\n      0x00\n        /* \"#utility.yul\":5901:5907   */\n      dup3\n        /* \"#utility.yul\":5897:5911   */\n      add\n        /* \"#utility.yul\":5890:5931   */\n      mstore\n        /* \"#utility.yul\":5773:5938   */\n      pop\n      jump\t// out\n        /* \"#utility.yul\":5944:6310   */\n    tag_145:\n        /* \"#utility.yul\":6086:6089   */\n      0x00\n        /* \"#utility.yul\":6107:6174   */\n      tag_213\n        /* \"#utility.yul\":6171:6173   */\n      0x0f\n        /* \"#utility.yul\":6166:6169   */\n      dup4\n        /* \"#utility.yul\":6107:6174   */\n      tag_134\n      jump\t// in\n    tag_213:\n        /* \"#utility.yul\":6100:6174   */\n      swap2\n      pop\n        /* \"#utility.yul\":6183:6276   */\n      tag_214\n        /* \"#utility.yul\":6272:6275   */\n      dup3\n        /* \"#utility.yul\":6183:6276   */\n      tag_144\n      jump\t// in\n    tag_214:\n        /* \"#utility.yul\":6301:6303   */\n      0x20\n        /* \"#utility.yul\":6296:6299   */\n      dup3\n        /* \"#utility.yul\":6292:6304   */\n      add\n        /* \"#utility.yul\":6285:6304   */\n      swap1\n      pop\n        /* \"#utility.yul\":5944:6310   */\n      swap2\n      swap1\n      pop\n      jump\t// out\n        /* \"#utility.yul\":6316:6735   */\n    tag_25:\n        /* \"#utility.yul\":6482:6486   */\n      0x00\n        /* \"#utility.yul\":6520:6522   */\n      0x20\n        /* \"#utility.yul\":6509:6518   */\n      dup3\n        /* \"#utility.yul\":6505:6523   */\n      add\n        /* \"#utility.yul\":6497:6523   */\n      swap1\n      pop\n        /* \"#utility.yul\":6569:6578   */\n      dup2\n        /* \"#utility.yul\":6563:6567   */\n      dup2\n        /* \"#utility.yul\":6559:6579   */\n      sub\n        /* \"#utility.yul\":6555:6556   */\n      0x00\n        /* \"#utility.yul\":6544:6553   */\n      dup4\n        /* \"#utility.yul\":6540:6557   */\n      add\n        /* \"#utility.yul\":6533:6580   */\n      mstore\n        /* \"#utility.yul\":6597:6728   */\n      tag_216\n        /* \"#utility.yul\":6723:6727   */\n      dup2\n        /* \"#utility.yul\":6597:6728   */\n      tag_145\n      jump\t// in\n    tag_216:\n        /* \"#utility.yul\":6589:6728   */\n      swap1\n      pop\n        /* \"#utility.yul\":6316:6735   */\n      swap2\n      swap1\n      pop\n      jump\t// out\n        /* \"#utility.yul\":6741:6921   */\n    tag_146:\n        /* \"#utility.yul\":6789:6866   */\n      0x4e487b7100000000000000000000000000000000000000000000000000000000\n        /* \"#utility.yul\":6786:6787   */\n      0x00\n        /* \"#utility.yul\":6779:6867   */\n      mstore\n        /* \"#utility.yul\":6886:6890   */\n      0x11\n        /* \"#utility.yul\":6883:6884   */\n      0x04\n        /* \"#utility.yul\":6876:6891   */\n      mstore\n        /* \"#utility.yul\":6910:6914   */\n      0x24\n        /* \"#utility.yul\":6907:6908   */\n      0x00\n        /* \"#utility.yul\":6900:6915   */\n      revert\n        /* \"#utility.yul\":6927:7160   */\n    tag_28:\n        /* \"#utility.yul\":6966:6969   */\n      0x00\n        /* \"#utility.yul\":6989:7013   */\n      tag_219\n        /* \"#utility.yul\":7007:7012   */\n      dup3\n        /* \"#utility.yul\":6989:7013   */\n      tag_130\n      jump\t// in\n    tag_219:\n        /* \"#utility.yul\":6980:7013   */\n      swap2\n      pop\n        /* \"#utility.yul\":7035:7101   */\n      0xffffffffffffffffffffffffffffffffffffffffffffffffffffffffffffffff\n        /* \"#utility.yul\":7028:7033   */\n      dup3\n        /* \"#utility.yul\":7025:7102   */\n      sub\n        /* \"#utility.yul\":7022:7125   */\n      tag_220\n      jumpi\n        /* \"#utility.yul\":7105:7123   */\n      tag_221\n      tag_146\n      jump\t// in\n    tag_221:\n        /* \"#utility.yul\":7022:7125   */\n    tag_220:\n        /* \"#utility.yul\":7152:7153   */\n      0x01\n        /* \"#utility.yul\":7145:7150   */\n      dup3\n        /* \"#utility.yul\":7141:7154   */\n      add\n        /* \"#utility.yul\":7134:7154   */\n      swap1\n      pop\n        /* \"#utility.yul\":6927:7160   */\n      swap2\n      swap1\n      pop\n      jump\t// out\n        /* \"#utility.yul\":7166:7346   */\n    tag_31:\n        /* \"#utility.yul\":7214:7291   */\n      0x4e487b7100000000000000000000000000000000000000000000000000000000\n        /* \"#utility.yul\":7211:7212   */\n      0x00\n        /* \"#utility.yul\":7204:7292   */\n      mstore\n        /* \"#utility.yul\":7311:7315   */\n      0x21\n        /* \"#utility.yul\":7308:7309   */\n      0x04\n        /* \"#utility.yul\":7301:7316   */\n      mstore\n        /* \"#utility.yul\":7335:7339   */\n      0x24\n        /* \"#utility.yul\":7332:7333   */\n      0x00\n        /* \"#utility.yul\":7325:7340   */\n      revert\n        /* \"#utility.yul\":7352:7474   */\n    tag_147:\n        /* \"#utility.yul\":7442:7443   */\n      0x02\n        /* \"#utility.yul\":7435:7440   */\n      dup2\n        /* \"#utility.yul\":7432:7444   */\n      lt\n        /* \"#utility.yul\":7422:7468   */\n      tag_224\n      jumpi\n        /* \"#utility.yul\":7448:7466   */\n      tag_225\n      tag_31\n      jump\t// in\n    tag_225:\n        /* \"#utility.yul\":7422:7468   */\n    tag_224:\n        /* \"#utility.yul\":7352:7474   */\n      pop\n      jump\t// out\n        /* \"#utility.yul\":7480:7625   */\n    tag_148:\n        /* \"#utility.yul\":7534:7541   */\n      0x00\n        /* \"#utility.yul\":7563:7568   */\n      dup2\n        /* \"#utility.yul\":7552:7568   */\n      swap1\n      pop\n        /* \"#utility.yul\":7569:7619   */\n      tag_227\n        /* \"#utility.yul\":7613:7618   */\n      dup3\n        /* \"#utility.yul\":7569:7619   */\n      tag_147\n      jump\t// in\n    tag_227:\n        /* \"#utility.yul\":7480:7625   */\n      swap2\n      swap1\n      pop\n      jump\t// out\n        /* \"#utility.yul\":7631:7776   */\n    tag_149:\n        /* \"#utility.yul\":7696:7705   */\n      0x00\n        /* \"#utility.yul\":7729:7770   */\n      tag_229\n        /* \"#utility.yul\":7764:7769   */\n      dup3\n        /* \"#utility.yul\":7729:7770   */\n      tag_148\n      jump\t// in\n    tag_229:\n        /* \"#utility.yul\":7716:7770   */\n      swap1\n      pop\n        /* \"#utility.yul\":7631:7776   */\n      swap2\n      swap1\n      pop\n      jump\t// out\n        /* \"#utility.yul\":7782:7943   */\n    tag_150:\n        /* \"#utility.yul\":7884:7936   */\n      tag_231\n        /* \"#utility.yul\":7930:7935   */\n      dup2\n        /* \"#utility.yul\":7884:7936   */\n      tag_149\n      jump\t// in\n    tag_231:\n        /* \"#utility.yul\":7879:7882   */\n      dup3\n        /* \"#utility.yul\":7872:7937   */\n      mstore\n        /* \"#utility.yul\":7782:7943   */\n      pop\n      pop\n      jump\t// out\n        /* \"#utility.yul\":7949:8201   */\n    tag_37:\n        /* \"#utility.yul\":8057:8061   */\n      0x00\n        /* \"#utility.yul\":8095:8097   */\n      0x20\n        /* \"#utility.yul\":8084:8093   */\n      dup3\n        /* \"#utility.yul\":8080:8098   */\n      add\n        /* \"#utility.yul\":8072:8098   */\n      swap1\n      pop\n        /* \"#utility.yul\":8108:8194   */\n      tag_233\n        /* \"#utility.yul\":8191:8192   */\n      0x00\n        /* \"#utility.yul\":8180:8189   */\n      dup4\n        /* \"#utility.yul\":8176:8193   */\n      add\n        /* \"#utility.yul\":8167:8173   */\n      dup5\n        /* \"#utility.yul\":8108:8194   */\n      tag_150\n      jump\t// in\n    tag_233:\n        /* \"#utility.yul\":7949:8201   */\n      swap3\n      swap2\n      pop\n      pop\n      jump\t// out\n        /* \"#utility.yul\":8207:8387   */\n    tag_53:\n        /* \"#utility.yul\":8255:8332   */\n      0x4e487b7100000000000000000000000000000000000000000000000000000000\n        /* \"#utility.yul\":8252:8253   */\n      0x00\n        /* \"#utility.yul\":8245:8333   */\n      mstore\n        /* \"#utility.yul\":8352:8356   */\n      0x32\n        /* \"#utility.yul\":8349:8350   */\n      0x04\n        /* \"#utility.yul\":8342:8357   */\n      mstore\n        /* \"#utility.yul\":8376:8380   */\n      0x24\n        /* \"#utility.yul\":8373:8374   */\n      0x00\n        /* \"#utility.yul\":8366:8381   */\n      revert\n        /* \"#utility.yul\":8393:8541   */\n    tag_151:\n        /* \"#utility.yul\":8495:8506   */\n      0x00\n        /* \"#utility.yul\":8532:8535   */\n      dup2\n        /* \"#utility.yul\":8517:8535   */\n      swap1\n      pop\n        /* \"#utility.yul\":8393:8541   */\n      swap3\n      swap2\n      pop\n      pop\n      jump\t// out\n        /* \"#utility.yul\":8547:8937   */\n    tag_152:\n        /* \"#utility.yul\":8653:8656   */\n      0x00\n        /* \"#utility.yul\":8681:8720   */\n      tag_237\n        /* \"#utility.yul\":8714:8719   */\n      dup3\n        /* \"#utility.yul\":8681:8720   */\n      tag_133\n      jump\t// in\n    tag_237:\n        /* \"#utility.yul\":8736:8825   */\n      tag_238\n        /* \"#utility.yul\":8818:8824   */\n      dup2\n        /* \"#utility.yul\":8813:8816   */\n      dup6\n        /* \"#utility.yul\":8736:8825   */\n      tag_151\n      jump\t// in\n    tag_238:\n        /* \"#utility.yul\":8729:8825   */\n      swap4\n      pop\n        /* \"#utility.yul\":8834:8899   */\n      tag_239\n        /* \"#utility.yul\":8892:8898   */\n      dup2\n        /* \"#utility.yul\":8887:8890   */\n      dup6\n        /* \"#utility.yul\":8880:8884   */\n      0x20\n        /* \"#utility.yul\":8873:8878   */\n      dup7\n        /* \"#utility.yul\":8869:8885   */\n      add\n        /* \"#utility.yul\":8834:8899   */\n      tag_135\n      jump\t// in\n    tag_239:\n        /* \"#utility.yul\":8924:8930   */\n      dup1\n        /* \"#utility.yul\":8919:8922   */\n      dup5\n        /* \"#utility.yul\":8915:8931   */\n      add\n        /* \"#utility.yul\":8908:8931   */\n      swap2\n      pop\n        /* \"#utility.yul\":8657:8937   */\n      pop\n        /* \"#utility.yul\":8547:8937   */\n      swap3\n      swap2\n      pop\n      pop\n      jump\t// out\n        /* \"#utility.yul\":8943:9096   */\n    tag_153:\n        /* \"#utility.yul\":9083:9088   */\n      0x203d200000000000000000000000000000000000000000000000000000000000\n        /* \"#utility.yul\":9079:9080   */\n      0x00\n        /* \"#utility.yul\":9071:9077   */\n      dup3\n        /* \"#utility.yul\":9067:9081   */\n      add\n        /* \"#utility.yul\":9060:9089   */\n      mstore\n        /* \"#utility.yul\":8943:9096   */\n      pop\n      jump\t// out\n        /* \"#utility.yul\":9102:9502   */\n    tag_154:\n        /* \"#utility.yul\":9262:9265   */\n      0x00\n        /* \"#utility.yul\":9283:9367   */\n      tag_242\n        /* \"#utility.yul\":9365:9366   */\n      0x03\n        /* \"#utility.yul\":9360:9363   */\n      dup4\n        /* \"#utility.yul\":9283:9367   */\n      tag_151\n      jump\t// in\n    tag_242:\n        /* \"#utility.yul\":9276:9367   */\n      swap2\n      pop\n        /* \"#utility.yul\":9376:9469   */\n      tag_243\n        /* \"#utility.yul\":9465:9468   */\n      dup3\n        /* \"#utility.yul\":9376:9469   */\n      tag_153\n      jump\t// in\n    tag_243:\n        /* \"#utility.yul\":9494:9495   */\n      0x03\n        /* \"#utility.yul\":9489:9492   */\n      dup3\n        /* \"#utility.yul\":9485:9496   */\n      add\n        /* \"#utility.yul\":9478:9496   */\n      swap1\n      pop\n        /* \"#utility.yul\":9102:9502   */\n      swap2\n      swap1\n      pop\n      jump\t// out\n        /* \"#utility.yul\":9508:9722   */\n    tag_155:\n        /* \"#utility.yul\":9648:9714   */\n      0x0a00000000000000000000000000000000000000000000000000000000000000\n        /* \"#utility.yul\":9644:9645   */\n      0x00\n        /* \"#utility.yul\":9636:9642   */\n      dup3\n        /* \"#utility.yul\":9632:9646   */\n      add\n        /* \"#utility.yul\":9625:9715   */\n      mstore\n        /* \"#utility.yul\":9508:9722   */\n      pop\n      jump\t// out\n        /* \"#utility.yul\":9728:10128   */\n    tag_156:\n        /* \"#utility.yul\":9888:9891   */\n      0x00\n        /* \"#utility.yul\":9909:9993   */\n      tag_246\n        /* \"#utility.yul\":9991:9992   */\n      0x01\n        /* \"#utility.yul\":9986:9989   */\n      dup4\n        /* \"#utility.yul\":9909:9993   */\n      tag_151\n      jump\t// in\n    tag_246:\n        /* \"#utility.yul\":9902:9993   */\n      swap2\n      pop\n        /* \"#utility.yul\":10002:10095   */\n      tag_247\n        /* \"#utility.yul\":10091:10094   */\n      dup3\n        /* \"#utility.yul\":10002:10095   */\n      tag_155\n      jump\t// in\n    tag_247:\n        /* \"#utility.yul\":10120:10121   */\n      0x01\n        /* \"#utility.yul\":10115:10118   */\n      dup3\n        /* \"#utility.yul\":10111:10122   */\n      add\n        /* \"#utility.yul\":10104:10122   */\n      swap1\n      pop\n        /* \"#utility.yul\":9728:10128   */\n      swap2\n      swap1\n      pop\n      jump\t// out\n        /* \"#utility.yul\":10134:10293   */\n    tag_157:\n        /* \"#utility.yul\":10274:10285   */\n      0x2d2d2d2d2d2d2d2d2d0000000000000000000000000000000000000000000000\n        /* \"#utility.yul\":10270:10271   */\n      0x00\n        /* \"#utility.yul\":10262:10268   */\n      dup3\n        /* \"#utility.yul\":10258:10272   */\n      add\n        /* \"#utility.yul\":10251:10286   */\n      mstore\n        /* \"#utility.yul\":10134:10293   */\n      pop\n      jump\t// out\n        /* \"#utility.yul\":10299:10699   */\n    tag_158:\n        /* \"#utility.yul\":10459:10462   */\n      0x00\n        /* \"#utility.yul\":10480:10564   */\n      tag_250\n        /* \"#utility.yul\":10562:10563   */\n      0x09\n        /* \"#utility.yul\":10557:10560   */\n      dup4\n        /* \"#utility.yul\":10480:10564   */\n      tag_151\n      jump\t// in\n    tag_250:\n        /* \"#utility.yul\":10473:10564   */\n      swap2\n      pop\n        /* \"#utility.yul\":10573:10666   */\n      tag_251\n        /* \"#utility.yul\":10662:10665   */\n      dup3\n        /* \"#utility.yul\":10573:10666   */\n      tag_157\n      jump\t// in\n    tag_251:\n        /* \"#utility.yul\":10691:10692   */\n      0x09\n        /* \"#utility.yul\":10686:10689   */\n      dup3\n        /* \"#utility.yul\":10682:10693   */\n      add\n        /* \"#utility.yul\":10675:10693   */\n      swap1\n      pop\n        /* \"#utility.yul\":10299:10699   */\n      swap2\n      swap1\n      pop\n      jump\t// out\n        /* \"#utility.yul\":10705:12098   */\n    tag_62:\n        /* \"#utility.yul\":11236:11239   */\n      0x00\n        /* \"#utility.yul\":11258:11353   */\n      tag_253\n        /* \"#utility.yul\":11349:11352   */\n      dup3\n        /* \"#utility.yul\":11340:11346   */\n      dup7\n        /* \"#utility.yul\":11258:11353   */\n      tag_152\n      jump\t// in\n    tag_253:\n        /* \"#utility.yul\":11251:11353   */\n      swap2\n      pop\n        /* \"#utility.yul\":11370:11465   */\n      tag_254\n        /* \"#utility.yul\":11461:11464   */\n      dup3\n        /* \"#utility.yul\":11452:11458   */\n      dup6\n        /* \"#utility.yul\":11370:11465   */\n      tag_152\n      jump\t// in\n    tag_254:\n        /* \"#utility.yul\":11363:11465   */\n      swap2\n      pop\n        /* \"#utility.yul\":11482:11630   */\n      tag_255\n        /* \"#utility.yul\":11626:11629   */\n      dup3\n        /* \"#utility.yul\":11482:11630   */\n      tag_154\n      jump\t// in\n    tag_255:\n        /* \"#utility.yul\":11475:11630   */\n      swap2\n      pop\n        /* \"#utility.yul\":11647:11742   */\n      tag_256\n        /* \"#utility.yul\":11738:11741   */\n      dup3\n        /* \"#utility.yul\":11729:11735   */\n      dup5\n        /* \"#utility.yul\":11647:11742   */\n      tag_152\n      jump\t// in\n    tag_256:\n        /* \"#utility.yul\":11640:11742   */\n      swap2\n      pop\n        /* \"#utility.yul\":11759:11907   */\n      tag_257\n        /* \"#utility.yul\":11903:11906   */\n      dup3\n        /* \"#utility.yul\":11759:11907   */\n      tag_156\n      jump\t// in\n    tag_257:\n        /* \"#utility.yul\":11752:11907   */\n      swap2\n      pop\n        /* \"#utility.yul\":11924:12072   */\n      tag_258\n        /* \"#utility.yul\":12068:12071   */\n      dup3\n        /* \"#utility.yul\":11924:12072   */\n      tag_158\n      jump\t// in\n    tag_258:\n        /* \"#utility.yul\":11917:12072   */\n      swap2\n      pop\n        /* \"#utility.yul\":12089:12092   */\n      dup2\n        /* \"#utility.yul\":12082:12092   */\n      swap1\n      pop\n        /* \"#utility.yul\":10705:12098   */\n      swap5\n      swap4\n      pop\n      pop\n      pop\n      pop\n      jump\t// out\n        /* \"#utility.yul\":12104:12284   */\n    tag_71:\n        /* \"#utility.yul\":12152:12229   */\n      0x4e487b7100000000000000000000000000000000000000000000000000000000\n        /* \"#utility.yul\":12149:12150   */\n      0x00\n        /* \"#utility.yul\":12142:12230   */\n      mstore\n        /* \"#utility.yul\":12249:12253   */\n      0x41\n        /* \"#utility.yul\":12246:12247   */\n      0x04\n        /* \"#utility.yul\":12239:12254   */\n      mstore\n        /* \"#utility.yul\":12273:12277   */\n      0x24\n        /* \"#utility.yul\":12270:12271   */\n      0x00\n        /* \"#utility.yul\":12263:12278   */\n      revert\n        /* \"#utility.yul\":12290:12470   */\n    tag_77:\n        /* \"#utility.yul\":12338:12415   */\n      0x4e487b7100000000000000000000000000000000000000000000000000000000\n        /* \"#utility.yul\":12335:12336   */\n      0x00\n        /* \"#utility.yul\":12328:12416   */\n      mstore\n        /* \"#utility.yul\":12435:12439   */\n      0x12\n        /* \"#utility.yul\":12432:12433   */\n      0x04\n        /* \"#utility.yul\":12425:12440   */\n      mstore\n        /* \"#utility.yul\":12459:12463   */\n      0x24\n        /* \"#utility.yul\":12456:12457   */\n      0x00\n        /* \"#utility.yul\":12449:12464   */\n      revert\n        /* \"#utility.yul\":12476:12886   */\n    tag_81:\n        /* \"#utility.yul\":12516:12523   */\n      0x00\n        /* \"#utility.yul\":12539:12559   */\n      tag_262\n        /* \"#utility.yul\":12557:12558   */\n      dup3\n        /* \"#utility.yul\":12539:12559   */\n      tag_130\n      jump\t// in\n    tag_262:\n        /* \"#utility.yul\":12534:12559   */\n      swap2\n      pop\n        /* \"#utility.yul\":12573:12593   */\n      tag_263\n        /* \"#utility.yul\":12591:12592   */\n      dup4\n        /* \"#utility.yul\":12573:12593   */\n      tag_130\n      jump\t// in\n    tag_263:\n        /* \"#utility.yul\":12568:12593   */\n      swap3\n      pop\n        /* \"#utility.yul\":12628:12629   */\n      dup3\n        /* \"#utility.yul\":12625:12626   */\n      dup3\n        /* \"#utility.yul\":12621:12630   */\n      mul\n        /* \"#utility.yul\":12650:12680   */\n      tag_264\n        /* \"#utility.yul\":12668:12679   */\n      dup2\n        /* \"#utility.yul\":12650:12680   */\n      tag_130\n      jump\t// in\n    tag_264:\n        /* \"#utility.yul\":12639:12680   */\n      swap2\n      pop\n        /* \"#utility.yul\":12829:12830   */\n      dup3\n        /* \"#utility.yul\":12820:12827   */\n      dup3\n        /* \"#utility.yul\":12816:12831   */\n      div\n        /* \"#utility.yul\":12813:12814   */\n      dup5\n        /* \"#utility.yul\":12810:12832   */\n      eq\n        /* \"#utility.yul\":12790:12791   */\n      dup4\n        /* \"#utility.yul\":12783:12792   */\n      iszero\n        /* \"#utility.yul\":12763:12846   */\n      or\n        /* \"#utility.yul\":12740:12879   */\n      tag_265\n      jumpi\n        /* \"#utility.yul\":12859:12877   */\n      tag_266\n      tag_146\n      jump\t// in\n    tag_266:\n        /* \"#utility.yul\":12740:12879   */\n    tag_265:\n        /* \"#utility.yul\":12524:12886   */\n      pop\n        /* \"#utility.yul\":12476:12886   */\n      swap3\n      swap2\n      pop\n      pop\n      jump\t// out\n        /* \"#utility.yul\":12892:13083   */\n    tag_83:\n        /* \"#utility.yul\":12932:12935   */\n      0x00\n        /* \"#utility.yul\":12951:12971   */\n      tag_268\n        /* \"#utility.yul\":12969:12970   */\n      dup3\n        /* \"#utility.yul\":12951:12971   */\n      tag_130\n      jump\t// in\n    tag_268:\n        /* \"#utility.yul\":12946:12971   */\n      swap2\n      pop\n        /* \"#utility.yul\":12985:13005   */\n      tag_269\n        /* \"#utility.yul\":13003:13004   */\n      dup4\n        /* \"#utility.yul\":12985:13005   */\n      tag_130\n      jump\t// in\n    tag_269:\n        /* \"#utility.yul\":12980:13005   */\n      swap3\n      pop\n        /* \"#utility.yul\":13028:13029   */\n      dup3\n        /* \"#utility.yul\":13025:13026   */\n      dup3\n        /* \"#utility.yul\":13021:13030   */\n      add\n        /* \"#utility.yul\":13014:13030   */\n      swap1\n      pop\n        /* \"#utility.yul\":13049:13052   */\n      dup1\n        /* \"#utility.yul\":13046:13047   */\n      dup3\n        /* \"#utility.yul\":13043:13053   */\n      gt\n        /* \"#utility.yul\":13040:13076   */\n      iszero\n      tag_270\n      jumpi\n        /* \"#utility.yul\":13056:13074   */\n      tag_271\n      tag_146\n      jump\t// in\n    tag_271:\n        /* \"#utility.yul\":13040:13076   */\n    tag_270:\n        /* \"#utility.yul\":12892:13083   */\n      swap3\n      swap2\n      pop\n      pop\n      jump\t// out\n        /* \"#utility.yul\":13089:13260   */\n    tag_101:\n        /* \"#utility.yul\":13128:13131   */\n      0x00\n        /* \"#utility.yul\":13151:13175   */\n      tag_273\n        /* \"#utility.yul\":13169:13174   */\n      dup3\n        /* \"#utility.yul\":13151:13175   */\n      tag_130\n      jump\t// in\n    tag_273:\n        /* \"#utility.yul\":13142:13175   */\n      swap2\n      pop\n        /* \"#utility.yul\":13197:13201   */\n      0x00\n        /* \"#utility.yul\":13190:13195   */\n      dup3\n        /* \"#utility.yul\":13187:13202   */\n      sub\n        /* \"#utility.yul\":13184:13225   */\n      tag_274\n      jumpi\n        /* \"#utility.yul\":13205:13223   */\n      tag_275\n      tag_146\n      jump\t// in\n    tag_275:\n        /* \"#utility.yul\":13184:13225   */\n    tag_274:\n        /* \"#utility.yul\":13252:13253   */\n      0x01\n        /* \"#utility.yul\":13245:13250   */\n      dup3\n        /* \"#utility.yul\":13241:13254   */\n      sub\n        /* \"#utility.yul\":13234:13254   */\n      swap1\n      pop\n        /* \"#utility.yul\":13089:13260   */\n      swap2\n      swap1\n      pop\n      jump\t// out\n        /* \"#utility.yul\":13266:13384   */\n    tag_159:\n        /* \"#utility.yul\":13353:13377   */\n      tag_277\n        /* \"#utility.yul\":13371:13376   */\n      dup2\n        /* \"#utility.yul\":13353:13377   */\n      tag_130\n      jump\t// in\n    tag_277:\n        /* \"#utility.yul\":13348:13351   */\n      dup3\n        /* \"#utility.yul\":13341:13378   */\n      mstore\n        /* \"#utility.yul\":13266:13384   */\n      pop\n      pop\n      jump\t// out\n        /* \"#utility.yul\":13390:13722   */\n    tag_104:\n        /* \"#utility.yul\":13511:13515   */\n      0x00\n        /* \"#utility.yul\":13549:13551   */\n      0x40\n        /* \"#utility.yul\":13538:13547   */\n      dup3\n        /* \"#utility.yul\":13534:13552   */\n      add\n        /* \"#utility.yul\":13526:13552   */\n      swap1\n      pop\n        /* \"#utility.yul\":13562:13633   */\n      tag_279\n        /* \"#utility.yul\":13630:13631   */\n      0x00\n        /* \"#utility.yul\":13619:13628   */\n      dup4\n        /* \"#utility.yul\":13615:13632   */\n      add\n        /* \"#utility.yul\":13606:13612   */\n      dup6\n        /* \"#utility.yul\":13562:13633   */\n      tag_159\n      jump\t// in\n    tag_279:\n        /* \"#utility.yul\":13643:13715   */\n      tag_280\n        /* \"#utility.yul\":13711:13713   */\n      0x20\n        /* \"#utility.yul\":13700:13709   */\n      dup4\n        /* \"#utility.yul\":13696:13714   */\n      add\n        /* \"#utility.yul\":13687:13693   */\n      dup5\n        /* \"#utility.yul\":13643:13715   */\n      tag_159\n      jump\t// in\n    tag_280:\n        /* \"#utility.yul\":13390:13722   */\n      swap4\n      swap3\n      pop\n      pop\n      pop\n      jump\t// out\n\n    auxdata: 0xa2646970667358221220849b5f3dd840f3970f2080425bf394392413624b8bdb108958558eb03f63087064736f6c634300081a0033\n}\n",
				"bytecode": {
					"linkReferences": {},
					"object": "6080604052735b38da6a701c568545dcfcb03fcb875f56beddc4600360006101000a81548173ffffffffffffffffffffffffffffffffffffffff021916908373ffffffffffffffffffffffffffffffffffffffff16021790555073ab8483f64d9c6d1ecf9b849ae677dd3315835cb2600460006101000a81548173ffffffffffffffffffffffffffffffffffffffff021916908373ffffffffffffffffffffffffffffffffffffffff160217905550734b20993bc481177ec7e8f571cecae8a9e22c02db600560006101000a81548173ffffffffffffffffffffffffffffffffffffffff021916908373ffffffffffffffffffffffffffffffffffffffff1602179055506040518060400160405280600460009054906101000a900473ffffffffffffffffffffffffffffffffffffffff1673ffffffffffffffffffffffffffffffffffffffff1673ffffffffffffffffffffffffffffffffffffffff168152602001600560009054906101000a900473ffffffffffffffffffffffffffffffffffffffff1673ffffffffffffffffffffffffffffffffffffffff1673ffffffffffffffffffffffffffffffffffffffff1681525060069060026101c49291906101d7565b503480156101d157600080fd5b50610271565b8260028101928215610243579160200282015b828111156102425782518260006101000a81548173ffffffffffffffffffffffffffffffffffffffff021916908373ffffffffffffffffffffffffffffffffffffffff160217905550916020019190600101906101ea565b5b5090506102509190610254565b5090565b5b8082111561026d576000816000905550600101610255565b5090565b611296806102806000396000f3fe608060405234801561001057600080fd5b50600436106100365760003560e01c8063d3f29ace1461003b578063de29278914610057575b600080fd5b61005560048036038101906100509190610bdf565b610075565b005b61005f6105c6565b60405161006c9190610caf565b60405180910390f35b33600260006101000a81548173ffffffffffffffffffffffffffffffffffffffff021916908373ffffffffffffffffffffffffffffffffffffffff16021790555060128110156100fa576040517f2beb23b40000000000000000000000000000000000000000000000000000000081526004016100f190610d1d565b60405180910390fd5b6000803373ffffffffffffffffffffffffffffffffffffffff1673ffffffffffffffffffffffffffffffffffffffff16815260200190815260200160002060009054906101000a900460ff1615610186576040517f08c379a000000000000000000000000000000000000000000000000000000000815260040161017d90610d89565b60405180910390fd5b600360009054906101000a900473ffffffffffffffffffffffffffffffffffffffff1673ffffffffffffffffffffffffffffffffffffffff16600260009054906101000a900473ffffffffffffffffffffffffffffffffffffffff1673ffffffffffffffffffffffffffffffffffffffff1603610238576040517f08c379a000000000000000000000000000000000000000000000000000000000815260040161022f90610df5565b60405180910390fd5b6005600954111561027e576040517f08c379a000000000000000000000000000000000000000000000000000000000815260040161027590610e61565b60405180910390fd5b6001600080600260009054906101000a900473ffffffffffffffffffffffffffffffffffffffff1673ffffffffffffffffffffffffffffffffffffffff1673ffffffffffffffffffffffffffffffffffffffff16815260200190815260200160002060006101000a81548160ff0219169083151502179055506008600260009054906101000a900473ffffffffffffffffffffffffffffffffffffffff169080600181540180825580915050600190039060005260206000200160009091909190916101000a81548173ffffffffffffffffffffffffffffffffffffffff021916908373ffffffffffffffffffffffffffffffffffffffff1602179055506009600081548092919061038f90610eb0565b91905055508160018111156103a7576103a6610ef8565b5b600060018111156103bb576103ba610ef8565b5b036104ad5760016000600460009054906101000a900473ffffffffffffffffffffffffffffffffffffffff1673ffffffffffffffffffffffffffffffffffffffff1673ffffffffffffffffffffffffffffffffffffffff168152602001908152602001600020600081548092919061043290610eb0565b9190505550600260009054906101000a900473ffffffffffffffffffffffffffffffffffffffff1673ffffffffffffffffffffffffffffffffffffffff167f5579f99982aa469ba774030720ca9b44b56718c5ac9274754502a3c044811c7360006040516104a09190610f6f565b60405180910390a26105c2565b8160018111156104c0576104bf610ef8565b5b6001808111156104d3576104d2610ef8565b5b036105c15760016000600560009054906101000a900473ffffffffffffffffffffffffffffffffffffffff1673ffffffffffffffffffffffffffffffffffffffff1673ffffffffffffffffffffffffffffffffffffffff168152602001908152602001600020600081548092919061054a90610eb0565b9190505550600260009054906101000a900473ffffffffffffffffffffffffffffffffffffffff1673ffffffffffffffffffffffffffffffffffffffff167f5579f99982aa469ba774030720ca9b44b56718c5ac9274754502a3c044811c7360016040516105b89190610f6f565b60405180910390a25b5b5050565b60608060005b60028110156106e357600061062b600683600281106105ee576105ed610f8a565b5b0160009054906101000a900473ffffffffffffffffffffffffffffffffffffffff1673ffffffffffffffffffffffffffffffffffffffff166106eb565b905060006106ac600160006006866002811061064a57610649610f8a565b5b0160009054906101000a900473ffffffffffffffffffffffffffffffffffffffff1673ffffffffffffffffffffffffffffffffffffffff1673ffffffffffffffffffffffffffffffffffffffff16815260200190815260200160002054610718565b90508382826040516020016106c3939291906110d9565b6040516020818303038152906040529350505080806001019150506105cc565b508091505090565b60606107118273ffffffffffffffffffffffffffffffffffffffff16601460ff166107e6565b9050919050565b60606000600161072784610a2c565b01905060008167ffffffffffffffff8111156107465761074561112b565b5b6040519080825280601f01601f1916602001820160405280156107785781602001600182028036833780820191505090505b509050600082602001820190505b6001156107db578080600190039150507f3031323334353637383961626364656600000000000000000000000000000000600a86061a8153600a85816107cf576107ce61115a565b5b04945060008503610786575b819350505050919050565b60606000839050600060028460026107fe9190611189565b61080891906111cb565b67ffffffffffffffff8111156108215761082061112b565b5b6040519080825280601f01601f1916602001820160405280156108535781602001600182028036833780820191505090505b5090507f30000000000000000000000000000000000000000000000000000000000000008160008151811061088b5761088a610f8a565b5b60200101907effffffffffffffffffffffffffffffffffffffffffffffffffffffffffffff1916908160001a9053507f7800000000000000000000000000000000000000000000000000000000000000816001815181106108ef576108ee610f8a565b5b60200101907effffffffffffffffffffffffffffffffffffffffffffffffffffffffffffff1916908160001a9053506000600185600261092f9190611189565b61093991906111cb565b90505b60018111156109d9577f3031323334353637383961626364656600000000000000000000000000000000600f84166010811061097b5761097a610f8a565b5b1a60f81b82828151811061099257610991610f8a565b5b60200101907effffffffffffffffffffffffffffffffffffffffffffffffffffffffffffff1916908160001a905350600483901c9250806109d2906111ff565b905061093c565b5060008214610a215784846040517fe22e27eb000000000000000000000000000000000000000000000000000000008152600401610a18929190611237565b60405180910390fd5b809250505092915050565b600080600090507a184f03e93ff9f4daa797ed6e38ed64bf6a1f0100000000000000008310610a8a577a184f03e93ff9f4daa797ed6e38ed64bf6a1f0100000000000000008381610a8057610a7f61115a565b5b0492506040810190505b6d04ee2d6d415b85acef81000000008310610ac7576d04ee2d6d415b85acef81000000008381610abd57610abc61115a565b5b0492506020810190505b662386f26fc100008310610af657662386f26fc100008381610aec57610aeb61115a565b5b0492506010810190505b6305f5e1008310610b1f576305f5e1008381610b1557610b1461115a565b5b0492506008810190505b6127108310610b44576127108381610b3a57610b3961115a565b5b0492506004810190505b60648310610b675760648381610b5d57610b5c61115a565b5b0492506002810190505b600a8310610b76576001810190505b80915050919050565b600080fd5b60028110610b9157600080fd5b50565b600081359050610ba381610b84565b92915050565b6000819050919050565b610bbc81610ba9565b8114610bc757600080fd5b50565b600081359050610bd981610bb3565b92915050565b60008060408385031215610bf657610bf5610b7f565b5b6000610c0485828601610b94565b9250506020610c1585828601610bca565b9150509250929050565b600081519050919050565b600082825260208201905092915050565b60005b83811015610c59578082015181840152602081019050610c3e565b60008484015250505050565b6000601f19601f8301169050919050565b6000610c8182610c1f565b610c8b8185610c2a565b9350610c9b818560208601610c3b565b610ca481610c65565b840191505092915050565b60006020820190508181036000830152610cc98184610c76565b905092915050565b7f596f75206e65656420746f206265206f6c646572207468616e20313800000000600082015250565b6000610d07601c83610c2a565b9150610d1282610cd1565b602082019050919050565b60006020820190508181036000830152610d3681610cfa565b9050919050565b7f596f75206861766520616c726561647920766f74656400000000000000000000600082015250565b6000610d73601683610c2a565b9150610d7e82610d3d565b602082019050919050565b60006020820190508181036000830152610da281610d66565b9050919050565b7f4f776e65722063616e7420766f74650000000000000000000000000000000000600082015250565b6000610ddf600f83610c2a565b9150610dea82610da9565b602082019050919050565b60006020820190508181036000830152610e0e81610dd2565b9050919050565b7f566f74696e672066696e69736865640000000000000000000000000000000000600082015250565b6000610e4b600f83610c2a565b9150610e5682610e15565b602082019050919050565b60006020820190508181036000830152610e7a81610e3e565b9050919050565b7f4e487b7100000000000000000000000000000000000000000000000000000000600052601160045260246000fd5b6000610ebb82610ba9565b91507fffffffffffffffffffffffffffffffffffffffffffffffffffffffffffffffff8203610eed57610eec610e81565b5b600182019050919050565b7f4e487b7100000000000000000000000000000000000000000000000000000000600052602160045260246000fd5b60028110610f3857610f37610ef8565b5b50565b6000819050610f4982610f27565b919050565b6000610f5982610f3b565b9050919050565b610f6981610f4e565b82525050565b6000602082019050610f846000830184610f60565b92915050565b7f4e487b7100000000000000000000000000000000000000000000000000000000600052603260045260246000fd5b600081905092915050565b6000610fcf82610c1f565b610fd98185610fb9565b9350610fe9818560208601610c3b565b80840191505092915050565b7f203d200000000000000000000000000000000000000000000000000000000000600082015250565b600061102b600383610fb9565b915061103682610ff5565b600382019050919050565b7f0a00000000000000000000000000000000000000000000000000000000000000600082015250565b6000611077600183610fb9565b915061108282611041565b600182019050919050565b7f2d2d2d2d2d2d2d2d2d0000000000000000000000000000000000000000000000600082015250565b60006110c3600983610fb9565b91506110ce8261108d565b600982019050919050565b60006110e58286610fc4565b91506110f18285610fc4565b91506110fc8261101e565b91506111088284610fc4565b91506111138261106a565b915061111e826110b6565b9150819050949350505050565b7f4e487b7100000000000000000000000000000000000000000000000000000000600052604160045260246000fd5b7f4e487b7100000000000000000000000000000000000000000000000000000000600052601260045260246000fd5b600061119482610ba9565b915061119f83610ba9565b92508282026111ad81610ba9565b915082820484148315176111c4576111c3610e81565b5b5092915050565b60006111d682610ba9565b91506111e183610ba9565b92508282019050808211156111f9576111f8610e81565b5b92915050565b600061120a82610ba9565b91506000820361121d5761121c610e81565b5b600182039050919050565b61123181610ba9565b82525050565b600060408201905061124c6000830185611228565b6112596020830184611228565b939250505056fea2646970667358221220849b5f3dd840f3970f2080425bf394392413624b8bdb108958558eb03f63087064736f6c634300081a0033",
					"opcodes": "PUSH1 0x80 PUSH1 0x40 MSTORE PUSH20 0x5B38DA6A701C568545DCFCB03FCB875F56BEDDC4 PUSH1 0x3 PUSH1 0x0 PUSH2 0x100 EXP DUP2 SLOAD DUP2 PUSH20 0xFFFFFFFFFFFFFFFFFFFFFFFFFFFFFFFFFFFFFFFF MUL NOT AND SWAP1 DUP4 PUSH20 0xFFFFFFFFFFFFFFFFFFFFFFFFFFFFFFFFFFFFFFFF AND MUL OR SWAP1 SSTORE POP PUSH20 0xAB8483F64D9C6D1ECF9B849AE677DD3315835CB2 PUSH1 0x4 PUSH1 0x0 PUSH2 0x100 EXP DUP2 SLOAD DUP2 PUSH20 0xFFFFFFFFFFFFFFFFFFFFFFFFFFFFFFFFFFFFFFFF MUL NOT AND SWAP1 DUP4 PUSH20 0xFFFFFFFFFFFFFFFFFFFFFFFFFFFFFFFFFFFFFFFF AND MUL OR SWAP1 SSTORE POP PUSH20 0x4B20993BC481177EC7E8F571CECAE8A9E22C02DB PUSH1 0x5 PUSH1 0x0 PUSH2 0x100 EXP DUP2 SLOAD DUP2 PUSH20 0xFFFFFFFFFFFFFFFFFFFFFFFFFFFFFFFFFFFFFFFF MUL NOT AND SWAP1 DUP4 PUSH20 0xFFFFFFFFFFFFFFFFFFFFFFFFFFFFFFFFFFFFFFFF AND MUL OR SWAP1 SSTORE POP PUSH1 0x40 MLOAD DUP1 PUSH1 0x40 ADD PUSH1 0x40 MSTORE DUP1 PUSH1 0x4 PUSH1 0x0 SWAP1 SLOAD SWAP1 PUSH2 0x100 EXP SWAP1 DIV PUSH20 0xFFFFFFFFFFFFFFFFFFFFFFFFFFFFFFFFFFFFFFFF AND PUSH20 0xFFFFFFFFFFFFFFFFFFFFFFFFFFFFFFFFFFFFFFFF AND PUSH20 0xFFFFFFFFFFFFFFFFFFFFFFFFFFFFFFFFFFFFFFFF AND DUP2 MSTORE PUSH1 0x20 ADD PUSH1 0x5 PUSH1 0x0 SWAP1 SLOAD SWAP1 PUSH2 0x100 EXP SWAP1 DIV PUSH20 0xFFFFFFFFFFFFFFFFFFFFFFFFFFFFFFFFFFFFFFFF AND PUSH20 0xFFFFFFFFFFFFFFFFFFFFFFFFFFFFFFFFFFFFFFFF AND PUSH20 0xFFFFFFFFFFFFFFFFFFFFFFFFFFFFFFFFFFFFFFFF AND DUP2 MSTORE POP PUSH1 0x6 SWAP1 PUSH1 0x2 PUSH2 0x1C4 SWAP3 SWAP2 SWAP1 PUSH2 0x1D7 JUMP JUMPDEST POP CALLVALUE DUP1 ISZERO PUSH2 0x1D1 JUMPI PUSH1 0x0 DUP1 REVERT JUMPDEST POP PUSH2 0x271 JUMP JUMPDEST DUP3 PUSH1 0x2 DUP2 ADD SWAP3 DUP3 ISZERO PUSH2 0x243 JUMPI SWAP2 PUSH1 0x20 MUL DUP3 ADD JUMPDEST DUP3 DUP2 GT ISZERO PUSH2 0x242 JUMPI DUP3 MLOAD DUP3 PUSH1 0x0 PUSH2 0x100 EXP DUP2 SLOAD DUP2 PUSH20 0xFFFFFFFFFFFFFFFFFFFFFFFFFFFFFFFFFFFFFFFF MUL NOT AND SWAP1 DUP4 PUSH20 0xFFFFFFFFFFFFFFFFFFFFFFFFFFFFFFFFFFFFFFFF AND MUL OR SWAP1 SSTORE POP SWAP2 PUSH1 0x20 ADD SWAP2 SWAP1 PUSH1 0x1 ADD SWAP1 PUSH2 0x1EA JUMP JUMPDEST JUMPDEST POP SWAP1 POP PUSH2 0x250 SWAP2 SWAP1 PUSH2 0x254 JUMP JUMPDEST POP SWAP1 JUMP JUMPDEST JUMPDEST DUP1 DUP3 GT ISZERO PUSH2 0x26D JUMPI PUSH1 0x0 DUP2 PUSH1 0x0 SWAP1 SSTORE POP PUSH1 0x1 ADD PUSH2 0x255 JUMP JUMPDEST POP SWAP1 JUMP JUMPDEST PUSH2 0x1296 DUP1 PUSH2 0x280 PUSH1 0x0 CODECOPY PUSH1 0x0 RETURN INVALID PUSH1 0x80 PUSH1 0x40 MSTORE CALLVALUE DUP1 ISZERO PUSH2 0x10 JUMPI PUSH1 0x0 DUP1 REVERT JUMPDEST POP PUSH1 0x4 CALLDATASIZE LT PUSH2 0x36 JUMPI PUSH1 0x0 CALLDATALOAD PUSH1 0xE0 SHR DUP1 PUSH4 0xD3F29ACE EQ PUSH2 0x3B JUMPI DUP1 PUSH4 0xDE292789 EQ PUSH2 0x57 JUMPI JUMPDEST PUSH1 0x0 DUP1 REVERT JUMPDEST PUSH2 0x55 PUSH1 0x4 DUP1 CALLDATASIZE SUB DUP2 ADD SWAP1 PUSH2 0x50 SWAP2 SWAP1 PUSH2 0xBDF JUMP JUMPDEST PUSH2 0x75 JUMP JUMPDEST STOP JUMPDEST PUSH2 0x5F PUSH2 0x5C6 JUMP JUMPDEST PUSH1 0x40 MLOAD PUSH2 0x6C SWAP2 SWAP1 PUSH2 0xCAF JUMP JUMPDEST PUSH1 0x40 MLOAD DUP1 SWAP2 SUB SWAP1 RETURN JUMPDEST CALLER PUSH1 0x2 PUSH1 0x0 PUSH2 0x100 EXP DUP2 SLOAD DUP2 PUSH20 0xFFFFFFFFFFFFFFFFFFFFFFFFFFFFFFFFFFFFFFFF MUL NOT AND SWAP1 DUP4 PUSH20 0xFFFFFFFFFFFFFFFFFFFFFFFFFFFFFFFFFFFFFFFF AND MUL OR SWAP1 SSTORE POP PUSH1 0x12 DUP2 LT ISZERO PUSH2 0xFA JUMPI PUSH1 0x40 MLOAD PUSH32 0x2BEB23B400000000000000000000000000000000000000000000000000000000 DUP2 MSTORE PUSH1 0x4 ADD PUSH2 0xF1 SWAP1 PUSH2 0xD1D JUMP JUMPDEST PUSH1 0x40 MLOAD DUP1 SWAP2 SUB SWAP1 REVERT JUMPDEST PUSH1 0x0 DUP1 CALLER PUSH20 0xFFFFFFFFFFFFFFFFFFFFFFFFFFFFFFFFFFFFFFFF AND PUSH20 0xFFFFFFFFFFFFFFFFFFFFFFFFFFFFFFFFFFFFFFFF AND DUP2 MSTORE PUSH1 0x20 ADD SWAP1 DUP2 MSTORE PUSH1 0x20 ADD PUSH1 0x0 KECCAK256 PUSH1 0x0 SWAP1 SLOAD SWAP1 PUSH2 0x100 EXP SWAP1 DIV PUSH1 0xFF AND ISZERO PUSH2 0x186 JUMPI PUSH1 0x40 MLOAD PUSH32 0x8C379A000000000000000000000000000000000000000000000000000000000 DUP2 MSTORE PUSH1 0x4 ADD PUSH2 0x17D SWAP1 PUSH2 0xD89 JUMP JUMPDEST PUSH1 0x40 MLOAD DUP1 SWAP2 SUB SWAP1 REVERT JUMPDEST PUSH1 0x3 PUSH1 0x0 SWAP1 SLOAD SWAP1 PUSH2 0x100 EXP SWAP1 DIV PUSH20 0xFFFFFFFFFFFFFFFFFFFFFFFFFFFFFFFFFFFFFFFF AND PUSH20 0xFFFFFFFFFFFFFFFFFFFFFFFFFFFFFFFFFFFFFFFF AND PUSH1 0x2 PUSH1 0x0 SWAP1 SLOAD SWAP1 PUSH2 0x100 EXP SWAP1 DIV PUSH20 0xFFFFFFFFFFFFFFFFFFFFFFFFFFFFFFFFFFFFFFFF AND PUSH20 0xFFFFFFFFFFFFFFFFFFFFFFFFFFFFFFFFFFFFFFFF AND SUB PUSH2 0x238 JUMPI PUSH1 0x40 MLOAD PUSH32 0x8C379A000000000000000000000000000000000000000000000000000000000 DUP2 MSTORE PUSH1 0x4 ADD PUSH2 0x22F SWAP1 PUSH2 0xDF5 JUMP JUMPDEST PUSH1 0x40 MLOAD DUP1 SWAP2 SUB SWAP1 REVERT JUMPDEST PUSH1 0x5 PUSH1 0x9 SLOAD GT ISZERO PUSH2 0x27E JUMPI PUSH1 0x40 MLOAD PUSH32 0x8C379A000000000000000000000000000000000000000000000000000000000 DUP2 MSTORE PUSH1 0x4 ADD PUSH2 0x275 SWAP1 PUSH2 0xE61 JUMP JUMPDEST PUSH1 0x40 MLOAD DUP1 SWAP2 SUB SWAP1 REVERT JUMPDEST PUSH1 0x1 PUSH1 0x0 DUP1 PUSH1 0x2 PUSH1 0x0 SWAP1 SLOAD SWAP1 PUSH2 0x100 EXP SWAP1 DIV PUSH20 0xFFFFFFFFFFFFFFFFFFFFFFFFFFFFFFFFFFFFFFFF AND PUSH20 0xFFFFFFFFFFFFFFFFFFFFFFFFFFFFFFFFFFFFFFFF AND PUSH20 0xFFFFFFFFFFFFFFFFFFFFFFFFFFFFFFFFFFFFFFFF AND DUP2 MSTORE PUSH1 0x20 ADD SWAP1 DUP2 MSTORE PUSH1 0x20 ADD PUSH1 0x0 KECCAK256 PUSH1 0x0 PUSH2 0x100 EXP DUP2 SLOAD DUP2 PUSH1 0xFF MUL NOT AND SWAP1 DUP4 ISZERO ISZERO MUL OR SWAP1 SSTORE POP PUSH1 0x8 PUSH1 0x2 PUSH1 0x0 SWAP1 SLOAD SWAP1 PUSH2 0x100 EXP SWAP1 DIV PUSH20 0xFFFFFFFFFFFFFFFFFFFFFFFFFFFFFFFFFFFFFFFF AND SWAP1 DUP1 PUSH1 0x1 DUP2 SLOAD ADD DUP1 DUP3 SSTORE DUP1 SWAP2 POP POP PUSH1 0x1 SWAP1 SUB SWAP1 PUSH1 0x0 MSTORE PUSH1 0x20 PUSH1 0x0 KECCAK256 ADD PUSH1 0x0 SWAP1 SWAP2 SWAP1 SWAP2 SWAP1 SWAP2 PUSH2 0x100 EXP DUP2 SLOAD DUP2 PUSH20 0xFFFFFFFFFFFFFFFFFFFFFFFFFFFFFFFFFFFFFFFF MUL NOT AND SWAP1 DUP4 PUSH20 0xFFFFFFFFFFFFFFFFFFFFFFFFFFFFFFFFFFFFFFFF AND MUL OR SWAP1 SSTORE POP PUSH1 0x9 PUSH1 0x0 DUP2 SLOAD DUP1 SWAP3 SWAP2 SWAP1 PUSH2 0x38F SWAP1 PUSH2 0xEB0 JUMP JUMPDEST SWAP2 SWAP1 POP SSTORE POP DUP2 PUSH1 0x1 DUP2 GT ISZERO PUSH2 0x3A7 JUMPI PUSH2 0x3A6 PUSH2 0xEF8 JUMP JUMPDEST JUMPDEST PUSH1 0x0 PUSH1 0x1 DUP2 GT ISZERO PUSH2 0x3BB JUMPI PUSH2 0x3BA PUSH2 0xEF8 JUMP JUMPDEST JUMPDEST SUB PUSH2 0x4AD JUMPI PUSH1 0x1 PUSH1 0x0 PUSH1 0x4 PUSH1 0x0 SWAP1 SLOAD SWAP1 PUSH2 0x100 EXP SWAP1 DIV PUSH20 0xFFFFFFFFFFFFFFFFFFFFFFFFFFFFFFFFFFFFFFFF AND PUSH20 0xFFFFFFFFFFFFFFFFFFFFFFFFFFFFFFFFFFFFFFFF AND PUSH20 0xFFFFFFFFFFFFFFFFFFFFFFFFFFFFFFFFFFFFFFFF AND DUP2 MSTORE PUSH1 0x20 ADD SWAP1 DUP2 MSTORE PUSH1 0x20 ADD PUSH1 0x0 KECCAK256 PUSH1 0x0 DUP2 SLOAD DUP1 SWAP3 SWAP2 SWAP1 PUSH2 0x432 SWAP1 PUSH2 0xEB0 JUMP JUMPDEST SWAP2 SWAP1 POP SSTORE POP PUSH1 0x2 PUSH1 0x0 SWAP1 SLOAD SWAP1 PUSH2 0x100 EXP SWAP1 DIV PUSH20 0xFFFFFFFFFFFFFFFFFFFFFFFFFFFFFFFFFFFFFFFF AND PUSH20 0xFFFFFFFFFFFFFFFFFFFFFFFFFFFFFFFFFFFFFFFF AND PUSH32 0x5579F99982AA469BA774030720CA9B44B56718C5AC9274754502A3C044811C73 PUSH1 0x0 PUSH1 0x40 MLOAD PUSH2 0x4A0 SWAP2 SWAP1 PUSH2 0xF6F JUMP JUMPDEST PUSH1 0x40 MLOAD DUP1 SWAP2 SUB SWAP1 LOG2 PUSH2 0x5C2 JUMP JUMPDEST DUP2 PUSH1 0x1 DUP2 GT ISZERO PUSH2 0x4C0 JUMPI PUSH2 0x4BF PUSH2 0xEF8 JUMP JUMPDEST JUMPDEST PUSH1 0x1 DUP1 DUP2 GT ISZERO PUSH2 0x4D3 JUMPI PUSH2 0x4D2 PUSH2 0xEF8 JUMP JUMPDEST JUMPDEST SUB PUSH2 0x5C1 JUMPI PUSH1 0x1 PUSH1 0x0 PUSH1 0x5 PUSH1 0x0 SWAP1 SLOAD SWAP1 PUSH2 0x100 EXP SWAP1 DIV PUSH20 0xFFFFFFFFFFFFFFFFFFFFFFFFFFFFFFFFFFFFFFFF AND PUSH20 0xFFFFFFFFFFFFFFFFFFFFFFFFFFFFFFFFFFFFFFFF AND PUSH20 0xFFFFFFFFFFFFFFFFFFFFFFFFFFFFFFFFFFFFFFFF AND DUP2 MSTORE PUSH1 0x20 ADD SWAP1 DUP2 MSTORE PUSH1 0x20 ADD PUSH1 0x0 KECCAK256 PUSH1 0x0 DUP2 SLOAD DUP1 SWAP3 SWAP2 SWAP1 PUSH2 0x54A SWAP1 PUSH2 0xEB0 JUMP JUMPDEST SWAP2 SWAP1 POP SSTORE POP PUSH1 0x2 PUSH1 0x0 SWAP1 SLOAD SWAP1 PUSH2 0x100 EXP SWAP1 DIV PUSH20 0xFFFFFFFFFFFFFFFFFFFFFFFFFFFFFFFFFFFFFFFF AND PUSH20 0xFFFFFFFFFFFFFFFFFFFFFFFFFFFFFFFFFFFFFFFF AND PUSH32 0x5579F99982AA469BA774030720CA9B44B56718C5AC9274754502A3C044811C73 PUSH1 0x1 PUSH1 0x40 MLOAD PUSH2 0x5B8 SWAP2 SWAP1 PUSH2 0xF6F JUMP JUMPDEST PUSH1 0x40 MLOAD DUP1 SWAP2 SUB SWAP1 LOG2 JUMPDEST JUMPDEST POP POP JUMP JUMPDEST PUSH1 0x60 DUP1 PUSH1 0x0 JUMPDEST PUSH1 0x2 DUP2 LT ISZERO PUSH2 0x6E3 JUMPI PUSH1 0x0 PUSH2 0x62B PUSH1 0x6 DUP4 PUSH1 0x2 DUP2 LT PUSH2 0x5EE JUMPI PUSH2 0x5ED PUSH2 0xF8A JUMP JUMPDEST JUMPDEST ADD PUSH1 0x0 SWAP1 SLOAD SWAP1 PUSH2 0x100 EXP SWAP1 DIV PUSH20 0xFFFFFFFFFFFFFFFFFFFFFFFFFFFFFFFFFFFFFFFF AND PUSH20 0xFFFFFFFFFFFFFFFFFFFFFFFFFFFFFFFFFFFFFFFF AND PUSH2 0x6EB JUMP JUMPDEST SWAP1 POP PUSH1 0x0 PUSH2 0x6AC PUSH1 0x1 PUSH1 0x0 PUSH1 0x6 DUP7 PUSH1 0x2 DUP2 LT PUSH2 0x64A JUMPI PUSH2 0x649 PUSH2 0xF8A JUMP JUMPDEST JUMPDEST ADD PUSH1 0x0 SWAP1 SLOAD SWAP1 PUSH2 0x100 EXP SWAP1 DIV PUSH20 0xFFFFFFFFFFFFFFFFFFFFFFFFFFFFFFFFFFFFFFFF AND PUSH20 0xFFFFFFFFFFFFFFFFFFFFFFFFFFFFFFFFFFFFFFFF AND PUSH20 0xFFFFFFFFFFFFFFFFFFFFFFFFFFFFFFFFFFFFFFFF AND DUP2 MSTORE PUSH1 0x20 ADD SWAP1 DUP2 MSTORE PUSH1 0x20 ADD PUSH1 0x0 KECCAK256 SLOAD PUSH2 0x718 JUMP JUMPDEST SWAP1 POP DUP4 DUP3 DUP3 PUSH1 0x40 MLOAD PUSH1 0x20 ADD PUSH2 0x6C3 SWAP4 SWAP3 SWAP2 SWAP1 PUSH2 0x10D9 JUMP JUMPDEST PUSH1 0x40 MLOAD PUSH1 0x20 DUP2 DUP4 SUB SUB DUP2 MSTORE SWAP1 PUSH1 0x40 MSTORE SWAP4 POP POP POP DUP1 DUP1 PUSH1 0x1 ADD SWAP2 POP POP PUSH2 0x5CC JUMP JUMPDEST POP DUP1 SWAP2 POP POP SWAP1 JUMP JUMPDEST PUSH1 0x60 PUSH2 0x711 DUP3 PUSH20 0xFFFFFFFFFFFFFFFFFFFFFFFFFFFFFFFFFFFFFFFF AND PUSH1 0x14 PUSH1 0xFF AND PUSH2 0x7E6 JUMP JUMPDEST SWAP1 POP SWAP2 SWAP1 POP JUMP JUMPDEST PUSH1 0x60 PUSH1 0x0 PUSH1 0x1 PUSH2 0x727 DUP5 PUSH2 0xA2C JUMP JUMPDEST ADD SWAP1 POP PUSH1 0x0 DUP2 PUSH8 0xFFFFFFFFFFFFFFFF DUP2 GT ISZERO PUSH2 0x746 JUMPI PUSH2 0x745 PUSH2 0x112B JUMP JUMPDEST JUMPDEST PUSH1 0x40 MLOAD SWAP1 DUP1 DUP3 MSTORE DUP1 PUSH1 0x1F ADD PUSH1 0x1F NOT AND PUSH1 0x20 ADD DUP3 ADD PUSH1 0x40 MSTORE DUP1 ISZERO PUSH2 0x778 JUMPI DUP2 PUSH1 0x20 ADD PUSH1 0x1 DUP3 MUL DUP1 CALLDATASIZE DUP4 CALLDATACOPY DUP1 DUP3 ADD SWAP2 POP POP SWAP1 POP JUMPDEST POP SWAP1 POP PUSH1 0x0 DUP3 PUSH1 0x20 ADD DUP3 ADD SWAP1 POP JUMPDEST PUSH1 0x1 ISZERO PUSH2 0x7DB JUMPI DUP1 DUP1 PUSH1 0x1 SWAP1 SUB SWAP2 POP POP PUSH32 0x3031323334353637383961626364656600000000000000000000000000000000 PUSH1 0xA DUP7 MOD BYTE DUP2 MSTORE8 PUSH1 0xA DUP6 DUP2 PUSH2 0x7CF JUMPI PUSH2 0x7CE PUSH2 0x115A JUMP JUMPDEST JUMPDEST DIV SWAP5 POP PUSH1 0x0 DUP6 SUB PUSH2 0x786 JUMPI JUMPDEST DUP2 SWAP4 POP POP POP POP SWAP2 SWAP1 POP JUMP JUMPDEST PUSH1 0x60 PUSH1 0x0 DUP4 SWAP1 POP PUSH1 0x0 PUSH1 0x2 DUP5 PUSH1 0x2 PUSH2 0x7FE SWAP2 SWAP1 PUSH2 0x1189 JUMP JUMPDEST PUSH2 0x808 SWAP2 SWAP1 PUSH2 0x11CB JUMP JUMPDEST PUSH8 0xFFFFFFFFFFFFFFFF DUP2 GT ISZERO PUSH2 0x821 JUMPI PUSH2 0x820 PUSH2 0x112B JUMP JUMPDEST JUMPDEST PUSH1 0x40 MLOAD SWAP1 DUP1 DUP3 MSTORE DUP1 PUSH1 0x1F ADD PUSH1 0x1F NOT AND PUSH1 0x20 ADD DUP3 ADD PUSH1 0x40 MSTORE DUP1 ISZERO PUSH2 0x853 JUMPI DUP2 PUSH1 0x20 ADD PUSH1 0x1 DUP3 MUL DUP1 CALLDATASIZE DUP4 CALLDATACOPY DUP1 DUP3 ADD SWAP2 POP POP SWAP1 POP JUMPDEST POP SWAP1 POP PUSH32 0x3000000000000000000000000000000000000000000000000000000000000000 DUP2 PUSH1 0x0 DUP2 MLOAD DUP2 LT PUSH2 0x88B JUMPI PUSH2 0x88A PUSH2 0xF8A JUMP JUMPDEST JUMPDEST PUSH1 0x20 ADD ADD SWAP1 PUSH31 0xFFFFFFFFFFFFFFFFFFFFFFFFFFFFFFFFFFFFFFFFFFFFFFFFFFFFFFFFFFFFFF NOT AND SWAP1 DUP2 PUSH1 0x0 BYTE SWAP1 MSTORE8 POP PUSH32 0x7800000000000000000000000000000000000000000000000000000000000000 DUP2 PUSH1 0x1 DUP2 MLOAD DUP2 LT PUSH2 0x8EF JUMPI PUSH2 0x8EE PUSH2 0xF8A JUMP JUMPDEST JUMPDEST PUSH1 0x20 ADD ADD SWAP1 PUSH31 0xFFFFFFFFFFFFFFFFFFFFFFFFFFFFFFFFFFFFFFFFFFFFFFFFFFFFFFFFFFFFFF NOT AND SWAP1 DUP2 PUSH1 0x0 BYTE SWAP1 MSTORE8 POP PUSH1 0x0 PUSH1 0x1 DUP6 PUSH1 0x2 PUSH2 0x92F SWAP2 SWAP1 PUSH2 0x1189 JUMP JUMPDEST PUSH2 0x939 SWAP2 SWAP1 PUSH2 0x11CB JUMP JUMPDEST SWAP1 POP JUMPDEST PUSH1 0x1 DUP2 GT ISZERO PUSH2 0x9D9 JUMPI PUSH32 0x3031323334353637383961626364656600000000000000000000000000000000 PUSH1 0xF DUP5 AND PUSH1 0x10 DUP2 LT PUSH2 0x97B JUMPI PUSH2 0x97A PUSH2 0xF8A JUMP JUMPDEST JUMPDEST BYTE PUSH1 0xF8 SHL DUP3 DUP3 DUP2 MLOAD DUP2 LT PUSH2 0x992 JUMPI PUSH2 0x991 PUSH2 0xF8A JUMP JUMPDEST JUMPDEST PUSH1 0x20 ADD ADD SWAP1 PUSH31 0xFFFFFFFFFFFFFFFFFFFFFFFFFFFFFFFFFFFFFFFFFFFFFFFFFFFFFFFFFFFFFF NOT AND SWAP1 DUP2 PUSH1 0x0 BYTE SWAP1 MSTORE8 POP PUSH1 0x4 DUP4 SWAP1 SHR SWAP3 POP DUP1 PUSH2 0x9D2 SWAP1 PUSH2 0x11FF JUMP JUMPDEST SWAP1 POP PUSH2 0x93C JUMP JUMPDEST POP PUSH1 0x0 DUP3 EQ PUSH2 0xA21 JUMPI DUP5 DUP5 PUSH1 0x40 MLOAD PUSH32 0xE22E27EB00000000000000000000000000000000000000000000000000000000 DUP2 MSTORE PUSH1 0x4 ADD PUSH2 0xA18 SWAP3 SWAP2 SWAP1 PUSH2 0x1237 JUMP JUMPDEST PUSH1 0x40 MLOAD DUP1 SWAP2 SUB SWAP1 REVERT JUMPDEST DUP1 SWAP3 POP POP POP SWAP3 SWAP2 POP POP JUMP JUMPDEST PUSH1 0x0 DUP1 PUSH1 0x0 SWAP1 POP PUSH27 0x184F03E93FF9F4DAA797ED6E38ED64BF6A1F010000000000000000 DUP4 LT PUSH2 0xA8A JUMPI PUSH27 0x184F03E93FF9F4DAA797ED6E38ED64BF6A1F010000000000000000 DUP4 DUP2 PUSH2 0xA80 JUMPI PUSH2 0xA7F PUSH2 0x115A JUMP JUMPDEST JUMPDEST DIV SWAP3 POP PUSH1 0x40 DUP2 ADD SWAP1 POP JUMPDEST PUSH14 0x4EE2D6D415B85ACEF8100000000 DUP4 LT PUSH2 0xAC7 JUMPI PUSH14 0x4EE2D6D415B85ACEF8100000000 DUP4 DUP2 PUSH2 0xABD JUMPI PUSH2 0xABC PUSH2 0x115A JUMP JUMPDEST JUMPDEST DIV SWAP3 POP PUSH1 0x20 DUP2 ADD SWAP1 POP JUMPDEST PUSH7 0x2386F26FC10000 DUP4 LT PUSH2 0xAF6 JUMPI PUSH7 0x2386F26FC10000 DUP4 DUP2 PUSH2 0xAEC JUMPI PUSH2 0xAEB PUSH2 0x115A JUMP JUMPDEST JUMPDEST DIV SWAP3 POP PUSH1 0x10 DUP2 ADD SWAP1 POP JUMPDEST PUSH4 0x5F5E100 DUP4 LT PUSH2 0xB1F JUMPI PUSH4 0x5F5E100 DUP4 DUP2 PUSH2 0xB15 JUMPI PUSH2 0xB14 PUSH2 0x115A JUMP JUMPDEST JUMPDEST DIV SWAP3 POP PUSH1 0x8 DUP2 ADD SWAP1 POP JUMPDEST PUSH2 0x2710 DUP4 LT PUSH2 0xB44 JUMPI PUSH2 0x2710 DUP4 DUP2 PUSH2 0xB3A JUMPI PUSH2 0xB39 PUSH2 0x115A JUMP JUMPDEST JUMPDEST DIV SWAP3 POP PUSH1 0x4 DUP2 ADD SWAP1 POP JUMPDEST PUSH1 0x64 DUP4 LT PUSH2 0xB67 JUMPI PUSH1 0x64 DUP4 DUP2 PUSH2 0xB5D JUMPI PUSH2 0xB5C PUSH2 0x115A JUMP JUMPDEST JUMPDEST DIV SWAP3 POP PUSH1 0x2 DUP2 ADD SWAP1 POP JUMPDEST PUSH1 0xA DUP4 LT PUSH2 0xB76 JUMPI PUSH1 0x1 DUP2 ADD SWAP1 POP JUMPDEST DUP1 SWAP2 POP POP SWAP2 SWAP1 POP JUMP JUMPDEST PUSH1 0x0 DUP1 REVERT JUMPDEST PUSH1 0x2 DUP2 LT PUSH2 0xB91 JUMPI PUSH1 0x0 DUP1 REVERT JUMPDEST POP JUMP JUMPDEST PUSH1 0x0 DUP2 CALLDATALOAD SWAP1 POP PUSH2 0xBA3 DUP2 PUSH2 0xB84 JUMP JUMPDEST SWAP3 SWAP2 POP POP JUMP JUMPDEST PUSH1 0x0 DUP2 SWAP1 POP SWAP2 SWAP1 POP JUMP JUMPDEST PUSH2 0xBBC DUP2 PUSH2 0xBA9 JUMP JUMPDEST DUP2 EQ PUSH2 0xBC7 JUMPI PUSH1 0x0 DUP1 REVERT JUMPDEST POP JUMP JUMPDEST PUSH1 0x0 DUP2 CALLDATALOAD SWAP1 POP PUSH2 0xBD9 DUP2 PUSH2 0xBB3 JUMP JUMPDEST SWAP3 SWAP2 POP POP JUMP JUMPDEST PUSH1 0x0 DUP1 PUSH1 0x40 DUP4 DUP6 SUB SLT ISZERO PUSH2 0xBF6 JUMPI PUSH2 0xBF5 PUSH2 0xB7F JUMP JUMPDEST JUMPDEST PUSH1 0x0 PUSH2 0xC04 DUP6 DUP3 DUP7 ADD PUSH2 0xB94 JUMP JUMPDEST SWAP3 POP POP PUSH1 0x20 PUSH2 0xC15 DUP6 DUP3 DUP7 ADD PUSH2 0xBCA JUMP JUMPDEST SWAP2 POP POP SWAP3 POP SWAP3 SWAP1 POP JUMP JUMPDEST PUSH1 0x0 DUP2 MLOAD SWAP1 POP SWAP2 SWAP1 POP JUMP JUMPDEST PUSH1 0x0 DUP3 DUP3 MSTORE PUSH1 0x20 DUP3 ADD SWAP1 POP SWAP3 SWAP2 POP POP JUMP JUMPDEST PUSH1 0x0 JUMPDEST DUP4 DUP2 LT ISZERO PUSH2 0xC59 JUMPI DUP1 DUP3 ADD MLOAD DUP2 DUP5 ADD MSTORE PUSH1 0x20 DUP2 ADD SWAP1 POP PUSH2 0xC3E JUMP JUMPDEST PUSH1 0x0 DUP5 DUP5 ADD MSTORE POP POP POP POP JUMP JUMPDEST PUSH1 0x0 PUSH1 0x1F NOT PUSH1 0x1F DUP4 ADD AND SWAP1 POP SWAP2 SWAP1 POP JUMP JUMPDEST PUSH1 0x0 PUSH2 0xC81 DUP3 PUSH2 0xC1F JUMP JUMPDEST PUSH2 0xC8B DUP2 DUP6 PUSH2 0xC2A JUMP JUMPDEST SWAP4 POP PUSH2 0xC9B DUP2 DUP6 PUSH1 0x20 DUP7 ADD PUSH2 0xC3B JUMP JUMPDEST PUSH2 0xCA4 DUP2 PUSH2 0xC65 JUMP JUMPDEST DUP5 ADD SWAP2 POP POP SWAP3 SWAP2 POP POP JUMP JUMPDEST PUSH1 0x0 PUSH1 0x20 DUP3 ADD SWAP1 POP DUP2 DUP2 SUB PUSH1 0x0 DUP4 ADD MSTORE PUSH2 0xCC9 DUP2 DUP5 PUSH2 0xC76 JUMP JUMPDEST SWAP1 POP SWAP3 SWAP2 POP POP JUMP JUMPDEST PUSH32 0x596F75206E65656420746F206265206F6C646572207468616E20313800000000 PUSH1 0x0 DUP3 ADD MSTORE POP JUMP JUMPDEST PUSH1 0x0 PUSH2 0xD07 PUSH1 0x1C DUP4 PUSH2 0xC2A JUMP JUMPDEST SWAP2 POP PUSH2 0xD12 DUP3 PUSH2 0xCD1 JUMP JUMPDEST PUSH1 0x20 DUP3 ADD SWAP1 POP SWAP2 SWAP1 POP JUMP JUMPDEST PUSH1 0x0 PUSH1 0x20 DUP3 ADD SWAP1 POP DUP2 DUP2 SUB PUSH1 0x0 DUP4 ADD MSTORE PUSH2 0xD36 DUP2 PUSH2 0xCFA JUMP JUMPDEST SWAP1 POP SWAP2 SWAP1 POP JUMP JUMPDEST PUSH32 0x596F75206861766520616C726561647920766F74656400000000000000000000 PUSH1 0x0 DUP3 ADD MSTORE POP JUMP JUMPDEST PUSH1 0x0 PUSH2 0xD73 PUSH1 0x16 DUP4 PUSH2 0xC2A JUMP JUMPDEST SWAP2 POP PUSH2 0xD7E DUP3 PUSH2 0xD3D JUMP JUMPDEST PUSH1 0x20 DUP3 ADD SWAP1 POP SWAP2 SWAP1 POP JUMP JUMPDEST PUSH1 0x0 PUSH1 0x20 DUP3 ADD SWAP1 POP DUP2 DUP2 SUB PUSH1 0x0 DUP4 ADD MSTORE PUSH2 0xDA2 DUP2 PUSH2 0xD66 JUMP JUMPDEST SWAP1 POP SWAP2 SWAP1 POP JUMP JUMPDEST PUSH32 0x4F776E65722063616E7420766F74650000000000000000000000000000000000 PUSH1 0x0 DUP3 ADD MSTORE POP JUMP JUMPDEST PUSH1 0x0 PUSH2 0xDDF PUSH1 0xF DUP4 PUSH2 0xC2A JUMP JUMPDEST SWAP2 POP PUSH2 0xDEA DUP3 PUSH2 0xDA9 JUMP JUMPDEST PUSH1 0x20 DUP3 ADD SWAP1 POP SWAP2 SWAP1 POP JUMP JUMPDEST PUSH1 0x0 PUSH1 0x20 DUP3 ADD SWAP1 POP DUP2 DUP2 SUB PUSH1 0x0 DUP4 ADD MSTORE PUSH2 0xE0E DUP2 PUSH2 0xDD2 JUMP JUMPDEST SWAP1 POP SWAP2 SWAP1 POP JUMP JUMPDEST PUSH32 0x566F74696E672066696E69736865640000000000000000000000000000000000 PUSH1 0x0 DUP3 ADD MSTORE POP JUMP JUMPDEST PUSH1 0x0 PUSH2 0xE4B PUSH1 0xF DUP4 PUSH2 0xC2A JUMP JUMPDEST SWAP2 POP PUSH2 0xE56 DUP3 PUSH2 0xE15 JUMP JUMPDEST PUSH1 0x20 DUP3 ADD SWAP1 POP SWAP2 SWAP1 POP JUMP JUMPDEST PUSH1 0x0 PUSH1 0x20 DUP3 ADD SWAP1 POP DUP2 DUP2 SUB PUSH1 0x0 DUP4 ADD MSTORE PUSH2 0xE7A DUP2 PUSH2 0xE3E JUMP JUMPDEST SWAP1 POP SWAP2 SWAP1 POP JUMP JUMPDEST PUSH32 0x4E487B7100000000000000000000000000000000000000000000000000000000 PUSH1 0x0 MSTORE PUSH1 0x11 PUSH1 0x4 MSTORE PUSH1 0x24 PUSH1 0x0 REVERT JUMPDEST PUSH1 0x0 PUSH2 0xEBB DUP3 PUSH2 0xBA9 JUMP JUMPDEST SWAP2 POP PUSH32 0xFFFFFFFFFFFFFFFFFFFFFFFFFFFFFFFFFFFFFFFFFFFFFFFFFFFFFFFFFFFFFFFF DUP3 SUB PUSH2 0xEED JUMPI PUSH2 0xEEC PUSH2 0xE81 JUMP JUMPDEST JUMPDEST PUSH1 0x1 DUP3 ADD SWAP1 POP SWAP2 SWAP1 POP JUMP JUMPDEST PUSH32 0x4E487B7100000000000000000000000000000000000000000000000000000000 PUSH1 0x0 MSTORE PUSH1 0x21 PUSH1 0x4 MSTORE PUSH1 0x24 PUSH1 0x0 REVERT JUMPDEST PUSH1 0x2 DUP2 LT PUSH2 0xF38 JUMPI PUSH2 0xF37 PUSH2 0xEF8 JUMP JUMPDEST JUMPDEST POP JUMP JUMPDEST PUSH1 0x0 DUP2 SWAP1 POP PUSH2 0xF49 DUP3 PUSH2 0xF27 JUMP JUMPDEST SWAP2 SWAP1 POP JUMP JUMPDEST PUSH1 0x0 PUSH2 0xF59 DUP3 PUSH2 0xF3B JUMP JUMPDEST SWAP1 POP SWAP2 SWAP1 POP JUMP JUMPDEST PUSH2 0xF69 DUP2 PUSH2 0xF4E JUMP JUMPDEST DUP3 MSTORE POP POP JUMP JUMPDEST PUSH1 0x0 PUSH1 0x20 DUP3 ADD SWAP1 POP PUSH2 0xF84 PUSH1 0x0 DUP4 ADD DUP5 PUSH2 0xF60 JUMP JUMPDEST SWAP3 SWAP2 POP POP JUMP JUMPDEST PUSH32 0x4E487B7100000000000000000000000000000000000000000000000000000000 PUSH1 0x0 MSTORE PUSH1 0x32 PUSH1 0x4 MSTORE PUSH1 0x24 PUSH1 0x0 REVERT JUMPDEST PUSH1 0x0 DUP2 SWAP1 POP SWAP3 SWAP2 POP POP JUMP JUMPDEST PUSH1 0x0 PUSH2 0xFCF DUP3 PUSH2 0xC1F JUMP JUMPDEST PUSH2 0xFD9 DUP2 DUP6 PUSH2 0xFB9 JUMP JUMPDEST SWAP4 POP PUSH2 0xFE9 DUP2 DUP6 PUSH1 0x20 DUP7 ADD PUSH2 0xC3B JUMP JUMPDEST DUP1 DUP5 ADD SWAP2 POP POP SWAP3 SWAP2 POP POP JUMP JUMPDEST PUSH32 0x203D200000000000000000000000000000000000000000000000000000000000 PUSH1 0x0 DUP3 ADD MSTORE POP JUMP JUMPDEST PUSH1 0x0 PUSH2 0x102B PUSH1 0x3 DUP4 PUSH2 0xFB9 JUMP JUMPDEST SWAP2 POP PUSH2 0x1036 DUP3 PUSH2 0xFF5 JUMP JUMPDEST PUSH1 0x3 DUP3 ADD SWAP1 POP SWAP2 SWAP1 POP JUMP JUMPDEST PUSH32 0xA00000000000000000000000000000000000000000000000000000000000000 PUSH1 0x0 DUP3 ADD MSTORE POP JUMP JUMPDEST PUSH1 0x0 PUSH2 0x1077 PUSH1 0x1 DUP4 PUSH2 0xFB9 JUMP JUMPDEST SWAP2 POP PUSH2 0x1082 DUP3 PUSH2 0x1041 JUMP JUMPDEST PUSH1 0x1 DUP3 ADD SWAP1 POP SWAP2 SWAP1 POP JUMP JUMPDEST PUSH32 0x2D2D2D2D2D2D2D2D2D0000000000000000000000000000000000000000000000 PUSH1 0x0 DUP3 ADD MSTORE POP JUMP JUMPDEST PUSH1 0x0 PUSH2 0x10C3 PUSH1 0x9 DUP4 PUSH2 0xFB9 JUMP JUMPDEST SWAP2 POP PUSH2 0x10CE DUP3 PUSH2 0x108D JUMP JUMPDEST PUSH1 0x9 DUP3 ADD SWAP1 POP SWAP2 SWAP1 POP JUMP JUMPDEST PUSH1 0x0 PUSH2 0x10E5 DUP3 DUP7 PUSH2 0xFC4 JUMP JUMPDEST SWAP2 POP PUSH2 0x10F1 DUP3 DUP6 PUSH2 0xFC4 JUMP JUMPDEST SWAP2 POP PUSH2 0x10FC DUP3 PUSH2 0x101E JUMP JUMPDEST SWAP2 POP PUSH2 0x1108 DUP3 DUP5 PUSH2 0xFC4 JUMP JUMPDEST SWAP2 POP PUSH2 0x1113 DUP3 PUSH2 0x106A JUMP JUMPDEST SWAP2 POP PUSH2 0x111E DUP3 PUSH2 0x10B6 JUMP JUMPDEST SWAP2 POP DUP2 SWAP1 POP SWAP5 SWAP4 POP POP POP POP JUMP JUMPDEST PUSH32 0x4E487B7100000000000000000000000000000000000000000000000000000000 PUSH1 0x0 MSTORE PUSH1 0x41 PUSH1 0x4 MSTORE PUSH1 0x24 PUSH1 0x0 REVERT JUMPDEST PUSH32 0x4E487B7100000000000000000000000000000000000000000000000000000000 PUSH1 0x0 MSTORE PUSH1 0x12 PUSH1 0x4 MSTORE PUSH1 0x24 PUSH1 0x0 REVERT JUMPDEST PUSH1 0x0 PUSH2 0x1194 DUP3 PUSH2 0xBA9 JUMP JUMPDEST SWAP2 POP PUSH2 0x119F DUP4 PUSH2 0xBA9 JUMP JUMPDEST SWAP3 POP DUP3 DUP3 MUL PUSH2 0x11AD DUP2 PUSH2 0xBA9 JUMP JUMPDEST SWAP2 POP DUP3 DUP3 DIV DUP5 EQ DUP4 ISZERO OR PUSH2 0x11C4 JUMPI PUSH2 0x11C3 PUSH2 0xE81 JUMP JUMPDEST JUMPDEST POP SWAP3 SWAP2 POP POP JUMP JUMPDEST PUSH1 0x0 PUSH2 0x11D6 DUP3 PUSH2 0xBA9 JUMP JUMPDEST SWAP2 POP PUSH2 0x11E1 DUP4 PUSH2 0xBA9 JUMP JUMPDEST SWAP3 POP DUP3 DUP3 ADD SWAP1 POP DUP1 DUP3 GT ISZERO PUSH2 0x11F9 JUMPI PUSH2 0x11F8 PUSH2 0xE81 JUMP JUMPDEST JUMPDEST SWAP3 SWAP2 POP POP JUMP JUMPDEST PUSH1 0x0 PUSH2 0x120A DUP3 PUSH2 0xBA9 JUMP JUMPDEST SWAP2 POP PUSH1 0x0 DUP3 SUB PUSH2 0x121D JUMPI PUSH2 0x121C PUSH2 0xE81 JUMP JUMPDEST JUMPDEST PUSH1 0x1 DUP3 SUB SWAP1 POP SWAP2 SWAP1 POP JUMP JUMPDEST PUSH2 0x1231 DUP2 PUSH2 0xBA9 JUMP JUMPDEST DUP3 MSTORE POP POP JUMP JUMPDEST PUSH1 0x0 PUSH1 0x40 DUP3 ADD SWAP1 POP PUSH2 0x124C PUSH1 0x0 DUP4 ADD DUP6 PUSH2 0x1228 JUMP JUMPDEST PUSH2 0x1259 PUSH1 0x20 DUP4 ADD DUP5 PUSH2 0x1228 JUMP JUMPDEST SWAP4 SWAP3 POP POP POP JUMP INVALID LOG2 PUSH5 0x6970667358 0x22 SLT KECCAK256 DUP5 SWAP12 PUSH0 RETURNDATASIZE 0xD8 BLOCKHASH RETURN SWAP8 0xF KECCAK256 DUP1 TIMESTAMP JUMPDEST RETURN SWAP5 CODECOPY 0x24 SGT PUSH3 0x4B8BDB LT DUP10 PC SSTORE DUP15 0xB0 EXTCODEHASH PUSH4 0x8706473 PUSH16 0x6C634300081A00330000000000000000 "
				},
				"gasEstimates": {
					"creation": {
						"codeDepositCost": "951600",
						"executionCost": "infinite",
						"totalCost": "infinite"
					},
					"external": {
						"getResult()": "infinite",
						"vote(uint8,uint256)": "infinite"
					}
				},
				"methodIdentifiers": {
					"getResult()": "de292789",
					"vote(uint8,uint256)": "d3f29ace"
				}
			},
			"storageLayout": {
				"storage": [
					{
						"astId": 10,
						"contract": "04 SamrtConttractBasic/SimpleVoting1.sol:SimpleVoting",
						"label": "voters",
						"offset": 0,
						"slot": "0",
						"type": "t_mapping(t_address,t_bool)"
					},
					{
						"astId": 14,
						"contract": "04 SamrtConttractBasic/SimpleVoting1.sol:SimpleVoting",
						"label": "candidatesResults",
						"offset": 0,
						"slot": "1",
						"type": "t_mapping(t_address,t_uint256)"
					},
					{
						"astId": 16,
						"contract": "04 SamrtConttractBasic/SimpleVoting1.sol:SimpleVoting",
						"label": "voter",
						"offset": 0,
						"slot": "2",
						"type": "t_address"
					},
					{
						"astId": 19,
						"contract": "04 SamrtConttractBasic/SimpleVoting1.sol:SimpleVoting",
						"label": "_owner",
						"offset": 0,
						"slot": "3",
						"type": "t_address"
					},
					{
						"astId": 22,
						"contract": "04 SamrtConttractBasic/SimpleVoting1.sol:SimpleVoting",
						"label": "_cadidateOne",
						"offset": 0,
						"slot": "4",
						"type": "t_address"
					},
					{
						"astId": 25,
						"contract": "04 SamrtConttractBasic/SimpleVoting1.sol:SimpleVoting",
						"label": "_cadidateTwo",
						"offset": 0,
						"slot": "5",
						"type": "t_address"
					},
					{
						"astId": 32,
						"contract": "04 SamrtConttractBasic/SimpleVoting1.sol:SimpleVoting",
						"label": "allCandidates",
						"offset": 0,
						"slot": "6",
						"type": "t_array(t_address)2_storage"
					},
					{
						"astId": 35,
						"contract": "04 SamrtConttractBasic/SimpleVoting1.sol:SimpleVoting",
						"label": "allVoters",
						"offset": 0,
						"slot": "8",
						"type": "t_array(t_address)dyn_storage"
					},
					{
						"astId": 37,
						"contract": "04 SamrtConttractBasic/SimpleVoting1.sol:SimpleVoting",
						"label": "voterCount",
						"offset": 0,
						"slot": "9",
						"type": "t_uint256"
					}
				],
				"types": {
					"t_address": {
						"encoding": "inplace",
						"label": "address",
						"numberOfBytes": "20"
					},
					"t_array(t_address)2_storage": {
						"base": "t_address",
						"encoding": "inplace",
						"label": "address[2]",
						"numberOfBytes": "64"
					},
					"t_array(t_address)dyn_storage": {
						"base": "t_address",
						"encoding": "dynamic_array",
						"label": "address[]",
						"numberOfBytes": "32"
					},
					"t_bool": {
						"encoding": "inplace",
						"label": "bool",
						"numberOfBytes": "1"
					},
					"t_mapping(t_address,t_bool)": {
						"encoding": "mapping",
						"key": "t_address",
						"label": "mapping(address => bool)",
						"numberOfBytes": "32",
						"value": "t_bool"
					},
					"t_mapping(t_address,t_uint256)": {
						"encoding": "mapping",
						"key": "t_address",
						"label": "mapping(address => uint256)",
						"numberOfBytes": "32",
						"value": "t_uint256"
					},
					"t_uint256": {
						"encoding": "inplace",
						"label": "uint256",
						"numberOfBytes": "32"
					}
				}
			},
			"userdoc": {
				"kind": "user",
				"methods": {},
				"version": 1
			}
		}
	}
}