{
	"data": {
		"bytecode": {
			"linkReferences": {},
			"object": "60806040526005600055348015601457600080fd5b506102a0806100246000396000f3fe608060405234801561001057600080fd5b50600436106100415760003560e01c806329e99f07146100465780634fd959b014610076578063e78a6881146100a7575b600080fd5b610060600480360381019061005b9190610145565b6100c5565b60405161006d9190610181565b60405180910390f35b610090600480360381019061008b9190610145565b6100db565b60405161009e92919061019c565b60405180910390f35b6100af610101565b6040516100bc9190610181565b60405180910390f35b6000600a826100d491906101f4565b9050919050565b6000806005836100eb9190610228565b9150600a836100fa9190610228565b9050915091565b60008054905090565b600080fd5b6000819050919050565b6101228161010f565b811461012d57600080fd5b50565b60008135905061013f81610119565b92915050565b60006020828403121561015b5761015a61010a565b5b600061016984828501610130565b91505092915050565b61017b8161010f565b82525050565b60006020820190506101966000830184610172565b92915050565b60006040820190506101b16000830185610172565b6101be6020830184610172565b9392505050565b7f4e487b7100000000000000000000000000000000000000000000000000000000600052601160045260246000fd5b60006101ff8261010f565b915061020a8361010f565b9250828201905080821115610222576102216101c5565b5b92915050565b60006102338261010f565b915061023e8361010f565b925082820261024c8161010f565b91508282048414831517610263576102626101c5565b5b509291505056fea2646970667358221220f9bb41720efa7ee585077f91655ece2498acb359e0643ffeb4f3b087e5da450564736f6c634300081a0033",
			"opcodes": "PUSH1 0x80 PUSH1 0x40 MSTORE PUSH1 0x5 PUSH1 0x0 SSTORE CALLVALUE DUP1 ISZERO PUSH1 0x14 JUMPI PUSH1 0x0 DUP1 REVERT JUMPDEST POP PUSH2 0x2A0 DUP1 PUSH2 0x24 PUSH1 0x0 CODECOPY PUSH1 0x0 RETURN INVALID PUSH1 0x80 PUSH1 0x40 MSTORE CALLVALUE DUP1 ISZERO PUSH2 0x10 JUMPI PUSH1 0x0 DUP1 REVERT JUMPDEST POP PUSH1 0x4 CALLDATASIZE LT PUSH2 0x41 JUMPI PUSH1 0x0 CALLDATALOAD PUSH1 0xE0 SHR DUP1 PUSH4 0x29E99F07 EQ PUSH2 0x46 JUMPI DUP1 PUSH4 0x4FD959B0 EQ PUSH2 0x76 JUMPI DUP1 PUSH4 0xE78A6881 EQ PUSH2 0xA7 JUMPI JUMPDEST PUSH1 0x0 DUP1 REVERT JUMPDEST PUSH2 0x60 PUSH1 0x4 DUP1 CALLDATASIZE SUB DUP2 ADD SWAP1 PUSH2 0x5B SWAP2 SWAP1 PUSH2 0x145 JUMP JUMPDEST PUSH2 0xC5 JUMP JUMPDEST PUSH1 0x40 MLOAD PUSH2 0x6D SWAP2 SWAP1 PUSH2 0x181 JUMP JUMPDEST PUSH1 0x40 MLOAD DUP1 SWAP2 SUB SWAP1 RETURN JUMPDEST PUSH2 0x90 PUSH1 0x4 DUP1 CALLDATASIZE SUB DUP2 ADD SWAP1 PUSH2 0x8B SWAP2 SWAP1 PUSH2 0x145 JUMP JUMPDEST PUSH2 0xDB JUMP JUMPDEST PUSH1 0x40 MLOAD PUSH2 0x9E SWAP3 SWAP2 SWAP1 PUSH2 0x19C JUMP JUMPDEST PUSH1 0x40 MLOAD DUP1 SWAP2 SUB SWAP1 RETURN JUMPDEST PUSH2 0xAF PUSH2 0x101 JUMP JUMPDEST PUSH1 0x40 MLOAD PUSH2 0xBC SWAP2 SWAP1 PUSH2 0x181 JUMP JUMPDEST PUSH1 0x40 MLOAD DUP1 SWAP2 SUB SWAP1 RETURN JUMPDEST PUSH1 0x0 PUSH1 0xA DUP3 PUSH2 0xD4 SWAP2 SWAP1 PUSH2 0x1F4 JUMP JUMPDEST SWAP1 POP SWAP2 SWAP1 POP JUMP JUMPDEST PUSH1 0x0 DUP1 PUSH1 0x5 DUP4 PUSH2 0xEB SWAP2 SWAP1 PUSH2 0x228 JUMP JUMPDEST SWAP2 POP PUSH1 0xA DUP4 PUSH2 0xFA SWAP2 SWAP1 PUSH2 0x228 JUMP JUMPDEST SWAP1 POP SWAP2 POP SWAP2 JUMP JUMPDEST PUSH1 0x0 DUP1 SLOAD SWAP1 POP SWAP1 JUMP JUMPDEST PUSH1 0x0 DUP1 REVERT JUMPDEST PUSH1 0x0 DUP2 SWAP1 POP SWAP2 SWAP1 POP JUMP JUMPDEST PUSH2 0x122 DUP2 PUSH2 0x10F JUMP JUMPDEST DUP2 EQ PUSH2 0x12D JUMPI PUSH1 0x0 DUP1 REVERT JUMPDEST POP JUMP JUMPDEST PUSH1 0x0 DUP2 CALLDATALOAD SWAP1 POP PUSH2 0x13F DUP2 PUSH2 0x119 JUMP JUMPDEST SWAP3 SWAP2 POP POP JUMP JUMPDEST PUSH1 0x0 PUSH1 0x20 DUP3 DUP5 SUB SLT ISZERO PUSH2 0x15B JUMPI PUSH2 0x15A PUSH2 0x10A JUMP JUMPDEST JUMPDEST PUSH1 0x0 PUSH2 0x169 DUP5 DUP3 DUP6 ADD PUSH2 0x130 JUMP JUMPDEST SWAP2 POP POP SWAP3 SWAP2 POP POP JUMP JUMPDEST PUSH2 0x17B DUP2 PUSH2 0x10F JUMP JUMPDEST DUP3 MSTORE POP POP JUMP JUMPDEST PUSH1 0x0 PUSH1 0x20 DUP3 ADD SWAP1 POP PUSH2 0x196 PUSH1 0x0 DUP4 ADD DUP5 PUSH2 0x172 JUMP JUMPDEST SWAP3 SWAP2 POP POP JUMP JUMPDEST PUSH1 0x0 PUSH1 0x40 DUP3 ADD SWAP1 POP PUSH2 0x1B1 PUSH1 0x0 DUP4 ADD DUP6 PUSH2 0x172 JUMP JUMPDEST PUSH2 0x1BE PUSH1 0x20 DUP4 ADD DUP5 PUSH2 0x172 JUMP JUMPDEST SWAP4 SWAP3 POP POP POP JUMP JUMPDEST PUSH32 0x4E487B7100000000000000000000000000000000000000000000000000000000 PUSH1 0x0 MSTORE PUSH1 0x11 PUSH1 0x4 MSTORE PUSH1 0x24 PUSH1 0x0 REVERT JUMPDEST PUSH1 0x0 PUSH2 0x1FF DUP3 PUSH2 0x10F JUMP JUMPDEST SWAP2 POP PUSH2 0x20A DUP4 PUSH2 0x10F JUMP JUMPDEST SWAP3 POP DUP3 DUP3 ADD SWAP1 POP DUP1 DUP3 GT ISZERO PUSH2 0x222 JUMPI PUSH2 0x221 PUSH2 0x1C5 JUMP JUMPDEST JUMPDEST SWAP3 SWAP2 POP POP JUMP JUMPDEST PUSH1 0x0 PUSH2 0x233 DUP3 PUSH2 0x10F JUMP JUMPDEST SWAP2 POP PUSH2 0x23E DUP4 PUSH2 0x10F JUMP JUMPDEST SWAP3 POP DUP3 DUP3 MUL PUSH2 0x24C DUP2 PUSH2 0x10F JUMP JUMPDEST SWAP2 POP DUP3 DUP3 DIV DUP5 EQ DUP4 ISZERO OR PUSH2 0x263 JUMPI PUSH2 0x262 PUSH2 0x1C5 JUMP JUMPDEST JUMPDEST POP SWAP3 SWAP2 POP POP JUMP INVALID LOG2 PUSH5 0x6970667358 0x22 SLT KECCAK256 0xF9 0xBB COINBASE PUSH19 0xEFA7EE585077F91655ECE2498ACB359E0643F INVALID 0xB4 RETURN 0xB0 DUP8 0xE5 0xDA GASLIMIT SDIV PUSH5 0x736F6C6343 STOP ADDMOD BYTE STOP CALLER "
		},
		"gasEstimates": {
			"creation": {
				"codeDepositCost": "134400",
				"executionCost": "22283",
				"totalCost": "156683"
			},
			"external": {
				"NamedArguments(uint256)": "infinite",
				"displayPrivateVariable()": "2459",
				"test(uint256)": "infinite"
			}
		},
		"methodIdentifiers": {
			"NamedArguments(uint256)": "4fd959b0",
			"displayPrivateVariable()": "e78a6881",
			"test(uint256)": "29e99f07"
		}
	},
	"abi": [
		{
			"inputs": [
				{
					"internalType": "uint256",
					"name": "a",
					"type": "uint256"
				}
			],
			"name": "NamedArguments",
			"outputs": [
				{
					"internalType": "uint256",
					"name": "b",
					"type": "uint256"
				},
				{
					"internalType": "uint256",
					"name": "c",
					"type": "uint256"
				}
			],
			"stateMutability": "pure",
			"type": "function"
		},
		{
			"inputs": [],
			"name": "displayPrivateVariable",
			"outputs": [
				{
					"internalType": "uint256",
					"name": "",
					"type": "uint256"
				}
			],
			"stateMutability": "view",
			"type": "function"
		},
		{
			"inputs": [
				{
					"internalType": "uint256",
					"name": "a",
					"type": "uint256"
				}
			],
			"name": "test",
			"outputs": [
				{
					"internalType": "uint256",
					"name": "",
					"type": "uint256"
				}
			],
			"stateMutability": "pure",
			"type": "function"
		}
	]
}