{
	"data": {
		"bytecode": {
			"linkReferences": {},
			"object": "6080604052348015600f57600080fd5b5061037a8061001f6000396000f3fe608060405234801561001057600080fd5b50600436106100365760003560e01c80632fde3f1a1461003b578063b78ca5501461006b575b600080fd5b610055600480360381019061005091906101b4565b61009b565b60405161006291906101f0565b60405180910390f35b610085600480360381019061008091906101b4565b6100de565b60405161009291906101f0565b60405180910390f35b60006100d760056100c960096100bb60208761012190919063ffffffff16565b61013790919063ffffffff16565b61014d90919063ffffffff16565b9050919050565b600061011a602061010c60056100fe60098761013790919063ffffffff16565b61014d90919063ffffffff16565b61016390919063ffffffff16565b9050919050565b6000818361012f919061023a565b905092915050565b60008183610145919061026e565b905092915050565b6000818361015b91906102df565b905092915050565b600081836101719190610310565b905092915050565b600080fd5b6000819050919050565b6101918161017e565b811461019c57600080fd5b50565b6000813590506101ae81610188565b92915050565b6000602082840312156101ca576101c9610179565b5b60006101d88482850161019f565b91505092915050565b6101ea8161017e565b82525050565b600060208201905061020560008301846101e1565b92915050565b7f4e487b7100000000000000000000000000000000000000000000000000000000600052601160045260246000fd5b60006102458261017e565b91506102508361017e565b92508282039050818111156102685761026761020b565b5b92915050565b60006102798261017e565b91506102848361017e565b92508282026102928161017e565b915082820484148315176102a9576102a861020b565b5b5092915050565b7f4e487b7100000000000000000000000000000000000000000000000000000000600052601260045260246000fd5b60006102ea8261017e565b91506102f58361017e565b925082610305576103046102b0565b5b828204905092915050565b600061031b8261017e565b91506103268361017e565b925082820190508082111561033e5761033d61020b565b5b9291505056fea2646970667358221220ddd6c6074947109a06a69f3285ae6e1fed38908917ce3ac4668600b852e9800f64736f6c634300081a0033",
			"opcodes": "PUSH1 0x80 PUSH1 0x40 MSTORE CALLVALUE DUP1 ISZERO PUSH1 0xF JUMPI PUSH1 0x0 DUP1 REVERT JUMPDEST POP PUSH2 0x37A DUP1 PUSH2 0x1F PUSH1 0x0 CODECOPY PUSH1 0x0 RETURN INVALID PUSH1 0x80 PUSH1 0x40 MSTORE CALLVALUE DUP1 ISZERO PUSH2 0x10 JUMPI PUSH1 0x0 DUP1 REVERT JUMPDEST POP PUSH1 0x4 CALLDATASIZE LT PUSH2 0x36 JUMPI PUSH1 0x0 CALLDATALOAD PUSH1 0xE0 SHR DUP1 PUSH4 0x2FDE3F1A EQ PUSH2 0x3B JUMPI DUP1 PUSH4 0xB78CA550 EQ PUSH2 0x6B JUMPI JUMPDEST PUSH1 0x0 DUP1 REVERT JUMPDEST PUSH2 0x55 PUSH1 0x4 DUP1 CALLDATASIZE SUB DUP2 ADD SWAP1 PUSH2 0x50 SWAP2 SWAP1 PUSH2 0x1B4 JUMP JUMPDEST PUSH2 0x9B JUMP JUMPDEST PUSH1 0x40 MLOAD PUSH2 0x62 SWAP2 SWAP1 PUSH2 0x1F0 JUMP JUMPDEST PUSH1 0x40 MLOAD DUP1 SWAP2 SUB SWAP1 RETURN JUMPDEST PUSH2 0x85 PUSH1 0x4 DUP1 CALLDATASIZE SUB DUP2 ADD SWAP1 PUSH2 0x80 SWAP2 SWAP1 PUSH2 0x1B4 JUMP JUMPDEST PUSH2 0xDE JUMP JUMPDEST PUSH1 0x40 MLOAD PUSH2 0x92 SWAP2 SWAP1 PUSH2 0x1F0 JUMP JUMPDEST PUSH1 0x40 MLOAD DUP1 SWAP2 SUB SWAP1 RETURN JUMPDEST PUSH1 0x0 PUSH2 0xD7 PUSH1 0x5 PUSH2 0xC9 PUSH1 0x9 PUSH2 0xBB PUSH1 0x20 DUP8 PUSH2 0x121 SWAP1 SWAP2 SWAP1 PUSH4 0xFFFFFFFF AND JUMP JUMPDEST PUSH2 0x137 SWAP1 SWAP2 SWAP1 PUSH4 0xFFFFFFFF AND JUMP JUMPDEST PUSH2 0x14D SWAP1 SWAP2 SWAP1 PUSH4 0xFFFFFFFF AND JUMP JUMPDEST SWAP1 POP SWAP2 SWAP1 POP JUMP JUMPDEST PUSH1 0x0 PUSH2 0x11A PUSH1 0x20 PUSH2 0x10C PUSH1 0x5 PUSH2 0xFE PUSH1 0x9 DUP8 PUSH2 0x137 SWAP1 SWAP2 SWAP1 PUSH4 0xFFFFFFFF AND JUMP JUMPDEST PUSH2 0x14D SWAP1 SWAP2 SWAP1 PUSH4 0xFFFFFFFF AND JUMP JUMPDEST PUSH2 0x163 SWAP1 SWAP2 SWAP1 PUSH4 0xFFFFFFFF AND JUMP JUMPDEST SWAP1 POP SWAP2 SWAP1 POP JUMP JUMPDEST PUSH1 0x0 DUP2 DUP4 PUSH2 0x12F SWAP2 SWAP1 PUSH2 0x23A JUMP JUMPDEST SWAP1 POP SWAP3 SWAP2 POP POP JUMP JUMPDEST PUSH1 0x0 DUP2 DUP4 PUSH2 0x145 SWAP2 SWAP1 PUSH2 0x26E JUMP JUMPDEST SWAP1 POP SWAP3 SWAP2 POP POP JUMP JUMPDEST PUSH1 0x0 DUP2 DUP4 PUSH2 0x15B SWAP2 SWAP1 PUSH2 0x2DF JUMP JUMPDEST SWAP1 POP SWAP3 SWAP2 POP POP JUMP JUMPDEST PUSH1 0x0 DUP2 DUP4 PUSH2 0x171 SWAP2 SWAP1 PUSH2 0x310 JUMP JUMPDEST SWAP1 POP SWAP3 SWAP2 POP POP JUMP JUMPDEST PUSH1 0x0 DUP1 REVERT JUMPDEST PUSH1 0x0 DUP2 SWAP1 POP SWAP2 SWAP1 POP JUMP JUMPDEST PUSH2 0x191 DUP2 PUSH2 0x17E JUMP JUMPDEST DUP2 EQ PUSH2 0x19C JUMPI PUSH1 0x0 DUP1 REVERT JUMPDEST POP JUMP JUMPDEST PUSH1 0x0 DUP2 CALLDATALOAD SWAP1 POP PUSH2 0x1AE DUP2 PUSH2 0x188 JUMP JUMPDEST SWAP3 SWAP2 POP POP JUMP JUMPDEST PUSH1 0x0 PUSH1 0x20 DUP3 DUP5 SUB SLT ISZERO PUSH2 0x1CA JUMPI PUSH2 0x1C9 PUSH2 0x179 JUMP JUMPDEST JUMPDEST PUSH1 0x0 PUSH2 0x1D8 DUP5 DUP3 DUP6 ADD PUSH2 0x19F JUMP JUMPDEST SWAP2 POP POP SWAP3 SWAP2 POP POP JUMP JUMPDEST PUSH2 0x1EA DUP2 PUSH2 0x17E JUMP JUMPDEST DUP3 MSTORE POP POP JUMP JUMPDEST PUSH1 0x0 PUSH1 0x20 DUP3 ADD SWAP1 POP PUSH2 0x205 PUSH1 0x0 DUP4 ADD DUP5 PUSH2 0x1E1 JUMP JUMPDEST SWAP3 SWAP2 POP POP JUMP JUMPDEST PUSH32 0x4E487B7100000000000000000000000000000000000000000000000000000000 PUSH1 0x0 MSTORE PUSH1 0x11 PUSH1 0x4 MSTORE PUSH1 0x24 PUSH1 0x0 REVERT JUMPDEST PUSH1 0x0 PUSH2 0x245 DUP3 PUSH2 0x17E JUMP JUMPDEST SWAP2 POP PUSH2 0x250 DUP4 PUSH2 0x17E JUMP JUMPDEST SWAP3 POP DUP3 DUP3 SUB SWAP1 POP DUP2 DUP2 GT ISZERO PUSH2 0x268 JUMPI PUSH2 0x267 PUSH2 0x20B JUMP JUMPDEST JUMPDEST SWAP3 SWAP2 POP POP JUMP JUMPDEST PUSH1 0x0 PUSH2 0x279 DUP3 PUSH2 0x17E JUMP JUMPDEST SWAP2 POP PUSH2 0x284 DUP4 PUSH2 0x17E JUMP JUMPDEST SWAP3 POP DUP3 DUP3 MUL PUSH2 0x292 DUP2 PUSH2 0x17E JUMP JUMPDEST SWAP2 POP DUP3 DUP3 DIV DUP5 EQ DUP4 ISZERO OR PUSH2 0x2A9 JUMPI PUSH2 0x2A8 PUSH2 0x20B JUMP JUMPDEST JUMPDEST POP SWAP3 SWAP2 POP POP JUMP JUMPDEST PUSH32 0x4E487B7100000000000000000000000000000000000000000000000000000000 PUSH1 0x0 MSTORE PUSH1 0x12 PUSH1 0x4 MSTORE PUSH1 0x24 PUSH1 0x0 REVERT JUMPDEST PUSH1 0x0 PUSH2 0x2EA DUP3 PUSH2 0x17E JUMP JUMPDEST SWAP2 POP PUSH2 0x2F5 DUP4 PUSH2 0x17E JUMP JUMPDEST SWAP3 POP DUP3 PUSH2 0x305 JUMPI PUSH2 0x304 PUSH2 0x2B0 JUMP JUMPDEST JUMPDEST DUP3 DUP3 DIV SWAP1 POP SWAP3 SWAP2 POP POP JUMP JUMPDEST PUSH1 0x0 PUSH2 0x31B DUP3 PUSH2 0x17E JUMP JUMPDEST SWAP2 POP PUSH2 0x326 DUP4 PUSH2 0x17E JUMP JUMPDEST SWAP3 POP DUP3 DUP3 ADD SWAP1 POP DUP1 DUP3 GT ISZERO PUSH2 0x33E JUMPI PUSH2 0x33D PUSH2 0x20B JUMP JUMPDEST JUMPDEST SWAP3 SWAP2 POP POP JUMP INVALID LOG2 PUSH5 0x6970667358 0x22 SLT KECCAK256 0xDD 0xD6 0xC6 SMOD BLOBHASH SELFBALANCE LT SWAP11 MOD 0xA6 SWAP16 ORIGIN DUP6 0xAE PUSH15 0x1FED38908917CE3AC4668600B852E9 DUP1 0xF PUSH5 0x736F6C6343 STOP ADDMOD BYTE STOP CALLER "
		},
		"gasEstimates": {
			"creation": {
				"codeDepositCost": "178000",
				"executionCost": "220",
				"totalCost": "178220"
			},
			"external": {
				"toCelsius(uint256)": "infinite",
				"toFahrenheit(uint256)": "infinite"
			}
		},
		"methodIdentifiers": {
			"toCelsius(uint256)": "2fde3f1a",
			"toFahrenheit(uint256)": "b78ca550"
		}
	},
	"abi": [
		{
			"inputs": [
				{
					"internalType": "uint256",
					"name": "temperature_",
					"type": "uint256"
				}
			],
			"name": "toCelsius",
			"outputs": [
				{
					"internalType": "uint256",
					"name": "",
					"type": "uint256"
				}
			],
			"stateMutability": "pure",
			"type": "function"
		},
		{
			"inputs": [
				{
					"internalType": "uint256",
					"name": "temperature_",
					"type": "uint256"
				}
			],
			"name": "toFahrenheit",
			"outputs": [
				{
					"internalType": "uint256",
					"name": "",
					"type": "uint256"
				}
			],
			"stateMutability": "pure",
			"type": "function"
		}
	]
}